{
  "_format": "hh-sol-artifact-1",
  "contractName": "MooveToken",
  "sourceName": "contracts/MooveToken.sol",
  "abi": [
    {
      "inputs": [
        {
          "internalType": "string",
          "name": "_nameToken",
          "type": "string"
        },
        {
          "internalType": "string",
          "name": "_symbolToken",
          "type": "string"
        }
      ],
      "stateMutability": "nonpayable",
      "type": "constructor"
    },
    {
      "inputs": [
        {
          "internalType": "address",
          "name": "sender",
          "type": "address"
        },
        {
          "internalType": "uint256",
          "name": "tokenId",
          "type": "uint256"
        },
        {
          "internalType": "address",
          "name": "owner",
          "type": "address"
        }
      ],
      "name": "ERC721IncorrectOwner",
      "type": "error"
    },
    {
      "inputs": [
        {
          "internalType": "address",
          "name": "operator",
          "type": "address"
        },
        {
          "internalType": "uint256",
          "name": "tokenId",
          "type": "uint256"
        }
      ],
      "name": "ERC721InsufficientApproval",
      "type": "error"
    },
    {
      "inputs": [
        {
          "internalType": "address",
          "name": "approver",
          "type": "address"
        }
      ],
      "name": "ERC721InvalidApprover",
      "type": "error"
    },
    {
      "inputs": [
        {
          "internalType": "address",
          "name": "operator",
          "type": "address"
        }
      ],
      "name": "ERC721InvalidOperator",
      "type": "error"
    },
    {
      "inputs": [
        {
          "internalType": "address",
          "name": "owner",
          "type": "address"
        }
      ],
      "name": "ERC721InvalidOwner",
      "type": "error"
    },
    {
      "inputs": [
        {
          "internalType": "address",
          "name": "receiver",
          "type": "address"
        }
      ],
      "name": "ERC721InvalidReceiver",
      "type": "error"
    },
    {
      "inputs": [
        {
          "internalType": "address",
          "name": "sender",
          "type": "address"
        }
      ],
      "name": "ERC721InvalidSender",
      "type": "error"
    },
    {
      "inputs": [
        {
          "internalType": "uint256",
          "name": "tokenId",
          "type": "uint256"
        }
      ],
      "name": "ERC721NonexistentToken",
      "type": "error"
    },
    {
      "inputs": [
        {
          "internalType": "address",
          "name": "owner",
          "type": "address"
        }
      ],
      "name": "OwnableInvalidOwner",
      "type": "error"
    },
    {
      "inputs": [
        {
          "internalType": "address",
          "name": "account",
          "type": "address"
        }
      ],
      "name": "OwnableUnauthorizedAccount",
      "type": "error"
    },
    {
      "anonymous": false,
      "inputs": [
        {
          "indexed": true,
          "internalType": "address",
          "name": "owner",
          "type": "address"
        },
        {
          "indexed": true,
          "internalType": "address",
          "name": "approved",
          "type": "address"
        },
        {
          "indexed": true,
          "internalType": "uint256",
          "name": "tokenId",
          "type": "uint256"
        }
      ],
      "name": "Approval",
      "type": "event"
    },
    {
      "anonymous": false,
      "inputs": [
        {
          "indexed": true,
          "internalType": "address",
          "name": "owner",
          "type": "address"
        },
        {
          "indexed": true,
          "internalType": "address",
          "name": "operator",
          "type": "address"
        },
        {
          "indexed": false,
          "internalType": "bool",
          "name": "approved",
          "type": "bool"
        }
      ],
      "name": "ApprovalForAll",
      "type": "event"
    },
    {
      "anonymous": false,
      "inputs": [
        {
          "indexed": true,
          "internalType": "string",
          "name": "name",
          "type": "string"
        },
        {
          "indexed": true,
          "internalType": "string",
          "name": "model",
          "type": "string"
        }
      ],
      "name": "NFTAuctionsVehicles",
      "type": "event"
    },
    {
      "anonymous": false,
      "inputs": [
        {
          "indexed": true,
          "internalType": "uint256",
          "name": "idVehicle",
          "type": "uint256"
        },
        {
          "indexed": true,
          "internalType": "address",
          "name": "owner",
          "type": "address"
        }
      ],
      "name": "NFTVehicleBuyed",
      "type": "event"
    },
    {
      "anonymous": false,
      "inputs": [
        {
          "indexed": true,
          "internalType": "string",
          "name": "name",
          "type": "string"
        },
        {
          "indexed": true,
          "internalType": "string",
          "name": "model",
          "type": "string"
        }
      ],
      "name": "NFTVehicleCreated",
      "type": "event"
    },
    {
      "anonymous": false,
      "inputs": [
        {
          "indexed": false,
          "internalType": "uint256",
          "name": "idVehicle",
          "type": "uint256"
        },
        {
          "indexed": true,
          "internalType": "address",
          "name": "from",
          "type": "address"
        },
        {
          "indexed": true,
          "internalType": "address",
          "name": "to",
          "type": "address"
        }
      ],
      "name": "NFTVehicleTransferred",
      "type": "event"
    },
    {
      "anonymous": false,
      "inputs": [
        {
          "indexed": true,
          "internalType": "address",
          "name": "previousOwner",
          "type": "address"
        },
        {
          "indexed": true,
          "internalType": "address",
          "name": "newOwner",
          "type": "address"
        }
      ],
      "name": "OwnershipTransferred",
      "type": "event"
    },
    {
      "anonymous": false,
      "inputs": [
        {
          "indexed": true,
          "internalType": "address",
          "name": "from",
          "type": "address"
        },
        {
          "indexed": true,
          "internalType": "address",
          "name": "to",
          "type": "address"
        },
        {
          "indexed": true,
          "internalType": "uint256",
          "name": "tokenId",
          "type": "uint256"
        }
      ],
      "name": "Transfer",
      "type": "event"
    },
    {
      "anonymous": false,
      "inputs": [
        {
          "indexed": true,
          "internalType": "uint256",
          "name": "idVehicle",
          "type": "uint256"
        }
      ],
      "name": "VehicleExpired",
      "type": "event"
    },
    {
      "inputs": [
        {
          "internalType": "uint256",
          "name": "_id",
          "type": "uint256"
        },
        {
          "internalType": "string",
          "name": "_name",
          "type": "string"
        },
        {
          "internalType": "string",
          "name": "_model",
          "type": "string"
        },
        {
          "internalType": "uint256",
          "name": "_priceVehicle",
          "type": "uint256"
        }
      ],
      "name": "addVehicle",
      "outputs": [],
      "stateMutability": "nonpayable",
      "type": "function"
    },
    {
      "inputs": [
        {
          "internalType": "uint256",
          "name": "_id",
          "type": "uint256"
        },
        {
          "internalType": "string",
          "name": "_name",
          "type": "string"
        },
        {
          "internalType": "string",
          "name": "_model",
          "type": "string"
        }
      ],
      "name": "addVehicleAuctions",
      "outputs": [],
      "stateMutability": "nonpayable",
      "type": "function"
    },
    {
      "inputs": [
        {
          "internalType": "address",
          "name": "to",
          "type": "address"
        },
        {
          "internalType": "uint256",
          "name": "tokenId",
          "type": "uint256"
        }
      ],
      "name": "approve",
      "outputs": [],
      "stateMutability": "nonpayable",
      "type": "function"
    },
    {
      "inputs": [],
      "name": "arrayAuctionsVehicles",
      "outputs": [
        {
          "internalType": "uint256[]",
          "name": "",
          "type": "uint256[]"
        }
      ],
      "stateMutability": "view",
      "type": "function"
    },
    {
      "inputs": [
        {
          "internalType": "address",
          "name": "_account",
          "type": "address"
        }
      ],
      "name": "arrayPurchasedVehiclesByAddress",
      "outputs": [
        {
          "internalType": "uint256[]",
          "name": "",
          "type": "uint256[]"
        }
      ],
      "stateMutability": "view",
      "type": "function"
    },
    {
      "inputs": [],
      "name": "arrayVehicleIds",
      "outputs": [
        {
          "internalType": "uint256[]",
          "name": "",
          "type": "uint256[]"
        }
      ],
      "stateMutability": "view",
      "type": "function"
    },
    {
      "inputs": [],
      "name": "arrayVehiclesPurchased",
      "outputs": [
        {
          "internalType": "uint256[]",
          "name": "",
          "type": "uint256[]"
        }
      ],
      "stateMutability": "view",
      "type": "function"
    },
    {
      "inputs": [
        {
          "internalType": "uint256",
          "name": "",
          "type": "uint256"
        }
      ],
      "name": "availableVehicle",
      "outputs": [
        {
          "internalType": "bool",
          "name": "",
          "type": "bool"
        }
      ],
      "stateMutability": "view",
      "type": "function"
    },
    {
      "inputs": [
        {
          "internalType": "address",
          "name": "owner",
          "type": "address"
        }
      ],
      "name": "balanceOf",
      "outputs": [
        {
          "internalType": "uint256",
          "name": "",
          "type": "uint256"
        }
      ],
      "stateMutability": "view",
      "type": "function"
    },
    {
      "inputs": [
        {
          "internalType": "uint256",
          "name": "_idVehicle",
          "type": "uint256"
        }
      ],
      "name": "buyNFTVehicle",
      "outputs": [],
      "stateMutability": "payable",
      "type": "function"
    },
    {
      "inputs": [
        {
          "internalType": "uint256",
          "name": "",
          "type": "uint256"
        }
      ],
      "name": "detailsVehicle",
      "outputs": [
        {
          "internalType": "uint256",
          "name": "id",
          "type": "uint256"
        },
        {
          "internalType": "string",
          "name": "name",
          "type": "string"
        },
        {
          "internalType": "string",
          "name": "model",
          "type": "string"
        },
        {
          "internalType": "uint256",
          "name": "priceVehicle",
          "type": "uint256"
        },
        {
          "internalType": "bool",
          "name": "available",
          "type": "bool"
        },
        {
          "internalType": "address",
          "name": "owner",
          "type": "address"
        },
        {
          "internalType": "uint256",
          "name": "willEndAt",
          "type": "uint256"
        }
      ],
      "stateMutability": "view",
      "type": "function"
    },
    {
      "inputs": [
        {
          "internalType": "uint256",
          "name": "_idVehicle",
          "type": "uint256"
        }
      ],
      "name": "expiryCheck",
      "outputs": [],
      "stateMutability": "nonpayable",
      "type": "function"
    },
    {
      "inputs": [
        {
          "internalType": "uint256",
          "name": "tokenId",
          "type": "uint256"
        }
      ],
      "name": "getApproved",
      "outputs": [
        {
          "internalType": "address",
          "name": "",
          "type": "address"
        }
      ],
      "stateMutability": "view",
      "type": "function"
    },
    {
      "inputs": [],
      "name": "getCurrentTimestamp",
      "outputs": [
        {
          "internalType": "uint256",
          "name": "",
          "type": "uint256"
        }
      ],
      "stateMutability": "view",
      "type": "function"
    },
    {
      "inputs": [
        {
          "internalType": "address",
          "name": "owner",
          "type": "address"
        },
        {
          "internalType": "address",
          "name": "operator",
          "type": "address"
        }
      ],
      "name": "isApprovedForAll",
      "outputs": [
        {
          "internalType": "bool",
          "name": "",
          "type": "bool"
        }
      ],
      "stateMutability": "view",
      "type": "function"
    },
    {
      "inputs": [],
      "name": "name",
      "outputs": [
        {
          "internalType": "string",
          "name": "",
          "type": "string"
        }
      ],
      "stateMutability": "view",
      "type": "function"
    },
    {
      "inputs": [],
      "name": "owner",
      "outputs": [
        {
          "internalType": "address",
          "name": "",
          "type": "address"
        }
      ],
      "stateMutability": "view",
      "type": "function"
    },
    {
      "inputs": [
        {
          "internalType": "uint256",
          "name": "tokenId",
          "type": "uint256"
        }
      ],
      "name": "ownerOf",
      "outputs": [
        {
          "internalType": "address",
          "name": "",
          "type": "address"
        }
      ],
      "stateMutability": "view",
      "type": "function"
    },
    {
      "inputs": [],
      "name": "renounceOwnership",
      "outputs": [],
      "stateMutability": "nonpayable",
      "type": "function"
    },
    {
      "inputs": [
        {
          "internalType": "address",
          "name": "from",
          "type": "address"
        },
        {
          "internalType": "address",
          "name": "to",
          "type": "address"
        },
        {
          "internalType": "uint256",
          "name": "tokenId",
          "type": "uint256"
        }
      ],
      "name": "safeTransferFrom",
      "outputs": [],
      "stateMutability": "nonpayable",
      "type": "function"
    },
    {
      "inputs": [
        {
          "internalType": "address",
          "name": "from",
          "type": "address"
        },
        {
          "internalType": "address",
          "name": "to",
          "type": "address"
        },
        {
          "internalType": "uint256",
          "name": "tokenId",
          "type": "uint256"
        },
        {
          "internalType": "bytes",
          "name": "data",
          "type": "bytes"
        }
      ],
      "name": "safeTransferFrom",
      "outputs": [],
      "stateMutability": "nonpayable",
      "type": "function"
    },
    {
      "inputs": [
        {
          "internalType": "address",
          "name": "operator",
          "type": "address"
        },
        {
          "internalType": "bool",
          "name": "approved",
          "type": "bool"
        }
      ],
      "name": "setApprovalForAll",
      "outputs": [],
      "stateMutability": "nonpayable",
      "type": "function"
    },
    {
      "inputs": [
        {
          "internalType": "bytes4",
          "name": "interfaceId",
          "type": "bytes4"
        }
      ],
      "name": "supportsInterface",
      "outputs": [
        {
          "internalType": "bool",
          "name": "",
          "type": "bool"
        }
      ],
      "stateMutability": "view",
      "type": "function"
    },
    {
      "inputs": [],
      "name": "symbol",
      "outputs": [
        {
          "internalType": "string",
          "name": "",
          "type": "string"
        }
      ],
      "stateMutability": "view",
      "type": "function"
    },
    {
      "inputs": [
        {
          "internalType": "uint256",
          "name": "tokenId",
          "type": "uint256"
        }
      ],
      "name": "tokenURI",
      "outputs": [
        {
          "internalType": "string",
          "name": "",
          "type": "string"
        }
      ],
      "stateMutability": "view",
      "type": "function"
    },
    {
      "inputs": [
        {
          "internalType": "address",
          "name": "_from",
          "type": "address"
        },
        {
          "internalType": "address",
          "name": "_to",
          "type": "address"
        },
        {
          "internalType": "uint256",
          "name": "_tokenId",
          "type": "uint256"
        }
      ],
      "name": "transferFrom",
      "outputs": [],
      "stateMutability": "nonpayable",
      "type": "function"
    },
    {
      "inputs": [
        {
          "internalType": "address",
          "name": "newOwner",
          "type": "address"
        }
      ],
      "name": "transferOwnership",
      "outputs": [],
      "stateMutability": "nonpayable",
      "type": "function"
    }
  ],
  "bytecode": "0x60806040523480156200001157600080fd5b506040516200466938038062004669833981810160405281019062000037919062000389565b33828281600090816200004b919062000659565b5080600190816200005d919062000659565b505050600073ffffffffffffffffffffffffffffffffffffffff168173ffffffffffffffffffffffffffffffffffffffff1603620000d55760006040517f1e4fbdf7000000000000000000000000000000000000000000000000000000008152600401620000cc919062000785565b60405180910390fd5b620000e6816200013060201b60201c565b5033600760006101000a81548173ffffffffffffffffffffffffffffffffffffffff021916908373ffffffffffffffffffffffffffffffffffffffff1602179055505050620007a2565b6000600660009054906101000a900473ffffffffffffffffffffffffffffffffffffffff16905081600660006101000a81548173ffffffffffffffffffffffffffffffffffffffff021916908373ffffffffffffffffffffffffffffffffffffffff1602179055508173ffffffffffffffffffffffffffffffffffffffff168173ffffffffffffffffffffffffffffffffffffffff167f8be0079c531659141344cd1fd0a4f28419497f9722a3daafe3b4186f6b6457e060405160405180910390a35050565b6000604051905090565b600080fd5b600080fd5b600080fd5b600080fd5b6000601f19601f8301169050919050565b7f4e487b7100000000000000000000000000000000000000000000000000000000600052604160045260246000fd5b6200025f8262000214565b810181811067ffffffffffffffff8211171562000281576200028062000225565b5b80604052505050565b600062000296620001f6565b9050620002a4828262000254565b919050565b600067ffffffffffffffff821115620002c757620002c662000225565b5b620002d28262000214565b9050602081019050919050565b60005b83811015620002ff578082015181840152602081019050620002e2565b60008484015250505050565b6000620003226200031c84620002a9565b6200028a565b9050828152602081018484840111156200034157620003406200020f565b5b6200034e848285620002df565b509392505050565b600082601f8301126200036e576200036d6200020a565b5b8151620003808482602086016200030b565b91505092915050565b60008060408385031215620003a357620003a262000200565b5b600083015167ffffffffffffffff811115620003c457620003c362000205565b5b620003d28582860162000356565b925050602083015167ffffffffffffffff811115620003f657620003f562000205565b5b620004048582860162000356565b9150509250929050565b600081519050919050565b7f4e487b7100000000000000000000000000000000000000000000000000000000600052602260045260246000fd5b600060028204905060018216806200046157607f821691505b60208210810362000477576200047662000419565b5b50919050565b60008190508160005260206000209050919050565b60006020601f8301049050919050565b600082821b905092915050565b600060088302620004e17fffffffffffffffffffffffffffffffffffffffffffffffffffffffffffffffff82620004a2565b620004ed8683620004a2565b95508019841693508086168417925050509392505050565b6000819050919050565b6000819050919050565b60006200053a620005346200052e8462000505565b6200050f565b62000505565b9050919050565b6000819050919050565b620005568362000519565b6200056e620005658262000541565b848454620004af565b825550505050565b600090565b6200058562000576565b620005928184846200054b565b505050565b5b81811015620005ba57620005ae6000826200057b565b60018101905062000598565b5050565b601f8211156200060957620005d3816200047d565b620005de8462000492565b81016020851015620005ee578190505b62000606620005fd8562000492565b83018262000597565b50505b505050565b600082821c905092915050565b60006200062e600019846008026200060e565b1980831691505092915050565b60006200064983836200061b565b9150826002028217905092915050565b62000664826200040e565b67ffffffffffffffff81111562000680576200067f62000225565b5b6200068c825462000448565b62000699828285620005be565b600060209050601f831160018114620006d15760008415620006bc578287015190505b620006c885826200063b565b86555062000738565b601f198416620006e1866200047d565b60005b828110156200070b57848901518255600182019150602085019450602081019050620006e4565b868310156200072b578489015162000727601f8916826200061b565b8355505b6001600288020188555050505b505050505050565b600073ffffffffffffffffffffffffffffffffffffffff82169050919050565b60006200076d8262000740565b9050919050565b6200077f8162000760565b82525050565b60006020820190506200079c600083018462000774565b92915050565b613eb780620007b26000396000f3fe60806040526004361061019c5760003560e01c806379046a54116100ec578063babbb5e11161008a578063e985e9c511610064578063e985e9c5146105cf578063f2fde38b1461060c578063f701ba7b14610635578063fe65af1b146106725761019c565b8063babbb5e114610526578063c87b56dd14610569578063dca54e47146105a65761019c565b806395d89b41116100c657806395d89b4114610480578063a22cb465146104ab578063b642c775146104d4578063b88d4fde146104fd5761019c565b806379046a541461040e5780637b306a6b146104395780638da5cb5b146104555761019c565b8063263787d7116101595780636352211e116101335780636352211e146103525780636c9230db1461038f57806370a08231146103ba578063715018a6146103f75761019c565b8063263787d7146102d557806339a897c11461030057806342842e0e146103295761019c565b806301ffc9a7146101a157806306fdde03146101de578063081812fc14610209578063095ea7b31461024657806319610fae1461026f57806323b872dd146102ac575b600080fd5b3480156101ad57600080fd5b506101c860048036038101906101c39190612e2d565b61069d565b6040516101d59190612e75565b60405180910390f35b3480156101ea57600080fd5b506101f361077f565b6040516102009190612f20565b60405180910390f35b34801561021557600080fd5b50610230600480360381019061022b9190612f78565b610811565b60405161023d9190612fe6565b60405180910390f35b34801561025257600080fd5b5061026d6004803603810190610268919061302d565b61082d565b005b34801561027b57600080fd5b5061029660048036038101906102919190612f78565b610843565b6040516102a39190612e75565b60405180910390f35b3480156102b857600080fd5b506102d360048036038101906102ce919061306d565b610863565b005b3480156102e157600080fd5b506102ea61092d565b6040516102f7919061317e565b60405180910390f35b34801561030c57600080fd5b50610327600480360381019061032291906132d5565b610985565b005b34801561033557600080fd5b50610350600480360381019061034b919061306d565b610b5e565b005b34801561035e57600080fd5b5061037960048036038101906103749190612f78565b610b7e565b6040516103869190612fe6565b60405180910390f35b34801561039b57600080fd5b506103a4610b90565b6040516103b1919061336f565b60405180910390f35b3480156103c657600080fd5b506103e160048036038101906103dc919061338a565b610b98565b6040516103ee919061336f565b60405180910390f35b34801561040357600080fd5b5061040c610c52565b005b34801561041a57600080fd5b50610423610c66565b604051610430919061317e565b60405180910390f35b610453600480360381019061044e9190612f78565b610cbe565b005b34801561046157600080fd5b5061046a611060565b6040516104779190612fe6565b60405180910390f35b34801561048c57600080fd5b5061049561108a565b6040516104a29190612f20565b60405180910390f35b3480156104b757600080fd5b506104d260048036038101906104cd91906133e3565b61111c565b005b3480156104e057600080fd5b506104fb60048036038101906104f69190613423565b611132565b005b34801561050957600080fd5b50610524600480360381019061051f9190613563565b61130b565b005b34801561053257600080fd5b5061054d60048036038101906105489190612f78565b611328565b60405161056097969594939291906135e6565b60405180910390f35b34801561057557600080fd5b50610590600480360381019061058b9190612f78565b6114a7565b60405161059d9190612f20565b60405180910390f35b3480156105b257600080fd5b506105cd60048036038101906105c89190612f78565b611510565b005b3480156105db57600080fd5b506105f660048036038101906105f19190613663565b61177b565b6040516106039190612e75565b60405180910390f35b34801561061857600080fd5b50610633600480360381019061062e919061338a565b61180f565b005b34801561064157600080fd5b5061065c6004803603810190610657919061338a565b611895565b604051610669919061317e565b60405180910390f35b34801561067e57600080fd5b5061068761192c565b604051610694919061317e565b60405180910390f35b60007f80ac58cd000000000000000000000000000000000000000000000000000000007bffffffffffffffffffffffffffffffffffffffffffffffffffffffff1916827bffffffffffffffffffffffffffffffffffffffffffffffffffffffff1916148061076857507f5b5e139f000000000000000000000000000000000000000000000000000000007bffffffffffffffffffffffffffffffffffffffffffffffffffffffff1916827bffffffffffffffffffffffffffffffffffffffffffffffffffffffff1916145b80610778575061077782611984565b5b9050919050565b60606000805461078e906136d2565b80601f01602080910402602001604051908101604052809291908181526020018280546107ba906136d2565b80156108075780601f106107dc57610100808354040283529160200191610807565b820191906000526020600020905b8154815290600101906020018083116107ea57829003601f168201915b5050505050905090565b600061081c826119ee565b5061082682611a76565b9050919050565b61083f828261083a611ab3565b611abb565b5050565b60096020528060005260406000206000915054906101000a900460ff1681565b61086e838383611acd565b816008600083815260200190815260200160002060040160016101000a81548173ffffffffffffffffffffffffffffffffffffffff021916908373ffffffffffffffffffffffffffffffffffffffff1602179055508173ffffffffffffffffffffffffffffffffffffffff168373ffffffffffffffffffffffffffffffffffffffff167fcd8b38cefcfe1ddd69acc0c4a3b72838681981b18de8d5f5ad85aada541b1ee083604051610920919061336f565b60405180910390a3505050565b6060600c80548060200260200160405190810160405280929190818152602001828054801561097b57602002820191906000526020600020905b815481526020019060010190808311610967575b5050505050905090565b61098d611bcf565b6040518060e00160405280848152602001838152602001828152602001600081526020016001151581526020013373ffffffffffffffffffffffffffffffffffffffff168152602001600081525060086000858152602001908152602001600020600082015181600001556020820151816001019081610a0d91906138af565b506040820151816002019081610a2391906138af565b506060820151816003015560808201518160040160006101000a81548160ff02191690831515021790555060a08201518160040160016101000a81548173ffffffffffffffffffffffffffffffffffffffff021916908373ffffffffffffffffffffffffffffffffffffffff16021790555060c0820151816005015590505060016009600085815260200190815260200160002060006101000a81548160ff021916908315150217905550600e839080600181540180825580915050600190039060005260206000200160009091909190915055610b013384611c56565b80604051610b0f91906139bd565b604051809103902082604051610b2591906139bd565b60405180910390207f3b2424469d2a0fa3ed7b7ced5fe8369bf96eeb17f49cca9f28e25e383a4f187260405160405180910390a3505050565b610b798383836040518060200160405280600081525061130b565b505050565b6000610b89826119ee565b9050919050565b600042905090565b60008073ffffffffffffffffffffffffffffffffffffffff168273ffffffffffffffffffffffffffffffffffffffff1603610c0b5760006040517f89c62b64000000000000000000000000000000000000000000000000000000008152600401610c029190612fe6565b60405180910390fd5b600360008373ffffffffffffffffffffffffffffffffffffffff1673ffffffffffffffffffffffffffffffffffffffff168152602001908152602001600020549050919050565b610c5a611bcf565b610c646000611c74565b565b6060600e805480602002602001604051908101604052809291908181526020018280548015610cb457602002820191906000526020600020905b815481526020019060010190808311610ca0575b5050505050905090565b60008080600090505b600c80549050811015610d125783600c8281548110610ce957610ce86139d4565b5b906000526020600020015403610d055760019250809150610d12565b8080600101915050610cc7565b5060006008600085815260200190815260200160002060030154905060006008600086815260200190815260200160002060040160019054906101000a900473ffffffffffffffffffffffffffffffffffffffff1690506001151584151514610db0576040517f08c379a0000000000000000000000000000000000000000000000000000000008152600401610da790613a4f565b60405180910390fd5b600760009054906101000a900473ffffffffffffffffffffffffffffffffffffffff1673ffffffffffffffffffffffffffffffffffffffff166008600087815260200190815260200160002060040160019054906101000a900473ffffffffffffffffffffffffffffffffffffffff1673ffffffffffffffffffffffffffffffffffffffff1614610e76576040517f08c379a0000000000000000000000000000000000000000000000000000000008152600401610e6d90613ae1565b60405180910390fd5b81341015610eb9576040517f08c379a0000000000000000000000000000000000000000000000000000000008152600401610eb090613b73565b60405180910390fd5b610ec4338683611abb565b610ecf813387610863565b60006008600087815260200190815260200160002060040160006101000a81548160ff021916908315150217905550336008600087815260200190815260200160002060040160016101000a81548173ffffffffffffffffffffffffffffffffffffffff021916908373ffffffffffffffffffffffffffffffffffffffff160217905550603c42610f609190613bc2565b600860008781526020019081526020016000206005018190555060006009600087815260200190815260200160002060006101000a81548160ff021916908315150217905550600a60003373ffffffffffffffffffffffffffffffffffffffff1673ffffffffffffffffffffffffffffffffffffffff16815260200190815260200160002085908060018154018082558091505060019003906000526020600020016000909190919091505561101585611d3a565b3373ffffffffffffffffffffffffffffffffffffffff16857f112e4af3852d711647537c1b0427246ba66a8a586c3f5bea0cc09fd81b8bb23060405160405180910390a35050505050565b6000600660009054906101000a900473ffffffffffffffffffffffffffffffffffffffff16905090565b606060018054611099906136d2565b80601f01602080910402602001604051908101604052809291908181526020018280546110c5906136d2565b80156111125780601f106110e757610100808354040283529160200191611112565b820191906000526020600020905b8154815290600101906020018083116110f557829003601f168201915b5050505050905090565b61112e611127611ab3565b8383611e49565b5050565b61113a611bcf565b6040518060e001604052808581526020018481526020018381526020018281526020016001151581526020013373ffffffffffffffffffffffffffffffffffffffff1681526020016000815250600860008681526020019081526020016000206000820151816000015560208201518160010190816111b991906138af565b5060408201518160020190816111cf91906138af565b506060820151816003015560808201518160040160006101000a81548160ff02191690831515021790555060a08201518160040160016101000a81548173ffffffffffffffffffffffffffffffffffffffff021916908373ffffffffffffffffffffffffffffffffffffffff16021790555060c0820151816005015590505060016009600086815260200190815260200160002060006101000a81548160ff021916908315150217905550600c8490806001815401808255809150506001900390600052602060002001600090919091909150556112ad3385611c56565b816040516112bb91906139bd565b6040518091039020836040516112d191906139bd565b60405180910390207f927de78391648190e6dff178494499568a6f07d6a22bda10eb10a944b73f450e60405160405180910390a350505050565b611316848484610863565b61132284848484611fb8565b50505050565b6008602052806000526040600020600091509050806000015490806001018054611351906136d2565b80601f016020809104026020016040519081016040528092919081815260200182805461137d906136d2565b80156113ca5780601f1061139f576101008083540402835291602001916113ca565b820191906000526020600020905b8154815290600101906020018083116113ad57829003601f168201915b5050505050908060020180546113df906136d2565b80601f016020809104026020016040519081016040528092919081815260200182805461140b906136d2565b80156114585780601f1061142d57610100808354040283529160200191611458565b820191906000526020600020905b81548152906001019060200180831161143b57829003601f168201915b5050505050908060030154908060040160009054906101000a900460ff16908060040160019054906101000a900473ffffffffffffffffffffffffffffffffffffffff16908060050154905087565b60606114b2826119ee565b5060006114bd61216f565b905060008151116114dd5760405180602001604052806000815250611508565b806114e784612186565b6040516020016114f8929190613bf6565b6040516020818303038152906040525b915050919050565b611518611bcf565b60008060005b600d805490508110156115665783600d82815481106115405761153f6139d4565b5b9060005260206000200154036115595760019250611566565b808060010191505061151e565b50600860008481526020019081526020016000206005015442111561158a57600190505b60011515821515146115d1576040517f08c379a00000000000000000000000000000000000000000000000000000000081526004016115c890613a4f565b60405180910390fd5b6001151581151514611618576040517f08c379a000000000000000000000000000000000000000000000000000000000815260040161160f90613c8c565b60405180910390fd5b60006008600085815260200190815260200160002060040160019054906101000a900473ffffffffffffffffffffffffffffffffffffffff16905061165d8482612254565b611668338583611abb565b611673813386610863565b60016008600086815260200190815260200160002060040160006101000a81548160ff021916908315150217905550336008600086815260200190815260200160002060040160016101000a81548173ffffffffffffffffffffffffffffffffffffffff021916908373ffffffffffffffffffffffffffffffffffffffff1602179055506000600860008681526020019081526020016000206005018190555060016009600086815260200190815260200160002060006101000a81548160ff021916908315150217905550611748846124a9565b837f0c29f50c56a065d12888b21481ad9cf89fbe06c5e961884ed5d26bb5e2ecb31e60405160405180910390a250505050565b6000600560008473ffffffffffffffffffffffffffffffffffffffff1673ffffffffffffffffffffffffffffffffffffffff16815260200190815260200160002060008373ffffffffffffffffffffffffffffffffffffffff1673ffffffffffffffffffffffffffffffffffffffff16815260200190815260200160002060009054906101000a900460ff16905092915050565b611817611bcf565b600073ffffffffffffffffffffffffffffffffffffffff168173ffffffffffffffffffffffffffffffffffffffff16036118895760006040517f1e4fbdf70000000000000000000000000000000000000000000000000000000081526004016118809190612fe6565b60405180910390fd5b61189281611c74565b50565b6060600a60008373ffffffffffffffffffffffffffffffffffffffff1673ffffffffffffffffffffffffffffffffffffffff16815260200190815260200160002080548060200260200160405190810160405280929190818152602001828054801561192057602002820191906000526020600020905b81548152602001906001019080831161190c575b50505050509050919050565b6060600d80548060200260200160405190810160405280929190818152602001828054801561197a57602002820191906000526020600020905b815481526020019060010190808311611966575b5050505050905090565b60007f01ffc9a7000000000000000000000000000000000000000000000000000000007bffffffffffffffffffffffffffffffffffffffffffffffffffffffff1916827bffffffffffffffffffffffffffffffffffffffffffffffffffffffff1916149050919050565b6000806119fa836125b8565b9050600073ffffffffffffffffffffffffffffffffffffffff168173ffffffffffffffffffffffffffffffffffffffff1603611a6d57826040517f7e273289000000000000000000000000000000000000000000000000000000008152600401611a64919061336f565b60405180910390fd5b80915050919050565b60006004600083815260200190815260200160002060009054906101000a900473ffffffffffffffffffffffffffffffffffffffff169050919050565b600033905090565b611ac883838360016125f5565b505050565b600073ffffffffffffffffffffffffffffffffffffffff168273ffffffffffffffffffffffffffffffffffffffff1603611b3f5760006040517f64a0ae92000000000000000000000000000000000000000000000000000000008152600401611b369190612fe6565b60405180910390fd5b6000611b538383611b4e611ab3565b6127ba565b90508373ffffffffffffffffffffffffffffffffffffffff168173ffffffffffffffffffffffffffffffffffffffff1614611bc9578382826040517f64283d7b000000000000000000000000000000000000000000000000000000008152600401611bc093929190613cac565b60405180910390fd5b50505050565b611bd7611ab3565b73ffffffffffffffffffffffffffffffffffffffff16611bf5611060565b73ffffffffffffffffffffffffffffffffffffffff1614611c5457611c18611ab3565b6040517f118cdaa7000000000000000000000000000000000000000000000000000000008152600401611c4b9190612fe6565b60405180910390fd5b565b611c708282604051806020016040528060008152506129d4565b5050565b6000600660009054906101000a900473ffffffffffffffffffffffffffffffffffffffff16905081600660006101000a81548173ffffffffffffffffffffffffffffffffffffffff021916908373ffffffffffffffffffffffffffffffffffffffff1602179055508173ffffffffffffffffffffffffffffffffffffffff168173ffffffffffffffffffffffffffffffffffffffff167f8be0079c531659141344cd1fd0a4f28419497f9722a3daafe3b4186f6b6457e060405160405180910390a35050565b6000806000905060005b600c80549050811015611d8f5783600c8281548110611d6657611d656139d4565b5b906000526020600020015403611d825780925060019150611d8f565b8080600101915050611d44565b506001151581151514611da157600080fd5b600c6001600c80549050611db59190613ce3565b81548110611dc657611dc56139d4565b5b9060005260206000200154600c8381548110611de557611de46139d4565b5b9060005260206000200181905550600c805480611e0557611e04613d17565b5b60019003818190600052602060002001600090559055600d839080600181540180825580915050600190039060005260206000200160009091909190915055505050565b600073ffffffffffffffffffffffffffffffffffffffff168273ffffffffffffffffffffffffffffffffffffffff1603611eba57816040517f5b08ba18000000000000000000000000000000000000000000000000000000008152600401611eb19190612fe6565b60405180910390fd5b80600560008573ffffffffffffffffffffffffffffffffffffffff1673ffffffffffffffffffffffffffffffffffffffff16815260200190815260200160002060008473ffffffffffffffffffffffffffffffffffffffff1673ffffffffffffffffffffffffffffffffffffffff16815260200190815260200160002060006101000a81548160ff0219169083151502179055508173ffffffffffffffffffffffffffffffffffffffff168373ffffffffffffffffffffffffffffffffffffffff167f17307eab39ab6107e8899845ad3d59bd9653f200f220920489ca2b5937696c3183604051611fab9190612e75565b60405180910390a3505050565b60008373ffffffffffffffffffffffffffffffffffffffff163b1115612169578273ffffffffffffffffffffffffffffffffffffffff1663150b7a02611ffc611ab3565b8685856040518563ffffffff1660e01b815260040161201e9493929190613d9b565b6020604051808303816000875af192505050801561205a57506040513d601f19601f820116820180604052508101906120579190613dfc565b60015b6120de573d806000811461208a576040519150601f19603f3d011682016040523d82523d6000602084013e61208f565b606091505b5060008151036120d657836040517f64a0ae920000000000000000000000000000000000000000000000000000000081526004016120cd9190612fe6565b60405180910390fd5b805181602001fd5b63150b7a0260e01b7bffffffffffffffffffffffffffffffffffffffffffffffffffffffff1916817bffffffffffffffffffffffffffffffffffffffffffffffffffffffff19161461216757836040517f64a0ae9200000000000000000000000000000000000000000000000000000000815260040161215e9190612fe6565b60405180910390fd5b505b50505050565b606060405180602001604052806000815250905090565b606060006001612195846129f0565b01905060008167ffffffffffffffff8111156121b4576121b36131aa565b5b6040519080825280601f01601f1916602001820160405280156121e65781602001600182028036833780820191505090505b509050600082602001820190505b600115612249578080600190039150507f3031323334353637383961626364656600000000000000000000000000000000600a86061a8153600a858161223d5761223c613e29565b5b049450600085036121f4575b819350505050919050565b6000806000905060005b600a60008573ffffffffffffffffffffffffffffffffffffffff1673ffffffffffffffffffffffffffffffffffffffff168152602001908152602001600020805490508110156123235784600a60008673ffffffffffffffffffffffffffffffffffffffff1673ffffffffffffffffffffffffffffffffffffffff16815260200190815260200160002082815481106122fa576122f96139d4565b5b9060005260206000200154036123165780925060019150612323565b808060010191505061225e565b50600115158115151461233557600080fd5b600a60008473ffffffffffffffffffffffffffffffffffffffff1673ffffffffffffffffffffffffffffffffffffffff1681526020019081526020016000206001600a60008673ffffffffffffffffffffffffffffffffffffffff1673ffffffffffffffffffffffffffffffffffffffff168152602001908152602001600020805490506123c39190613ce3565b815481106123d4576123d36139d4565b5b9060005260206000200154600a60008573ffffffffffffffffffffffffffffffffffffffff1673ffffffffffffffffffffffffffffffffffffffff16815260200190815260200160002083815481106124305761242f6139d4565b5b9060005260206000200181905550600a60008473ffffffffffffffffffffffffffffffffffffffff1673ffffffffffffffffffffffffffffffffffffffff16815260200190815260200160002080548061248d5761248c613d17565b5b6001900381819060005260206000200160009055905550505050565b6000806000905060005b600d805490508110156124fe5783600d82815481106124d5576124d46139d4565b5b9060005260206000200154036124f157809250600191506124fe565b80806001019150506124b3565b50600115158115151461251057600080fd5b600d6001600d805490506125249190613ce3565b81548110612535576125346139d4565b5b9060005260206000200154600d8381548110612554576125536139d4565b5b9060005260206000200181905550600d80548061257457612573613d17565b5b60019003818190600052602060002001600090559055600c839080600181540180825580915050600190039060005260206000200160009091909190915055505050565b60006002600083815260200190815260200160002060009054906101000a900473ffffffffffffffffffffffffffffffffffffffff169050919050565b808061262e5750600073ffffffffffffffffffffffffffffffffffffffff168273ffffffffffffffffffffffffffffffffffffffff1614155b1561276257600061263e846119ee565b9050600073ffffffffffffffffffffffffffffffffffffffff168373ffffffffffffffffffffffffffffffffffffffff16141580156126a957508273ffffffffffffffffffffffffffffffffffffffff168173ffffffffffffffffffffffffffffffffffffffff1614155b80156126bc57506126ba818461177b565b155b156126fe57826040517fa9fbf51f0000000000000000000000000000000000000000000000000000000081526004016126f59190612fe6565b60405180910390fd5b811561276057838573ffffffffffffffffffffffffffffffffffffffff168273ffffffffffffffffffffffffffffffffffffffff167f8c5be1e5ebec7d5bd14f71427d1e84f3dd0314c0f7b2291e5b200ac8c7c3b92560405160405180910390a45b505b836004600085815260200190815260200160002060006101000a81548173ffffffffffffffffffffffffffffffffffffffff021916908373ffffffffffffffffffffffffffffffffffffffff16021790555050505050565b6000806127c6846125b8565b9050600073ffffffffffffffffffffffffffffffffffffffff168373ffffffffffffffffffffffffffffffffffffffff161461280857612807818486612b43565b5b600073ffffffffffffffffffffffffffffffffffffffff168173ffffffffffffffffffffffffffffffffffffffff16146128995761284a6000856000806125f5565b6001600360008373ffffffffffffffffffffffffffffffffffffffff1673ffffffffffffffffffffffffffffffffffffffff168152602001908152602001600020600082825403925050819055505b600073ffffffffffffffffffffffffffffffffffffffff168573ffffffffffffffffffffffffffffffffffffffff161461291c576001600360008773ffffffffffffffffffffffffffffffffffffffff1673ffffffffffffffffffffffffffffffffffffffff168152602001908152602001600020600082825401925050819055505b846002600086815260200190815260200160002060006101000a81548173ffffffffffffffffffffffffffffffffffffffff021916908373ffffffffffffffffffffffffffffffffffffffff160217905550838573ffffffffffffffffffffffffffffffffffffffff168273ffffffffffffffffffffffffffffffffffffffff167fddf252ad1be2c89b69c2b068fc378daa952ba7f163c4a11628f55a4df523b3ef60405160405180910390a4809150509392505050565b6129de8383612c07565b6129eb6000848484611fb8565b505050565b600080600090507a184f03e93ff9f4daa797ed6e38ed64bf6a1f0100000000000000008310612a4e577a184f03e93ff9f4daa797ed6e38ed64bf6a1f0100000000000000008381612a4457612a43613e29565b5b0492506040810190505b6d04ee2d6d415b85acef81000000008310612a8b576d04ee2d6d415b85acef81000000008381612a8157612a80613e29565b5b0492506020810190505b662386f26fc100008310612aba57662386f26fc100008381612ab057612aaf613e29565b5b0492506010810190505b6305f5e1008310612ae3576305f5e1008381612ad957612ad8613e29565b5b0492506008810190505b6127108310612b08576127108381612afe57612afd613e29565b5b0492506004810190505b60648310612b2b5760648381612b2157612b20613e29565b5b0492506002810190505b600a8310612b3a576001810190505b80915050919050565b612b4e838383612d00565b612c0257600073ffffffffffffffffffffffffffffffffffffffff168373ffffffffffffffffffffffffffffffffffffffff1603612bc357806040517f7e273289000000000000000000000000000000000000000000000000000000008152600401612bba919061336f565b60405180910390fd5b81816040517f177e802f000000000000000000000000000000000000000000000000000000008152600401612bf9929190613e58565b60405180910390fd5b505050565b600073ffffffffffffffffffffffffffffffffffffffff168273ffffffffffffffffffffffffffffffffffffffff1603612c795760006040517f64a0ae92000000000000000000000000000000000000000000000000000000008152600401612c709190612fe6565b60405180910390fd5b6000612c87838360006127ba565b9050600073ffffffffffffffffffffffffffffffffffffffff168173ffffffffffffffffffffffffffffffffffffffff1614612cfb5760006040517f73c6ac6e000000000000000000000000000000000000000000000000000000008152600401612cf29190612fe6565b60405180910390fd5b505050565b60008073ffffffffffffffffffffffffffffffffffffffff168373ffffffffffffffffffffffffffffffffffffffff1614158015612db857508273ffffffffffffffffffffffffffffffffffffffff168473ffffffffffffffffffffffffffffffffffffffff161480612d795750612d78848461177b565b5b80612db757508273ffffffffffffffffffffffffffffffffffffffff16612d9f83611a76565b73ffffffffffffffffffffffffffffffffffffffff16145b5b90509392505050565b6000604051905090565b600080fd5b600080fd5b60007fffffffff0000000000000000000000000000000000000000000000000000000082169050919050565b612e0a81612dd5565b8114612e1557600080fd5b50565b600081359050612e2781612e01565b92915050565b600060208284031215612e4357612e42612dcb565b5b6000612e5184828501612e18565b91505092915050565b60008115159050919050565b612e6f81612e5a565b82525050565b6000602082019050612e8a6000830184612e66565b92915050565b600081519050919050565b600082825260208201905092915050565b60005b83811015612eca578082015181840152602081019050612eaf565b60008484015250505050565b6000601f19601f8301169050919050565b6000612ef282612e90565b612efc8185612e9b565b9350612f0c818560208601612eac565b612f1581612ed6565b840191505092915050565b60006020820190508181036000830152612f3a8184612ee7565b905092915050565b6000819050919050565b612f5581612f42565b8114612f6057600080fd5b50565b600081359050612f7281612f4c565b92915050565b600060208284031215612f8e57612f8d612dcb565b5b6000612f9c84828501612f63565b91505092915050565b600073ffffffffffffffffffffffffffffffffffffffff82169050919050565b6000612fd082612fa5565b9050919050565b612fe081612fc5565b82525050565b6000602082019050612ffb6000830184612fd7565b92915050565b61300a81612fc5565b811461301557600080fd5b50565b60008135905061302781613001565b92915050565b6000806040838503121561304457613043612dcb565b5b600061305285828601613018565b925050602061306385828601612f63565b9150509250929050565b60008060006060848603121561308657613085612dcb565b5b600061309486828701613018565b93505060206130a586828701613018565b92505060406130b686828701612f63565b9150509250925092565b600081519050919050565b600082825260208201905092915050565b6000819050602082019050919050565b6130f581612f42565b82525050565b600061310783836130ec565b60208301905092915050565b6000602082019050919050565b600061312b826130c0565b61313581856130cb565b9350613140836130dc565b8060005b8381101561317157815161315888826130fb565b975061316383613113565b925050600181019050613144565b5085935050505092915050565b600060208201905081810360008301526131988184613120565b905092915050565b600080fd5b600080fd5b7f4e487b7100000000000000000000000000000000000000000000000000000000600052604160045260246000fd5b6131e282612ed6565b810181811067ffffffffffffffff82111715613201576132006131aa565b5b80604052505050565b6000613214612dc1565b905061322082826131d9565b919050565b600067ffffffffffffffff8211156132405761323f6131aa565b5b61324982612ed6565b9050602081019050919050565b82818337600083830152505050565b600061327861327384613225565b61320a565b905082815260208101848484011115613294576132936131a5565b5b61329f848285613256565b509392505050565b600082601f8301126132bc576132bb6131a0565b5b81356132cc848260208601613265565b91505092915050565b6000806000606084860312156132ee576132ed612dcb565b5b60006132fc86828701612f63565b935050602084013567ffffffffffffffff81111561331d5761331c612dd0565b5b613329868287016132a7565b925050604084013567ffffffffffffffff81111561334a57613349612dd0565b5b613356868287016132a7565b9150509250925092565b61336981612f42565b82525050565b60006020820190506133846000830184613360565b92915050565b6000602082840312156133a05761339f612dcb565b5b60006133ae84828501613018565b91505092915050565b6133c081612e5a565b81146133cb57600080fd5b50565b6000813590506133dd816133b7565b92915050565b600080604083850312156133fa576133f9612dcb565b5b600061340885828601613018565b9250506020613419858286016133ce565b9150509250929050565b6000806000806080858703121561343d5761343c612dcb565b5b600061344b87828801612f63565b945050602085013567ffffffffffffffff81111561346c5761346b612dd0565b5b613478878288016132a7565b935050604085013567ffffffffffffffff81111561349957613498612dd0565b5b6134a5878288016132a7565b92505060606134b687828801612f63565b91505092959194509250565b600067ffffffffffffffff8211156134dd576134dc6131aa565b5b6134e682612ed6565b9050602081019050919050565b6000613506613501846134c2565b61320a565b905082815260208101848484011115613522576135216131a5565b5b61352d848285613256565b509392505050565b600082601f83011261354a576135496131a0565b5b813561355a8482602086016134f3565b91505092915050565b6000806000806080858703121561357d5761357c612dcb565b5b600061358b87828801613018565b945050602061359c87828801613018565b93505060406135ad87828801612f63565b925050606085013567ffffffffffffffff8111156135ce576135cd612dd0565b5b6135da87828801613535565b91505092959194509250565b600060e0820190506135fb600083018a613360565b818103602083015261360d8189612ee7565b905081810360408301526136218188612ee7565b90506136306060830187613360565b61363d6080830186612e66565b61364a60a0830185612fd7565b61365760c0830184613360565b98975050505050505050565b6000806040838503121561367a57613679612dcb565b5b600061368885828601613018565b925050602061369985828601613018565b9150509250929050565b7f4e487b7100000000000000000000000000000000000000000000000000000000600052602260045260246000fd5b600060028204905060018216806136ea57607f821691505b6020821081036136fd576136fc6136a3565b5b50919050565b60008190508160005260206000209050919050565b60006020601f8301049050919050565b600082821b905092915050565b6000600883026137657fffffffffffffffffffffffffffffffffffffffffffffffffffffffffffffffff82613728565b61376f8683613728565b95508019841693508086168417925050509392505050565b6000819050919050565b60006137ac6137a76137a284612f42565b613787565b612f42565b9050919050565b6000819050919050565b6137c683613791565b6137da6137d2826137b3565b848454613735565b825550505050565b600090565b6137ef6137e2565b6137fa8184846137bd565b505050565b5b8181101561381e576138136000826137e7565b600181019050613800565b5050565b601f8211156138635761383481613703565b61383d84613718565b8101602085101561384c578190505b61386061385885613718565b8301826137ff565b50505b505050565b600082821c905092915050565b600061388660001984600802613868565b1980831691505092915050565b600061389f8383613875565b9150826002028217905092915050565b6138b882612e90565b67ffffffffffffffff8111156138d1576138d06131aa565b5b6138db82546136d2565b6138e6828285613822565b600060209050601f8311600181146139195760008415613907578287015190505b6139118582613893565b865550613979565b601f19841661392786613703565b60005b8281101561394f5784890151825560018201915060208501945060208101905061392a565b8683101561396c5784890151613968601f891682613875565b8355505b6001600288020188555050505b505050505050565b600081905092915050565b600061399782612e90565b6139a18185613981565b93506139b1818560208601612eac565b80840191505092915050565b60006139c9828461398c565b915081905092915050565b7f4e487b7100000000000000000000000000000000000000000000000000000000600052603260045260246000fd5b7f56656869636c6520646f65736e277420666f756e640000000000000000000000600082015250565b6000613a39601583612e9b565b9150613a4482613a03565b602082019050919050565b60006020820190508181036000830152613a6881613a2c565b9050919050565b7f5468652076656869636c652068617320616c7265616479206265656e2074616b60008201527f656e20627920616e6f7468657220757365720000000000000000000000000000602082015250565b6000613acb603283612e9b565b9150613ad682613a6f565b604082019050919050565b60006020820190508181036000830152613afa81613abe565b9050919050565b7f446f65736e2774206861766520656e6f7567682066756e647320746f2062757960008201527f20746869732076656869636c6500000000000000000000000000000000000000602082015250565b6000613b5d602d83612e9b565b9150613b6882613b01565b604082019050919050565b60006020820190508181036000830152613b8c81613b50565b9050919050565b7f4e487b7100000000000000000000000000000000000000000000000000000000600052601160045260246000fd5b6000613bcd82612f42565b9150613bd883612f42565b9250828201905080821115613bf057613bef613b93565b5b92915050565b6000613c02828561398c565b9150613c0e828461398c565b91508190509392505050565b7f54686520737562736372697074696f6e20686173206e6f74207965742065787060008201527f6972656400000000000000000000000000000000000000000000000000000000602082015250565b6000613c76602483612e9b565b9150613c8182613c1a565b604082019050919050565b60006020820190508181036000830152613ca581613c69565b9050919050565b6000606082019050613cc16000830186612fd7565b613cce6020830185613360565b613cdb6040830184612fd7565b949350505050565b6000613cee82612f42565b9150613cf983612f42565b9250828203905081811115613d1157613d10613b93565b5b92915050565b7f4e487b7100000000000000000000000000000000000000000000000000000000600052603160045260246000fd5b600081519050919050565b600082825260208201905092915050565b6000613d6d82613d46565b613d778185613d51565b9350613d87818560208601612eac565b613d9081612ed6565b840191505092915050565b6000608082019050613db06000830187612fd7565b613dbd6020830186612fd7565b613dca6040830185613360565b8181036060830152613ddc8184613d62565b905095945050505050565b600081519050613df681612e01565b92915050565b600060208284031215613e1257613e11612dcb565b5b6000613e2084828501613de7565b91505092915050565b7f4e487b7100000000000000000000000000000000000000000000000000000000600052601260045260246000fd5b6000604082019050613e6d6000830185612fd7565b613e7a6020830184613360565b939250505056fea26469706673582212202c8a039975bf4d34492d3bce726c1fca7a444da875c3c2a7cd9ac3c222bdf1a464736f6c63430008180033",
  "linkReferences": {},
  "deployedLinkReferences": {}
}