{
  "_format": "hh-sol-artifact-1",
  "contractName": "MooveToken",
  "sourceName": "contracts/MooveToken.sol",
  "abi": [
    {
      "inputs": [
        {
          "internalType": "string",
          "name": "_nameToken",
          "type": "string"
        },
        {
          "internalType": "string",
          "name": "_symbolToken",
          "type": "string"
        }
      ],
      "stateMutability": "nonpayable",
      "type": "constructor"
    },
    {
      "inputs": [
        {
          "internalType": "address",
          "name": "sender",
          "type": "address"
        },
        {
          "internalType": "uint256",
          "name": "tokenId",
          "type": "uint256"
        },
        {
          "internalType": "address",
          "name": "owner",
          "type": "address"
        }
      ],
      "name": "ERC721IncorrectOwner",
      "type": "error"
    },
    {
      "inputs": [
        {
          "internalType": "address",
          "name": "operator",
          "type": "address"
        },
        {
          "internalType": "uint256",
          "name": "tokenId",
          "type": "uint256"
        }
      ],
      "name": "ERC721InsufficientApproval",
      "type": "error"
    },
    {
      "inputs": [
        {
          "internalType": "address",
          "name": "approver",
          "type": "address"
        }
      ],
      "name": "ERC721InvalidApprover",
      "type": "error"
    },
    {
      "inputs": [
        {
          "internalType": "address",
          "name": "operator",
          "type": "address"
        }
      ],
      "name": "ERC721InvalidOperator",
      "type": "error"
    },
    {
      "inputs": [
        {
          "internalType": "address",
          "name": "owner",
          "type": "address"
        }
      ],
      "name": "ERC721InvalidOwner",
      "type": "error"
    },
    {
      "inputs": [
        {
          "internalType": "address",
          "name": "receiver",
          "type": "address"
        }
      ],
      "name": "ERC721InvalidReceiver",
      "type": "error"
    },
    {
      "inputs": [
        {
          "internalType": "address",
          "name": "sender",
          "type": "address"
        }
      ],
      "name": "ERC721InvalidSender",
      "type": "error"
    },
    {
      "inputs": [
        {
          "internalType": "uint256",
          "name": "tokenId",
          "type": "uint256"
        }
      ],
      "name": "ERC721NonexistentToken",
      "type": "error"
    },
    {
      "inputs": [
        {
          "internalType": "address",
          "name": "owner",
          "type": "address"
        }
      ],
      "name": "OwnableInvalidOwner",
      "type": "error"
    },
    {
      "inputs": [
        {
          "internalType": "address",
          "name": "account",
          "type": "address"
        }
      ],
      "name": "OwnableUnauthorizedAccount",
      "type": "error"
    },
    {
      "anonymous": false,
      "inputs": [
        {
          "indexed": true,
          "internalType": "address",
          "name": "owner",
          "type": "address"
        },
        {
          "indexed": true,
          "internalType": "address",
          "name": "approved",
          "type": "address"
        },
        {
          "indexed": true,
          "internalType": "uint256",
          "name": "tokenId",
          "type": "uint256"
        }
      ],
      "name": "Approval",
      "type": "event"
    },
    {
      "anonymous": false,
      "inputs": [
        {
          "indexed": true,
          "internalType": "address",
          "name": "owner",
          "type": "address"
        },
        {
          "indexed": true,
          "internalType": "address",
          "name": "operator",
          "type": "address"
        },
        {
          "indexed": false,
          "internalType": "bool",
          "name": "approved",
          "type": "bool"
        }
      ],
      "name": "ApprovalForAll",
      "type": "event"
    },
    {
      "anonymous": false,
      "inputs": [
        {
          "indexed": true,
          "internalType": "string",
          "name": "name",
          "type": "string"
        },
        {
          "indexed": true,
          "internalType": "string",
          "name": "model",
          "type": "string"
        }
      ],
      "name": "NFTAuctionsVehicles",
      "type": "event"
    },
    {
      "anonymous": false,
      "inputs": [
        {
          "indexed": true,
          "internalType": "uint256",
          "name": "idVehicle",
          "type": "uint256"
        },
        {
          "indexed": true,
          "internalType": "address",
          "name": "owner",
          "type": "address"
        }
      ],
      "name": "NFTVehicleBuyed",
      "type": "event"
    },
    {
      "anonymous": false,
      "inputs": [
        {
          "indexed": true,
          "internalType": "string",
          "name": "name",
          "type": "string"
        },
        {
          "indexed": true,
          "internalType": "string",
          "name": "model",
          "type": "string"
        }
      ],
      "name": "NFTVehicleCreated",
      "type": "event"
    },
    {
      "anonymous": false,
      "inputs": [
        {
          "indexed": false,
          "internalType": "uint256",
          "name": "idVehicle",
          "type": "uint256"
        },
        {
          "indexed": true,
          "internalType": "address",
          "name": "from",
          "type": "address"
        },
        {
          "indexed": true,
          "internalType": "address",
          "name": "to",
          "type": "address"
        }
      ],
      "name": "NFTVehicleTransferred",
      "type": "event"
    },
    {
      "anonymous": false,
      "inputs": [
        {
          "indexed": true,
          "internalType": "address",
          "name": "previousOwner",
          "type": "address"
        },
        {
          "indexed": true,
          "internalType": "address",
          "name": "newOwner",
          "type": "address"
        }
      ],
      "name": "OwnershipTransferred",
      "type": "event"
    },
    {
      "anonymous": false,
      "inputs": [
        {
          "indexed": true,
          "internalType": "address",
          "name": "from",
          "type": "address"
        },
        {
          "indexed": true,
          "internalType": "address",
          "name": "to",
          "type": "address"
        },
        {
          "indexed": true,
          "internalType": "uint256",
          "name": "tokenId",
          "type": "uint256"
        }
      ],
      "name": "Transfer",
      "type": "event"
    },
    {
      "anonymous": false,
      "inputs": [
        {
          "indexed": true,
          "internalType": "uint256",
          "name": "idVehicle",
          "type": "uint256"
        }
      ],
      "name": "VehicleExpired",
      "type": "event"
    },
    {
      "inputs": [
        {
          "internalType": "uint256",
          "name": "_id",
          "type": "uint256"
        },
        {
          "internalType": "string",
          "name": "_name",
          "type": "string"
        },
        {
          "internalType": "string",
          "name": "_model",
          "type": "string"
        },
        {
          "internalType": "uint256",
          "name": "_priceVehicle",
          "type": "uint256"
        }
      ],
      "name": "addVehicle",
      "outputs": [],
      "stateMutability": "nonpayable",
      "type": "function"
    },
    {
      "inputs": [
        {
          "internalType": "uint256",
          "name": "_id",
          "type": "uint256"
        },
        {
          "internalType": "string",
          "name": "_name",
          "type": "string"
        },
        {
          "internalType": "string",
          "name": "_model",
          "type": "string"
        }
      ],
      "name": "addVehicleAuctions",
      "outputs": [],
      "stateMutability": "nonpayable",
      "type": "function"
    },
    {
      "inputs": [
        {
          "internalType": "address",
          "name": "to",
          "type": "address"
        },
        {
          "internalType": "uint256",
          "name": "tokenId",
          "type": "uint256"
        }
      ],
      "name": "approve",
      "outputs": [],
      "stateMutability": "nonpayable",
      "type": "function"
    },
    {
      "inputs": [],
      "name": "arrayAuctionsVehicles",
      "outputs": [
        {
          "internalType": "uint256[]",
          "name": "",
          "type": "uint256[]"
        }
      ],
      "stateMutability": "view",
      "type": "function"
    },
    {
      "inputs": [
        {
          "internalType": "address",
          "name": "_account",
          "type": "address"
        }
      ],
      "name": "arrayPurchasedVehiclesByAddress",
      "outputs": [
        {
          "internalType": "uint256[]",
          "name": "",
          "type": "uint256[]"
        }
      ],
      "stateMutability": "view",
      "type": "function"
    },
    {
      "inputs": [],
      "name": "arrayVehicleIds",
      "outputs": [
        {
          "internalType": "uint256[]",
          "name": "",
          "type": "uint256[]"
        }
      ],
      "stateMutability": "view",
      "type": "function"
    },
    {
      "inputs": [],
      "name": "arrayVehiclesPurchased",
      "outputs": [
        {
          "internalType": "uint256[]",
          "name": "",
          "type": "uint256[]"
        }
      ],
      "stateMutability": "view",
      "type": "function"
    },
    {
      "inputs": [
        {
          "internalType": "uint256",
          "name": "",
          "type": "uint256"
        }
      ],
      "name": "availableVehicle",
      "outputs": [
        {
          "internalType": "bool",
          "name": "",
          "type": "bool"
        }
      ],
      "stateMutability": "view",
      "type": "function"
    },
    {
      "inputs": [
        {
          "internalType": "address",
          "name": "owner",
          "type": "address"
        }
      ],
      "name": "balanceOf",
      "outputs": [
        {
          "internalType": "uint256",
          "name": "",
          "type": "uint256"
        }
      ],
      "stateMutability": "view",
      "type": "function"
    },
    {
      "inputs": [
        {
          "internalType": "uint256",
          "name": "_idVehicle",
          "type": "uint256"
        }
      ],
      "name": "buyNFTVehicle",
      "outputs": [],
      "stateMutability": "payable",
      "type": "function"
    },
    {
      "inputs": [
        {
          "internalType": "uint256",
          "name": "",
          "type": "uint256"
        }
      ],
      "name": "detailsVehicle",
      "outputs": [
        {
          "internalType": "uint256",
          "name": "id",
          "type": "uint256"
        },
        {
          "internalType": "string",
          "name": "name",
          "type": "string"
        },
        {
          "internalType": "string",
          "name": "model",
          "type": "string"
        },
        {
          "internalType": "uint256",
          "name": "priceVehicle",
          "type": "uint256"
        },
        {
          "internalType": "bool",
          "name": "available",
          "type": "bool"
        },
        {
          "internalType": "address",
          "name": "owner",
          "type": "address"
        },
        {
          "internalType": "uint256",
          "name": "willEndAt",
          "type": "uint256"
        }
      ],
      "stateMutability": "view",
      "type": "function"
    },
    {
      "inputs": [
        {
          "internalType": "uint256",
          "name": "_idVehicle",
          "type": "uint256"
        }
      ],
      "name": "expiryCheck",
      "outputs": [],
      "stateMutability": "nonpayable",
      "type": "function"
    },
    {
      "inputs": [
        {
          "internalType": "uint256",
          "name": "tokenId",
          "type": "uint256"
        }
      ],
      "name": "getApproved",
      "outputs": [
        {
          "internalType": "address",
          "name": "",
          "type": "address"
        }
      ],
      "stateMutability": "view",
      "type": "function"
    },
    {
      "inputs": [],
      "name": "getCurrentTimestamp",
      "outputs": [
        {
          "internalType": "uint256",
          "name": "",
          "type": "uint256"
        }
      ],
      "stateMutability": "view",
      "type": "function"
    },
    {
      "inputs": [
        {
          "internalType": "address",
          "name": "owner",
          "type": "address"
        },
        {
          "internalType": "address",
          "name": "operator",
          "type": "address"
        }
      ],
      "name": "isApprovedForAll",
      "outputs": [
        {
          "internalType": "bool",
          "name": "",
          "type": "bool"
        }
      ],
      "stateMutability": "view",
      "type": "function"
    },
    {
      "inputs": [],
      "name": "name",
      "outputs": [
        {
          "internalType": "string",
          "name": "",
          "type": "string"
        }
      ],
      "stateMutability": "view",
      "type": "function"
    },
    {
      "inputs": [],
      "name": "owner",
      "outputs": [
        {
          "internalType": "address",
          "name": "",
          "type": "address"
        }
      ],
      "stateMutability": "view",
      "type": "function"
    },
    {
      "inputs": [
        {
          "internalType": "uint256",
          "name": "tokenId",
          "type": "uint256"
        }
      ],
      "name": "ownerOf",
      "outputs": [
        {
          "internalType": "address",
          "name": "",
          "type": "address"
        }
      ],
      "stateMutability": "view",
      "type": "function"
    },
    {
      "inputs": [],
      "name": "renounceOwnership",
      "outputs": [],
      "stateMutability": "nonpayable",
      "type": "function"
    },
    {
      "inputs": [
        {
          "internalType": "address",
          "name": "from",
          "type": "address"
        },
        {
          "internalType": "address",
          "name": "to",
          "type": "address"
        },
        {
          "internalType": "uint256",
          "name": "tokenId",
          "type": "uint256"
        }
      ],
      "name": "safeTransferFrom",
      "outputs": [],
      "stateMutability": "nonpayable",
      "type": "function"
    },
    {
      "inputs": [
        {
          "internalType": "address",
          "name": "from",
          "type": "address"
        },
        {
          "internalType": "address",
          "name": "to",
          "type": "address"
        },
        {
          "internalType": "uint256",
          "name": "tokenId",
          "type": "uint256"
        },
        {
          "internalType": "bytes",
          "name": "data",
          "type": "bytes"
        }
      ],
      "name": "safeTransferFrom",
      "outputs": [],
      "stateMutability": "nonpayable",
      "type": "function"
    },
    {
      "inputs": [
        {
          "internalType": "address",
          "name": "operator",
          "type": "address"
        },
        {
          "internalType": "bool",
          "name": "approved",
          "type": "bool"
        }
      ],
      "name": "setApprovalForAll",
      "outputs": [],
      "stateMutability": "nonpayable",
      "type": "function"
    },
    {
      "inputs": [
        {
          "internalType": "bytes4",
          "name": "interfaceId",
          "type": "bytes4"
        }
      ],
      "name": "supportsInterface",
      "outputs": [
        {
          "internalType": "bool",
          "name": "",
          "type": "bool"
        }
      ],
      "stateMutability": "view",
      "type": "function"
    },
    {
      "inputs": [],
      "name": "symbol",
      "outputs": [
        {
          "internalType": "string",
          "name": "",
          "type": "string"
        }
      ],
      "stateMutability": "view",
      "type": "function"
    },
    {
      "inputs": [
        {
          "internalType": "uint256",
          "name": "tokenId",
          "type": "uint256"
        }
      ],
      "name": "tokenURI",
      "outputs": [
        {
          "internalType": "string",
          "name": "",
          "type": "string"
        }
      ],
      "stateMutability": "view",
      "type": "function"
    },
    {
      "inputs": [
        {
          "internalType": "address",
          "name": "_from",
          "type": "address"
        },
        {
          "internalType": "address",
          "name": "_to",
          "type": "address"
        },
        {
          "internalType": "uint256",
          "name": "_tokenId",
          "type": "uint256"
        }
      ],
      "name": "transferFrom",
      "outputs": [],
      "stateMutability": "nonpayable",
      "type": "function"
    },
    {
      "inputs": [
        {
          "internalType": "address",
          "name": "newOwner",
          "type": "address"
        }
      ],
      "name": "transferOwnership",
      "outputs": [],
      "stateMutability": "nonpayable",
      "type": "function"
    }
  ],
  "bytecode": "0x60806040523480156200001157600080fd5b506040516200466b3803806200466b833981810160405281019062000037919062000389565b33828281600090816200004b919062000659565b5080600190816200005d919062000659565b505050600073ffffffffffffffffffffffffffffffffffffffff168173ffffffffffffffffffffffffffffffffffffffff1603620000d55760006040517f1e4fbdf7000000000000000000000000000000000000000000000000000000008152600401620000cc919062000785565b60405180910390fd5b620000e6816200013060201b60201c565b5033600760006101000a81548173ffffffffffffffffffffffffffffffffffffffff021916908373ffffffffffffffffffffffffffffffffffffffff1602179055505050620007a2565b6000600660009054906101000a900473ffffffffffffffffffffffffffffffffffffffff16905081600660006101000a81548173ffffffffffffffffffffffffffffffffffffffff021916908373ffffffffffffffffffffffffffffffffffffffff1602179055508173ffffffffffffffffffffffffffffffffffffffff168173ffffffffffffffffffffffffffffffffffffffff167f8be0079c531659141344cd1fd0a4f28419497f9722a3daafe3b4186f6b6457e060405160405180910390a35050565b6000604051905090565b600080fd5b600080fd5b600080fd5b600080fd5b6000601f19601f8301169050919050565b7f4e487b7100000000000000000000000000000000000000000000000000000000600052604160045260246000fd5b6200025f8262000214565b810181811067ffffffffffffffff8211171562000281576200028062000225565b5b80604052505050565b600062000296620001f6565b9050620002a4828262000254565b919050565b600067ffffffffffffffff821115620002c757620002c662000225565b5b620002d28262000214565b9050602081019050919050565b60005b83811015620002ff578082015181840152602081019050620002e2565b60008484015250505050565b6000620003226200031c84620002a9565b6200028a565b9050828152602081018484840111156200034157620003406200020f565b5b6200034e848285620002df565b509392505050565b600082601f8301126200036e576200036d6200020a565b5b8151620003808482602086016200030b565b91505092915050565b60008060408385031215620003a357620003a262000200565b5b600083015167ffffffffffffffff811115620003c457620003c362000205565b5b620003d28582860162000356565b925050602083015167ffffffffffffffff811115620003f657620003f562000205565b5b620004048582860162000356565b9150509250929050565b600081519050919050565b7f4e487b7100000000000000000000000000000000000000000000000000000000600052602260045260246000fd5b600060028204905060018216806200046157607f821691505b60208210810362000477576200047662000419565b5b50919050565b60008190508160005260206000209050919050565b60006020601f8301049050919050565b600082821b905092915050565b600060088302620004e17fffffffffffffffffffffffffffffffffffffffffffffffffffffffffffffffff82620004a2565b620004ed8683620004a2565b95508019841693508086168417925050509392505050565b6000819050919050565b6000819050919050565b60006200053a620005346200052e8462000505565b6200050f565b62000505565b9050919050565b6000819050919050565b620005568362000519565b6200056e620005658262000541565b848454620004af565b825550505050565b600090565b6200058562000576565b620005928184846200054b565b505050565b5b81811015620005ba57620005ae6000826200057b565b60018101905062000598565b5050565b601f8211156200060957620005d3816200047d565b620005de8462000492565b81016020851015620005ee578190505b62000606620005fd8562000492565b83018262000597565b50505b505050565b600082821c905092915050565b60006200062e600019846008026200060e565b1980831691505092915050565b60006200064983836200061b565b9150826002028217905092915050565b62000664826200040e565b67ffffffffffffffff81111562000680576200067f62000225565b5b6200068c825462000448565b62000699828285620005be565b600060209050601f831160018114620006d15760008415620006bc578287015190505b620006c885826200063b565b86555062000738565b601f198416620006e1866200047d565b60005b828110156200070b57848901518255600182019150602085019450602081019050620006e4565b868310156200072b578489015162000727601f8916826200061b565b8355505b6001600288020188555050505b505050505050565b600073ffffffffffffffffffffffffffffffffffffffff82169050919050565b60006200076d8262000740565b9050919050565b6200077f8162000760565b82525050565b60006020820190506200079c600083018462000774565b92915050565b613eb980620007b26000396000f3fe60806040526004361061019c5760003560e01c806379046a54116100ec578063babbb5e11161008a578063e985e9c511610064578063e985e9c5146105cf578063f2fde38b1461060c578063f701ba7b14610635578063fe65af1b146106725761019c565b8063babbb5e114610526578063c87b56dd14610569578063dca54e47146105a65761019c565b806395d89b41116100c657806395d89b4114610480578063a22cb465146104ab578063b642c775146104d4578063b88d4fde146104fd5761019c565b806379046a541461040e5780637b306a6b146104395780638da5cb5b146104555761019c565b8063263787d7116101595780636352211e116101335780636352211e146103525780636c9230db1461038f57806370a08231146103ba578063715018a6146103f75761019c565b8063263787d7146102d557806339a897c11461030057806342842e0e146103295761019c565b806301ffc9a7146101a157806306fdde03146101de578063081812fc14610209578063095ea7b31461024657806319610fae1461026f57806323b872dd146102ac575b600080fd5b3480156101ad57600080fd5b506101c860048036038101906101c39190612e2f565b61069d565b6040516101d59190612e77565b60405180910390f35b3480156101ea57600080fd5b506101f361077f565b6040516102009190612f22565b60405180910390f35b34801561021557600080fd5b50610230600480360381019061022b9190612f7a565b610811565b60405161023d9190612fe8565b60405180910390f35b34801561025257600080fd5b5061026d6004803603810190610268919061302f565b61082d565b005b34801561027b57600080fd5b5061029660048036038101906102919190612f7a565b610843565b6040516102a39190612e77565b60405180910390f35b3480156102b857600080fd5b506102d360048036038101906102ce919061306f565b610863565b005b3480156102e157600080fd5b506102ea61092d565b6040516102f79190613180565b60405180910390f35b34801561030c57600080fd5b50610327600480360381019061032291906132d7565b610985565b005b34801561033557600080fd5b50610350600480360381019061034b919061306f565b610b5e565b005b34801561035e57600080fd5b5061037960048036038101906103749190612f7a565b610b7e565b6040516103869190612fe8565b60405180910390f35b34801561039b57600080fd5b506103a4610b90565b6040516103b19190613371565b60405180910390f35b3480156103c657600080fd5b506103e160048036038101906103dc919061338c565b610b98565b6040516103ee9190613371565b60405180910390f35b34801561040357600080fd5b5061040c610c52565b005b34801561041a57600080fd5b50610423610c66565b6040516104309190613180565b60405180910390f35b610453600480360381019061044e9190612f7a565b610cbe565b005b34801561046157600080fd5b5061046a611062565b6040516104779190612fe8565b60405180910390f35b34801561048c57600080fd5b5061049561108c565b6040516104a29190612f22565b60405180910390f35b3480156104b757600080fd5b506104d260048036038101906104cd91906133e5565b61111e565b005b3480156104e057600080fd5b506104fb60048036038101906104f69190613425565b611134565b005b34801561050957600080fd5b50610524600480360381019061051f9190613565565b61130d565b005b34801561053257600080fd5b5061054d60048036038101906105489190612f7a565b61132a565b60405161056097969594939291906135e8565b60405180910390f35b34801561057557600080fd5b50610590600480360381019061058b9190612f7a565b6114a9565b60405161059d9190612f22565b60405180910390f35b3480156105b257600080fd5b506105cd60048036038101906105c89190612f7a565b611512565b005b3480156105db57600080fd5b506105f660048036038101906105f19190613665565b61177d565b6040516106039190612e77565b60405180910390f35b34801561061857600080fd5b50610633600480360381019061062e919061338c565b611811565b005b34801561064157600080fd5b5061065c6004803603810190610657919061338c565b611897565b6040516106699190613180565b60405180910390f35b34801561067e57600080fd5b5061068761192e565b6040516106949190613180565b60405180910390f35b60007f80ac58cd000000000000000000000000000000000000000000000000000000007bffffffffffffffffffffffffffffffffffffffffffffffffffffffff1916827bffffffffffffffffffffffffffffffffffffffffffffffffffffffff1916148061076857507f5b5e139f000000000000000000000000000000000000000000000000000000007bffffffffffffffffffffffffffffffffffffffffffffffffffffffff1916827bffffffffffffffffffffffffffffffffffffffffffffffffffffffff1916145b80610778575061077782611986565b5b9050919050565b60606000805461078e906136d4565b80601f01602080910402602001604051908101604052809291908181526020018280546107ba906136d4565b80156108075780601f106107dc57610100808354040283529160200191610807565b820191906000526020600020905b8154815290600101906020018083116107ea57829003601f168201915b5050505050905090565b600061081c826119f0565b5061082682611a78565b9050919050565b61083f828261083a611ab5565b611abd565b5050565b60096020528060005260406000206000915054906101000a900460ff1681565b61086e838383611acf565b816008600083815260200190815260200160002060040160016101000a81548173ffffffffffffffffffffffffffffffffffffffff021916908373ffffffffffffffffffffffffffffffffffffffff1602179055508173ffffffffffffffffffffffffffffffffffffffff168373ffffffffffffffffffffffffffffffffffffffff167fcd8b38cefcfe1ddd69acc0c4a3b72838681981b18de8d5f5ad85aada541b1ee0836040516109209190613371565b60405180910390a3505050565b6060600c80548060200260200160405190810160405280929190818152602001828054801561097b57602002820191906000526020600020905b815481526020019060010190808311610967575b5050505050905090565b61098d611bd1565b6040518060e00160405280848152602001838152602001828152602001600081526020016001151581526020013373ffffffffffffffffffffffffffffffffffffffff168152602001600081525060086000858152602001908152602001600020600082015181600001556020820151816001019081610a0d91906138b1565b506040820151816002019081610a2391906138b1565b506060820151816003015560808201518160040160006101000a81548160ff02191690831515021790555060a08201518160040160016101000a81548173ffffffffffffffffffffffffffffffffffffffff021916908373ffffffffffffffffffffffffffffffffffffffff16021790555060c0820151816005015590505060016009600085815260200190815260200160002060006101000a81548160ff021916908315150217905550600e839080600181540180825580915050600190039060005260206000200160009091909190915055610b013384611c58565b80604051610b0f91906139bf565b604051809103902082604051610b2591906139bf565b60405180910390207f3b2424469d2a0fa3ed7b7ced5fe8369bf96eeb17f49cca9f28e25e383a4f187260405160405180910390a3505050565b610b798383836040518060200160405280600081525061130d565b505050565b6000610b89826119f0565b9050919050565b600042905090565b60008073ffffffffffffffffffffffffffffffffffffffff168273ffffffffffffffffffffffffffffffffffffffff1603610c0b5760006040517f89c62b64000000000000000000000000000000000000000000000000000000008152600401610c029190612fe8565b60405180910390fd5b600360008373ffffffffffffffffffffffffffffffffffffffff1673ffffffffffffffffffffffffffffffffffffffff168152602001908152602001600020549050919050565b610c5a611bd1565b610c646000611c76565b565b6060600e805480602002602001604051908101604052809291908181526020018280548015610cb457602002820191906000526020600020905b815481526020019060010190808311610ca0575b5050505050905090565b60008080600090505b600c80549050811015610d125783600c8281548110610ce957610ce86139d6565b5b906000526020600020015403610d055760019250809150610d12565b8080600101915050610cc7565b5060006008600085815260200190815260200160002060030154905060006008600086815260200190815260200160002060040160019054906101000a900473ffffffffffffffffffffffffffffffffffffffff1690506001151584151514610db0576040517f08c379a0000000000000000000000000000000000000000000000000000000008152600401610da790613a51565b60405180910390fd5b600760009054906101000a900473ffffffffffffffffffffffffffffffffffffffff1673ffffffffffffffffffffffffffffffffffffffff166008600087815260200190815260200160002060040160019054906101000a900473ffffffffffffffffffffffffffffffffffffffff1673ffffffffffffffffffffffffffffffffffffffff1614610e76576040517f08c379a0000000000000000000000000000000000000000000000000000000008152600401610e6d90613ae3565b60405180910390fd5b81341015610eb9576040517f08c379a0000000000000000000000000000000000000000000000000000000008152600401610eb090613b75565b60405180910390fd5b610ec4338683611abd565b610ecf813387610863565b60006008600087815260200190815260200160002060040160006101000a81548160ff021916908315150217905550336008600087815260200190815260200160002060040160016101000a81548173ffffffffffffffffffffffffffffffffffffffff021916908373ffffffffffffffffffffffffffffffffffffffff1602179055506201518042610f629190613bc4565b600860008781526020019081526020016000206005018190555060006009600087815260200190815260200160002060006101000a81548160ff021916908315150217905550600a60003373ffffffffffffffffffffffffffffffffffffffff1673ffffffffffffffffffffffffffffffffffffffff16815260200190815260200160002085908060018154018082558091505060019003906000526020600020016000909190919091505561101785611d3c565b3373ffffffffffffffffffffffffffffffffffffffff16857f112e4af3852d711647537c1b0427246ba66a8a586c3f5bea0cc09fd81b8bb23060405160405180910390a35050505050565b6000600660009054906101000a900473ffffffffffffffffffffffffffffffffffffffff16905090565b60606001805461109b906136d4565b80601f01602080910402602001604051908101604052809291908181526020018280546110c7906136d4565b80156111145780601f106110e957610100808354040283529160200191611114565b820191906000526020600020905b8154815290600101906020018083116110f757829003601f168201915b5050505050905090565b611130611129611ab5565b8383611e4b565b5050565b61113c611bd1565b6040518060e001604052808581526020018481526020018381526020018281526020016001151581526020013373ffffffffffffffffffffffffffffffffffffffff1681526020016000815250600860008681526020019081526020016000206000820151816000015560208201518160010190816111bb91906138b1565b5060408201518160020190816111d191906138b1565b506060820151816003015560808201518160040160006101000a81548160ff02191690831515021790555060a08201518160040160016101000a81548173ffffffffffffffffffffffffffffffffffffffff021916908373ffffffffffffffffffffffffffffffffffffffff16021790555060c0820151816005015590505060016009600086815260200190815260200160002060006101000a81548160ff021916908315150217905550600c8490806001815401808255809150506001900390600052602060002001600090919091909150556112af3385611c58565b816040516112bd91906139bf565b6040518091039020836040516112d391906139bf565b60405180910390207f927de78391648190e6dff178494499568a6f07d6a22bda10eb10a944b73f450e60405160405180910390a350505050565b611318848484610863565b61132484848484611fba565b50505050565b6008602052806000526040600020600091509050806000015490806001018054611353906136d4565b80601f016020809104026020016040519081016040528092919081815260200182805461137f906136d4565b80156113cc5780601f106113a1576101008083540402835291602001916113cc565b820191906000526020600020905b8154815290600101906020018083116113af57829003601f168201915b5050505050908060020180546113e1906136d4565b80601f016020809104026020016040519081016040528092919081815260200182805461140d906136d4565b801561145a5780601f1061142f5761010080835404028352916020019161145a565b820191906000526020600020905b81548152906001019060200180831161143d57829003601f168201915b5050505050908060030154908060040160009054906101000a900460ff16908060040160019054906101000a900473ffffffffffffffffffffffffffffffffffffffff16908060050154905087565b60606114b4826119f0565b5060006114bf612171565b905060008151116114df576040518060200160405280600081525061150a565b806114e984612188565b6040516020016114fa929190613bf8565b6040516020818303038152906040525b915050919050565b61151a611bd1565b60008060005b600d805490508110156115685783600d8281548110611542576115416139d6565b5b90600052602060002001540361155b5760019250611568565b8080600101915050611520565b50600860008481526020019081526020016000206005015442111561158c57600190505b60011515821515146115d3576040517f08c379a00000000000000000000000000000000000000000000000000000000081526004016115ca90613a51565b60405180910390fd5b600115158115151461161a576040517f08c379a000000000000000000000000000000000000000000000000000000000815260040161161190613c8e565b60405180910390fd5b60006008600085815260200190815260200160002060040160019054906101000a900473ffffffffffffffffffffffffffffffffffffffff16905061165f8482612256565b61166a338583611abd565b611675813386610863565b60016008600086815260200190815260200160002060040160006101000a81548160ff021916908315150217905550336008600086815260200190815260200160002060040160016101000a81548173ffffffffffffffffffffffffffffffffffffffff021916908373ffffffffffffffffffffffffffffffffffffffff1602179055506000600860008681526020019081526020016000206005018190555060016009600086815260200190815260200160002060006101000a81548160ff02191690831515021790555061174a846124ab565b837f0c29f50c56a065d12888b21481ad9cf89fbe06c5e961884ed5d26bb5e2ecb31e60405160405180910390a250505050565b6000600560008473ffffffffffffffffffffffffffffffffffffffff1673ffffffffffffffffffffffffffffffffffffffff16815260200190815260200160002060008373ffffffffffffffffffffffffffffffffffffffff1673ffffffffffffffffffffffffffffffffffffffff16815260200190815260200160002060009054906101000a900460ff16905092915050565b611819611bd1565b600073ffffffffffffffffffffffffffffffffffffffff168173ffffffffffffffffffffffffffffffffffffffff160361188b5760006040517f1e4fbdf70000000000000000000000000000000000000000000000000000000081526004016118829190612fe8565b60405180910390fd5b61189481611c76565b50565b6060600a60008373ffffffffffffffffffffffffffffffffffffffff1673ffffffffffffffffffffffffffffffffffffffff16815260200190815260200160002080548060200260200160405190810160405280929190818152602001828054801561192257602002820191906000526020600020905b81548152602001906001019080831161190e575b50505050509050919050565b6060600d80548060200260200160405190810160405280929190818152602001828054801561197c57602002820191906000526020600020905b815481526020019060010190808311611968575b5050505050905090565b60007f01ffc9a7000000000000000000000000000000000000000000000000000000007bffffffffffffffffffffffffffffffffffffffffffffffffffffffff1916827bffffffffffffffffffffffffffffffffffffffffffffffffffffffff1916149050919050565b6000806119fc836125ba565b9050600073ffffffffffffffffffffffffffffffffffffffff168173ffffffffffffffffffffffffffffffffffffffff1603611a6f57826040517f7e273289000000000000000000000000000000000000000000000000000000008152600401611a669190613371565b60405180910390fd5b80915050919050565b60006004600083815260200190815260200160002060009054906101000a900473ffffffffffffffffffffffffffffffffffffffff169050919050565b600033905090565b611aca83838360016125f7565b505050565b600073ffffffffffffffffffffffffffffffffffffffff168273ffffffffffffffffffffffffffffffffffffffff1603611b415760006040517f64a0ae92000000000000000000000000000000000000000000000000000000008152600401611b389190612fe8565b60405180910390fd5b6000611b558383611b50611ab5565b6127bc565b90508373ffffffffffffffffffffffffffffffffffffffff168173ffffffffffffffffffffffffffffffffffffffff1614611bcb578382826040517f64283d7b000000000000000000000000000000000000000000000000000000008152600401611bc293929190613cae565b60405180910390fd5b50505050565b611bd9611ab5565b73ffffffffffffffffffffffffffffffffffffffff16611bf7611062565b73ffffffffffffffffffffffffffffffffffffffff1614611c5657611c1a611ab5565b6040517f118cdaa7000000000000000000000000000000000000000000000000000000008152600401611c4d9190612fe8565b60405180910390fd5b565b611c728282604051806020016040528060008152506129d6565b5050565b6000600660009054906101000a900473ffffffffffffffffffffffffffffffffffffffff16905081600660006101000a81548173ffffffffffffffffffffffffffffffffffffffff021916908373ffffffffffffffffffffffffffffffffffffffff1602179055508173ffffffffffffffffffffffffffffffffffffffff168173ffffffffffffffffffffffffffffffffffffffff167f8be0079c531659141344cd1fd0a4f28419497f9722a3daafe3b4186f6b6457e060405160405180910390a35050565b6000806000905060005b600c80549050811015611d915783600c8281548110611d6857611d676139d6565b5b906000526020600020015403611d845780925060019150611d91565b8080600101915050611d46565b506001151581151514611da357600080fd5b600c6001600c80549050611db79190613ce5565b81548110611dc857611dc76139d6565b5b9060005260206000200154600c8381548110611de757611de66139d6565b5b9060005260206000200181905550600c805480611e0757611e06613d19565b5b60019003818190600052602060002001600090559055600d839080600181540180825580915050600190039060005260206000200160009091909190915055505050565b600073ffffffffffffffffffffffffffffffffffffffff168273ffffffffffffffffffffffffffffffffffffffff1603611ebc57816040517f5b08ba18000000000000000000000000000000000000000000000000000000008152600401611eb39190612fe8565b60405180910390fd5b80600560008573ffffffffffffffffffffffffffffffffffffffff1673ffffffffffffffffffffffffffffffffffffffff16815260200190815260200160002060008473ffffffffffffffffffffffffffffffffffffffff1673ffffffffffffffffffffffffffffffffffffffff16815260200190815260200160002060006101000a81548160ff0219169083151502179055508173ffffffffffffffffffffffffffffffffffffffff168373ffffffffffffffffffffffffffffffffffffffff167f17307eab39ab6107e8899845ad3d59bd9653f200f220920489ca2b5937696c3183604051611fad9190612e77565b60405180910390a3505050565b60008373ffffffffffffffffffffffffffffffffffffffff163b111561216b578273ffffffffffffffffffffffffffffffffffffffff1663150b7a02611ffe611ab5565b8685856040518563ffffffff1660e01b81526004016120209493929190613d9d565b6020604051808303816000875af192505050801561205c57506040513d601f19601f820116820180604052508101906120599190613dfe565b60015b6120e0573d806000811461208c576040519150601f19603f3d011682016040523d82523d6000602084013e612091565b606091505b5060008151036120d857836040517f64a0ae920000000000000000000000000000000000000000000000000000000081526004016120cf9190612fe8565b60405180910390fd5b805181602001fd5b63150b7a0260e01b7bffffffffffffffffffffffffffffffffffffffffffffffffffffffff1916817bffffffffffffffffffffffffffffffffffffffffffffffffffffffff19161461216957836040517f64a0ae920000000000000000000000000000000000000000000000000000000081526004016121609190612fe8565b60405180910390fd5b505b50505050565b606060405180602001604052806000815250905090565b606060006001612197846129f2565b01905060008167ffffffffffffffff8111156121b6576121b56131ac565b5b6040519080825280601f01601f1916602001820160405280156121e85781602001600182028036833780820191505090505b509050600082602001820190505b60011561224b578080600190039150507f3031323334353637383961626364656600000000000000000000000000000000600a86061a8153600a858161223f5761223e613e2b565b5b049450600085036121f6575b819350505050919050565b6000806000905060005b600a60008573ffffffffffffffffffffffffffffffffffffffff1673ffffffffffffffffffffffffffffffffffffffff168152602001908152602001600020805490508110156123255784600a60008673ffffffffffffffffffffffffffffffffffffffff1673ffffffffffffffffffffffffffffffffffffffff16815260200190815260200160002082815481106122fc576122fb6139d6565b5b9060005260206000200154036123185780925060019150612325565b8080600101915050612260565b50600115158115151461233757600080fd5b600a60008473ffffffffffffffffffffffffffffffffffffffff1673ffffffffffffffffffffffffffffffffffffffff1681526020019081526020016000206001600a60008673ffffffffffffffffffffffffffffffffffffffff1673ffffffffffffffffffffffffffffffffffffffff168152602001908152602001600020805490506123c59190613ce5565b815481106123d6576123d56139d6565b5b9060005260206000200154600a60008573ffffffffffffffffffffffffffffffffffffffff1673ffffffffffffffffffffffffffffffffffffffff1681526020019081526020016000208381548110612432576124316139d6565b5b9060005260206000200181905550600a60008473ffffffffffffffffffffffffffffffffffffffff1673ffffffffffffffffffffffffffffffffffffffff16815260200190815260200160002080548061248f5761248e613d19565b5b6001900381819060005260206000200160009055905550505050565b6000806000905060005b600d805490508110156125005783600d82815481106124d7576124d66139d6565b5b9060005260206000200154036124f35780925060019150612500565b80806001019150506124b5565b50600115158115151461251257600080fd5b600d6001600d805490506125269190613ce5565b81548110612537576125366139d6565b5b9060005260206000200154600d8381548110612556576125556139d6565b5b9060005260206000200181905550600d80548061257657612575613d19565b5b60019003818190600052602060002001600090559055600c839080600181540180825580915050600190039060005260206000200160009091909190915055505050565b60006002600083815260200190815260200160002060009054906101000a900473ffffffffffffffffffffffffffffffffffffffff169050919050565b80806126305750600073ffffffffffffffffffffffffffffffffffffffff168273ffffffffffffffffffffffffffffffffffffffff1614155b15612764576000612640846119f0565b9050600073ffffffffffffffffffffffffffffffffffffffff168373ffffffffffffffffffffffffffffffffffffffff16141580156126ab57508273ffffffffffffffffffffffffffffffffffffffff168173ffffffffffffffffffffffffffffffffffffffff1614155b80156126be57506126bc818461177d565b155b1561270057826040517fa9fbf51f0000000000000000000000000000000000000000000000000000000081526004016126f79190612fe8565b60405180910390fd5b811561276257838573ffffffffffffffffffffffffffffffffffffffff168273ffffffffffffffffffffffffffffffffffffffff167f8c5be1e5ebec7d5bd14f71427d1e84f3dd0314c0f7b2291e5b200ac8c7c3b92560405160405180910390a45b505b836004600085815260200190815260200160002060006101000a81548173ffffffffffffffffffffffffffffffffffffffff021916908373ffffffffffffffffffffffffffffffffffffffff16021790555050505050565b6000806127c8846125ba565b9050600073ffffffffffffffffffffffffffffffffffffffff168373ffffffffffffffffffffffffffffffffffffffff161461280a57612809818486612b45565b5b600073ffffffffffffffffffffffffffffffffffffffff168173ffffffffffffffffffffffffffffffffffffffff161461289b5761284c6000856000806125f7565b6001600360008373ffffffffffffffffffffffffffffffffffffffff1673ffffffffffffffffffffffffffffffffffffffff168152602001908152602001600020600082825403925050819055505b600073ffffffffffffffffffffffffffffffffffffffff168573ffffffffffffffffffffffffffffffffffffffff161461291e576001600360008773ffffffffffffffffffffffffffffffffffffffff1673ffffffffffffffffffffffffffffffffffffffff168152602001908152602001600020600082825401925050819055505b846002600086815260200190815260200160002060006101000a81548173ffffffffffffffffffffffffffffffffffffffff021916908373ffffffffffffffffffffffffffffffffffffffff160217905550838573ffffffffffffffffffffffffffffffffffffffff168273ffffffffffffffffffffffffffffffffffffffff167fddf252ad1be2c89b69c2b068fc378daa952ba7f163c4a11628f55a4df523b3ef60405160405180910390a4809150509392505050565b6129e08383612c09565b6129ed6000848484611fba565b505050565b600080600090507a184f03e93ff9f4daa797ed6e38ed64bf6a1f0100000000000000008310612a50577a184f03e93ff9f4daa797ed6e38ed64bf6a1f0100000000000000008381612a4657612a45613e2b565b5b0492506040810190505b6d04ee2d6d415b85acef81000000008310612a8d576d04ee2d6d415b85acef81000000008381612a8357612a82613e2b565b5b0492506020810190505b662386f26fc100008310612abc57662386f26fc100008381612ab257612ab1613e2b565b5b0492506010810190505b6305f5e1008310612ae5576305f5e1008381612adb57612ada613e2b565b5b0492506008810190505b6127108310612b0a576127108381612b0057612aff613e2b565b5b0492506004810190505b60648310612b2d5760648381612b2357612b22613e2b565b5b0492506002810190505b600a8310612b3c576001810190505b80915050919050565b612b50838383612d02565b612c0457600073ffffffffffffffffffffffffffffffffffffffff168373ffffffffffffffffffffffffffffffffffffffff1603612bc557806040517f7e273289000000000000000000000000000000000000000000000000000000008152600401612bbc9190613371565b60405180910390fd5b81816040517f177e802f000000000000000000000000000000000000000000000000000000008152600401612bfb929190613e5a565b60405180910390fd5b505050565b600073ffffffffffffffffffffffffffffffffffffffff168273ffffffffffffffffffffffffffffffffffffffff1603612c7b5760006040517f64a0ae92000000000000000000000000000000000000000000000000000000008152600401612c729190612fe8565b60405180910390fd5b6000612c89838360006127bc565b9050600073ffffffffffffffffffffffffffffffffffffffff168173ffffffffffffffffffffffffffffffffffffffff1614612cfd5760006040517f73c6ac6e000000000000000000000000000000000000000000000000000000008152600401612cf49190612fe8565b60405180910390fd5b505050565b60008073ffffffffffffffffffffffffffffffffffffffff168373ffffffffffffffffffffffffffffffffffffffff1614158015612dba57508273ffffffffffffffffffffffffffffffffffffffff168473ffffffffffffffffffffffffffffffffffffffff161480612d7b5750612d7a848461177d565b5b80612db957508273ffffffffffffffffffffffffffffffffffffffff16612da183611a78565b73ffffffffffffffffffffffffffffffffffffffff16145b5b90509392505050565b6000604051905090565b600080fd5b600080fd5b60007fffffffff0000000000000000000000000000000000000000000000000000000082169050919050565b612e0c81612dd7565b8114612e1757600080fd5b50565b600081359050612e2981612e03565b92915050565b600060208284031215612e4557612e44612dcd565b5b6000612e5384828501612e1a565b91505092915050565b60008115159050919050565b612e7181612e5c565b82525050565b6000602082019050612e8c6000830184612e68565b92915050565b600081519050919050565b600082825260208201905092915050565b60005b83811015612ecc578082015181840152602081019050612eb1565b60008484015250505050565b6000601f19601f8301169050919050565b6000612ef482612e92565b612efe8185612e9d565b9350612f0e818560208601612eae565b612f1781612ed8565b840191505092915050565b60006020820190508181036000830152612f3c8184612ee9565b905092915050565b6000819050919050565b612f5781612f44565b8114612f6257600080fd5b50565b600081359050612f7481612f4e565b92915050565b600060208284031215612f9057612f8f612dcd565b5b6000612f9e84828501612f65565b91505092915050565b600073ffffffffffffffffffffffffffffffffffffffff82169050919050565b6000612fd282612fa7565b9050919050565b612fe281612fc7565b82525050565b6000602082019050612ffd6000830184612fd9565b92915050565b61300c81612fc7565b811461301757600080fd5b50565b60008135905061302981613003565b92915050565b6000806040838503121561304657613045612dcd565b5b60006130548582860161301a565b925050602061306585828601612f65565b9150509250929050565b60008060006060848603121561308857613087612dcd565b5b60006130968682870161301a565b93505060206130a78682870161301a565b92505060406130b886828701612f65565b9150509250925092565b600081519050919050565b600082825260208201905092915050565b6000819050602082019050919050565b6130f781612f44565b82525050565b600061310983836130ee565b60208301905092915050565b6000602082019050919050565b600061312d826130c2565b61313781856130cd565b9350613142836130de565b8060005b8381101561317357815161315a88826130fd565b975061316583613115565b925050600181019050613146565b5085935050505092915050565b6000602082019050818103600083015261319a8184613122565b905092915050565b600080fd5b600080fd5b7f4e487b7100000000000000000000000000000000000000000000000000000000600052604160045260246000fd5b6131e482612ed8565b810181811067ffffffffffffffff82111715613203576132026131ac565b5b80604052505050565b6000613216612dc3565b905061322282826131db565b919050565b600067ffffffffffffffff821115613242576132416131ac565b5b61324b82612ed8565b9050602081019050919050565b82818337600083830152505050565b600061327a61327584613227565b61320c565b905082815260208101848484011115613296576132956131a7565b5b6132a1848285613258565b509392505050565b600082601f8301126132be576132bd6131a2565b5b81356132ce848260208601613267565b91505092915050565b6000806000606084860312156132f0576132ef612dcd565b5b60006132fe86828701612f65565b935050602084013567ffffffffffffffff81111561331f5761331e612dd2565b5b61332b868287016132a9565b925050604084013567ffffffffffffffff81111561334c5761334b612dd2565b5b613358868287016132a9565b9150509250925092565b61336b81612f44565b82525050565b60006020820190506133866000830184613362565b92915050565b6000602082840312156133a2576133a1612dcd565b5b60006133b08482850161301a565b91505092915050565b6133c281612e5c565b81146133cd57600080fd5b50565b6000813590506133df816133b9565b92915050565b600080604083850312156133fc576133fb612dcd565b5b600061340a8582860161301a565b925050602061341b858286016133d0565b9150509250929050565b6000806000806080858703121561343f5761343e612dcd565b5b600061344d87828801612f65565b945050602085013567ffffffffffffffff81111561346e5761346d612dd2565b5b61347a878288016132a9565b935050604085013567ffffffffffffffff81111561349b5761349a612dd2565b5b6134a7878288016132a9565b92505060606134b887828801612f65565b91505092959194509250565b600067ffffffffffffffff8211156134df576134de6131ac565b5b6134e882612ed8565b9050602081019050919050565b6000613508613503846134c4565b61320c565b905082815260208101848484011115613524576135236131a7565b5b61352f848285613258565b509392505050565b600082601f83011261354c5761354b6131a2565b5b813561355c8482602086016134f5565b91505092915050565b6000806000806080858703121561357f5761357e612dcd565b5b600061358d8782880161301a565b945050602061359e8782880161301a565b93505060406135af87828801612f65565b925050606085013567ffffffffffffffff8111156135d0576135cf612dd2565b5b6135dc87828801613537565b91505092959194509250565b600060e0820190506135fd600083018a613362565b818103602083015261360f8189612ee9565b905081810360408301526136238188612ee9565b90506136326060830187613362565b61363f6080830186612e68565b61364c60a0830185612fd9565b61365960c0830184613362565b98975050505050505050565b6000806040838503121561367c5761367b612dcd565b5b600061368a8582860161301a565b925050602061369b8582860161301a565b9150509250929050565b7f4e487b7100000000000000000000000000000000000000000000000000000000600052602260045260246000fd5b600060028204905060018216806136ec57607f821691505b6020821081036136ff576136fe6136a5565b5b50919050565b60008190508160005260206000209050919050565b60006020601f8301049050919050565b600082821b905092915050565b6000600883026137677fffffffffffffffffffffffffffffffffffffffffffffffffffffffffffffffff8261372a565b613771868361372a565b95508019841693508086168417925050509392505050565b6000819050919050565b60006137ae6137a96137a484612f44565b613789565b612f44565b9050919050565b6000819050919050565b6137c883613793565b6137dc6137d4826137b5565b848454613737565b825550505050565b600090565b6137f16137e4565b6137fc8184846137bf565b505050565b5b81811015613820576138156000826137e9565b600181019050613802565b5050565b601f8211156138655761383681613705565b61383f8461371a565b8101602085101561384e578190505b61386261385a8561371a565b830182613801565b50505b505050565b600082821c905092915050565b60006138886000198460080261386a565b1980831691505092915050565b60006138a18383613877565b9150826002028217905092915050565b6138ba82612e92565b67ffffffffffffffff8111156138d3576138d26131ac565b5b6138dd82546136d4565b6138e8828285613824565b600060209050601f83116001811461391b5760008415613909578287015190505b6139138582613895565b86555061397b565b601f19841661392986613705565b60005b828110156139515784890151825560018201915060208501945060208101905061392c565b8683101561396e578489015161396a601f891682613877565b8355505b6001600288020188555050505b505050505050565b600081905092915050565b600061399982612e92565b6139a38185613983565b93506139b3818560208601612eae565b80840191505092915050565b60006139cb828461398e565b915081905092915050565b7f4e487b7100000000000000000000000000000000000000000000000000000000600052603260045260246000fd5b7f56656869636c6520646f65736e277420666f756e640000000000000000000000600082015250565b6000613a3b601583612e9d565b9150613a4682613a05565b602082019050919050565b60006020820190508181036000830152613a6a81613a2e565b9050919050565b7f5468652076656869636c652068617320616c7265616479206265656e2074616b60008201527f656e20627920616e6f7468657220757365720000000000000000000000000000602082015250565b6000613acd603283612e9d565b9150613ad882613a71565b604082019050919050565b60006020820190508181036000830152613afc81613ac0565b9050919050565b7f446f65736e2774206861766520656e6f7567682066756e647320746f2062757960008201527f20746869732076656869636c6500000000000000000000000000000000000000602082015250565b6000613b5f602d83612e9d565b9150613b6a82613b03565b604082019050919050565b60006020820190508181036000830152613b8e81613b52565b9050919050565b7f4e487b7100000000000000000000000000000000000000000000000000000000600052601160045260246000fd5b6000613bcf82612f44565b9150613bda83612f44565b9250828201905080821115613bf257613bf1613b95565b5b92915050565b6000613c04828561398e565b9150613c10828461398e565b91508190509392505050565b7f54686520737562736372697074696f6e20686173206e6f74207965742065787060008201527f6972656400000000000000000000000000000000000000000000000000000000602082015250565b6000613c78602483612e9d565b9150613c8382613c1c565b604082019050919050565b60006020820190508181036000830152613ca781613c6b565b9050919050565b6000606082019050613cc36000830186612fd9565b613cd06020830185613362565b613cdd6040830184612fd9565b949350505050565b6000613cf082612f44565b9150613cfb83612f44565b9250828203905081811115613d1357613d12613b95565b5b92915050565b7f4e487b7100000000000000000000000000000000000000000000000000000000600052603160045260246000fd5b600081519050919050565b600082825260208201905092915050565b6000613d6f82613d48565b613d798185613d53565b9350613d89818560208601612eae565b613d9281612ed8565b840191505092915050565b6000608082019050613db26000830187612fd9565b613dbf6020830186612fd9565b613dcc6040830185613362565b8181036060830152613dde8184613d64565b905095945050505050565b600081519050613df881612e03565b92915050565b600060208284031215613e1457613e13612dcd565b5b6000613e2284828501613de9565b91505092915050565b7f4e487b7100000000000000000000000000000000000000000000000000000000600052601260045260246000fd5b6000604082019050613e6f6000830185612fd9565b613e7c6020830184613362565b939250505056fea264697066735822122024b10bbd8c88630319b6862fce4a7b218ae7e32c2d65e9f0925887792c2dd63964736f6c63430008180033",
  "linkReferences": {},
  "deployedLinkReferences": {}
}