{
  "_format": "hh-sol-artifact-1",
  "contractName": "MooveToken",
  "sourceName": "contracts/MooveToken.sol",
  "abi": [
    {
      "inputs": [
        {
          "internalType": "string",
          "name": "_nameToken",
          "type": "string"
        },
        {
          "internalType": "string",
          "name": "_symbolToken",
          "type": "string"
        }
      ],
      "stateMutability": "nonpayable",
      "type": "constructor"
    },
    {
      "inputs": [
        {
          "internalType": "address",
          "name": "sender",
          "type": "address"
        },
        {
          "internalType": "uint256",
          "name": "tokenId",
          "type": "uint256"
        },
        {
          "internalType": "address",
          "name": "owner",
          "type": "address"
        }
      ],
      "name": "ERC721IncorrectOwner",
      "type": "error"
    },
    {
      "inputs": [
        {
          "internalType": "address",
          "name": "operator",
          "type": "address"
        },
        {
          "internalType": "uint256",
          "name": "tokenId",
          "type": "uint256"
        }
      ],
      "name": "ERC721InsufficientApproval",
      "type": "error"
    },
    {
      "inputs": [
        {
          "internalType": "address",
          "name": "approver",
          "type": "address"
        }
      ],
      "name": "ERC721InvalidApprover",
      "type": "error"
    },
    {
      "inputs": [
        {
          "internalType": "address",
          "name": "operator",
          "type": "address"
        }
      ],
      "name": "ERC721InvalidOperator",
      "type": "error"
    },
    {
      "inputs": [
        {
          "internalType": "address",
          "name": "owner",
          "type": "address"
        }
      ],
      "name": "ERC721InvalidOwner",
      "type": "error"
    },
    {
      "inputs": [
        {
          "internalType": "address",
          "name": "receiver",
          "type": "address"
        }
      ],
      "name": "ERC721InvalidReceiver",
      "type": "error"
    },
    {
      "inputs": [
        {
          "internalType": "address",
          "name": "sender",
          "type": "address"
        }
      ],
      "name": "ERC721InvalidSender",
      "type": "error"
    },
    {
      "inputs": [
        {
          "internalType": "uint256",
          "name": "tokenId",
          "type": "uint256"
        }
      ],
      "name": "ERC721NonexistentToken",
      "type": "error"
    },
    {
      "inputs": [
        {
          "internalType": "address",
          "name": "owner",
          "type": "address"
        }
      ],
      "name": "OwnableInvalidOwner",
      "type": "error"
    },
    {
      "inputs": [
        {
          "internalType": "address",
          "name": "account",
          "type": "address"
        }
      ],
      "name": "OwnableUnauthorizedAccount",
      "type": "error"
    },
    {
      "anonymous": false,
      "inputs": [
        {
          "indexed": true,
          "internalType": "address",
          "name": "owner",
          "type": "address"
        },
        {
          "indexed": true,
          "internalType": "address",
          "name": "approved",
          "type": "address"
        },
        {
          "indexed": true,
          "internalType": "uint256",
          "name": "tokenId",
          "type": "uint256"
        }
      ],
      "name": "Approval",
      "type": "event"
    },
    {
      "anonymous": false,
      "inputs": [
        {
          "indexed": true,
          "internalType": "address",
          "name": "owner",
          "type": "address"
        },
        {
          "indexed": true,
          "internalType": "address",
          "name": "operator",
          "type": "address"
        },
        {
          "indexed": false,
          "internalType": "bool",
          "name": "approved",
          "type": "bool"
        }
      ],
      "name": "ApprovalForAll",
      "type": "event"
    },
    {
      "anonymous": false,
      "inputs": [
        {
          "indexed": true,
          "internalType": "string",
          "name": "name",
          "type": "string"
        },
        {
          "indexed": true,
          "internalType": "string",
          "name": "model",
          "type": "string"
        }
      ],
      "name": "NFTAuctionsVehicles",
      "type": "event"
    },
    {
      "anonymous": false,
      "inputs": [
        {
          "indexed": true,
          "internalType": "uint256",
          "name": "idVehicle",
          "type": "uint256"
        },
        {
          "indexed": true,
          "internalType": "address",
          "name": "owner",
          "type": "address"
        }
      ],
      "name": "NFTVehicleBuyed",
      "type": "event"
    },
    {
      "anonymous": false,
      "inputs": [
        {
          "indexed": true,
          "internalType": "string",
          "name": "name",
          "type": "string"
        },
        {
          "indexed": true,
          "internalType": "string",
          "name": "model",
          "type": "string"
        }
      ],
      "name": "NFTVehicleCreated",
      "type": "event"
    },
    {
      "anonymous": false,
      "inputs": [
        {
          "indexed": false,
          "internalType": "uint256",
          "name": "idVehicle",
          "type": "uint256"
        },
        {
          "indexed": true,
          "internalType": "address",
          "name": "from",
          "type": "address"
        },
        {
          "indexed": true,
          "internalType": "address",
          "name": "to",
          "type": "address"
        }
      ],
      "name": "NFTVehicleTransferred",
      "type": "event"
    },
    {
      "anonymous": false,
      "inputs": [
        {
          "indexed": true,
          "internalType": "address",
          "name": "previousOwner",
          "type": "address"
        },
        {
          "indexed": true,
          "internalType": "address",
          "name": "newOwner",
          "type": "address"
        }
      ],
      "name": "OwnershipTransferred",
      "type": "event"
    },
    {
      "anonymous": false,
      "inputs": [
        {
          "indexed": true,
          "internalType": "address",
          "name": "from",
          "type": "address"
        },
        {
          "indexed": true,
          "internalType": "address",
          "name": "to",
          "type": "address"
        },
        {
          "indexed": true,
          "internalType": "uint256",
          "name": "tokenId",
          "type": "uint256"
        }
      ],
      "name": "Transfer",
      "type": "event"
    },
    {
      "anonymous": false,
      "inputs": [
        {
          "indexed": true,
          "internalType": "uint256",
          "name": "idVehicle",
          "type": "uint256"
        }
      ],
      "name": "VehicleExpired",
      "type": "event"
    },
    {
      "inputs": [
        {
          "internalType": "string",
          "name": "_name",
          "type": "string"
        },
        {
          "internalType": "string",
          "name": "_model",
          "type": "string"
        },
        {
          "internalType": "uint256",
          "name": "_priceVehicle",
          "type": "uint256"
        }
      ],
      "name": "addVehicle",
      "outputs": [],
      "stateMutability": "nonpayable",
      "type": "function"
    },
    {
      "inputs": [
        {
          "internalType": "string",
          "name": "_name",
          "type": "string"
        },
        {
          "internalType": "string",
          "name": "_model",
          "type": "string"
        }
      ],
      "name": "addVehicleAuctions",
      "outputs": [],
      "stateMutability": "nonpayable",
      "type": "function"
    },
    {
      "inputs": [
        {
          "internalType": "address",
          "name": "to",
          "type": "address"
        },
        {
          "internalType": "uint256",
          "name": "tokenId",
          "type": "uint256"
        }
      ],
      "name": "approve",
      "outputs": [],
      "stateMutability": "nonpayable",
      "type": "function"
    },
    {
      "inputs": [],
      "name": "availableAuctionVehicleIds",
      "outputs": [
        {
          "internalType": "uint256[]",
          "name": "",
          "type": "uint256[]"
        }
      ],
      "stateMutability": "view",
      "type": "function"
    },
    {
      "inputs": [
        {
          "internalType": "uint256",
          "name": "",
          "type": "uint256"
        }
      ],
      "name": "availableVehicle",
      "outputs": [
        {
          "internalType": "bool",
          "name": "",
          "type": "bool"
        }
      ],
      "stateMutability": "view",
      "type": "function"
    },
    {
      "inputs": [],
      "name": "availableVehicleIds",
      "outputs": [
        {
          "internalType": "uint256[]",
          "name": "",
          "type": "uint256[]"
        }
      ],
      "stateMutability": "view",
      "type": "function"
    },
    {
      "inputs": [
        {
          "internalType": "address",
          "name": "owner",
          "type": "address"
        }
      ],
      "name": "balanceOf",
      "outputs": [
        {
          "internalType": "uint256",
          "name": "",
          "type": "uint256"
        }
      ],
      "stateMutability": "view",
      "type": "function"
    },
    {
      "inputs": [
        {
          "internalType": "uint256",
          "name": "_idVehicle",
          "type": "uint256"
        }
      ],
      "name": "buyNFTVehicle",
      "outputs": [],
      "stateMutability": "payable",
      "type": "function"
    },
    {
      "inputs": [
        {
          "internalType": "uint256",
          "name": "",
          "type": "uint256"
        }
      ],
      "name": "detailsVehicle",
      "outputs": [
        {
          "internalType": "uint256",
          "name": "id",
          "type": "uint256"
        },
        {
          "internalType": "string",
          "name": "name",
          "type": "string"
        },
        {
          "internalType": "string",
          "name": "model",
          "type": "string"
        },
        {
          "internalType": "uint256",
          "name": "priceVehicle",
          "type": "uint256"
        },
        {
          "internalType": "uint256",
          "name": "willEndAt",
          "type": "uint256"
        }
      ],
      "stateMutability": "view",
      "type": "function"
    },
    {
      "inputs": [
        {
          "internalType": "uint256",
          "name": "_idVehicle",
          "type": "uint256"
        }
      ],
      "name": "expiryCheck",
      "outputs": [],
      "stateMutability": "nonpayable",
      "type": "function"
    },
    {
      "inputs": [
        {
          "internalType": "uint256",
          "name": "tokenId",
          "type": "uint256"
        }
      ],
      "name": "getApproved",
      "outputs": [
        {
          "internalType": "address",
          "name": "",
          "type": "address"
        }
      ],
      "stateMutability": "view",
      "type": "function"
    },
    {
      "inputs": [],
      "name": "getCurrentTimestamp",
      "outputs": [
        {
          "internalType": "uint256",
          "name": "",
          "type": "uint256"
        }
      ],
      "stateMutability": "view",
      "type": "function"
    },
    {
      "inputs": [
        {
          "internalType": "address",
          "name": "owner",
          "type": "address"
        },
        {
          "internalType": "address",
          "name": "operator",
          "type": "address"
        }
      ],
      "name": "isApprovedForAll",
      "outputs": [
        {
          "internalType": "bool",
          "name": "",
          "type": "bool"
        }
      ],
      "stateMutability": "view",
      "type": "function"
    },
    {
      "inputs": [
        {
          "internalType": "uint256",
          "name": "",
          "type": "uint256"
        }
      ],
      "name": "isAuctionVehicle",
      "outputs": [
        {
          "internalType": "bool",
          "name": "",
          "type": "bool"
        }
      ],
      "stateMutability": "view",
      "type": "function"
    },
    {
      "inputs": [],
      "name": "name",
      "outputs": [
        {
          "internalType": "string",
          "name": "",
          "type": "string"
        }
      ],
      "stateMutability": "view",
      "type": "function"
    },
    {
      "inputs": [],
      "name": "owner",
      "outputs": [
        {
          "internalType": "address",
          "name": "",
          "type": "address"
        }
      ],
      "stateMutability": "view",
      "type": "function"
    },
    {
      "inputs": [
        {
          "internalType": "uint256",
          "name": "tokenId",
          "type": "uint256"
        }
      ],
      "name": "ownerOf",
      "outputs": [
        {
          "internalType": "address",
          "name": "",
          "type": "address"
        }
      ],
      "stateMutability": "view",
      "type": "function"
    },
    {
      "inputs": [],
      "name": "purchasedAuctionVehicleIds",
      "outputs": [
        {
          "internalType": "uint256[]",
          "name": "",
          "type": "uint256[]"
        }
      ],
      "stateMutability": "view",
      "type": "function"
    },
    {
      "inputs": [
        {
          "internalType": "address",
          "name": "",
          "type": "address"
        },
        {
          "internalType": "uint256",
          "name": "",
          "type": "uint256"
        }
      ],
      "name": "purchasedAuctionVehiclesByAccount",
      "outputs": [
        {
          "internalType": "uint256",
          "name": "",
          "type": "uint256"
        }
      ],
      "stateMutability": "view",
      "type": "function"
    },
    {
      "inputs": [],
      "name": "purchasedVehicleIds",
      "outputs": [
        {
          "internalType": "uint256[]",
          "name": "",
          "type": "uint256[]"
        }
      ],
      "stateMutability": "view",
      "type": "function"
    },
    {
      "inputs": [
        {
          "internalType": "address",
          "name": "",
          "type": "address"
        },
        {
          "internalType": "uint256",
          "name": "",
          "type": "uint256"
        }
      ],
      "name": "purchasedVehiclesByAccount",
      "outputs": [
        {
          "internalType": "uint256",
          "name": "",
          "type": "uint256"
        }
      ],
      "stateMutability": "view",
      "type": "function"
    },
    {
      "inputs": [
        {
          "internalType": "address",
          "name": "_account",
          "type": "address"
        }
      ],
      "name": "purchasedVehiclesByAddress",
      "outputs": [
        {
          "internalType": "uint256[]",
          "name": "",
          "type": "uint256[]"
        }
      ],
      "stateMutability": "view",
      "type": "function"
    },
    {
      "inputs": [],
      "name": "renounceOwnership",
      "outputs": [],
      "stateMutability": "nonpayable",
      "type": "function"
    },
    {
      "inputs": [
        {
          "internalType": "address",
          "name": "from",
          "type": "address"
        },
        {
          "internalType": "address",
          "name": "to",
          "type": "address"
        },
        {
          "internalType": "uint256",
          "name": "tokenId",
          "type": "uint256"
        }
      ],
      "name": "safeTransferFrom",
      "outputs": [],
      "stateMutability": "nonpayable",
      "type": "function"
    },
    {
      "inputs": [
        {
          "internalType": "address",
          "name": "from",
          "type": "address"
        },
        {
          "internalType": "address",
          "name": "to",
          "type": "address"
        },
        {
          "internalType": "uint256",
          "name": "tokenId",
          "type": "uint256"
        },
        {
          "internalType": "bytes",
          "name": "data",
          "type": "bytes"
        }
      ],
      "name": "safeTransferFrom",
      "outputs": [],
      "stateMutability": "nonpayable",
      "type": "function"
    },
    {
      "inputs": [
        {
          "internalType": "address",
          "name": "operator",
          "type": "address"
        },
        {
          "internalType": "bool",
          "name": "approved",
          "type": "bool"
        }
      ],
      "name": "setApprovalForAll",
      "outputs": [],
      "stateMutability": "nonpayable",
      "type": "function"
    },
    {
      "inputs": [
        {
          "internalType": "bytes4",
          "name": "interfaceId",
          "type": "bytes4"
        }
      ],
      "name": "supportsInterface",
      "outputs": [
        {
          "internalType": "bool",
          "name": "",
          "type": "bool"
        }
      ],
      "stateMutability": "view",
      "type": "function"
    },
    {
      "inputs": [],
      "name": "symbol",
      "outputs": [
        {
          "internalType": "string",
          "name": "",
          "type": "string"
        }
      ],
      "stateMutability": "view",
      "type": "function"
    },
    {
      "inputs": [
        {
          "internalType": "uint256",
          "name": "tokenId",
          "type": "uint256"
        }
      ],
      "name": "tokenURI",
      "outputs": [
        {
          "internalType": "string",
          "name": "",
          "type": "string"
        }
      ],
      "stateMutability": "view",
      "type": "function"
    },
    {
      "inputs": [
        {
          "internalType": "address",
          "name": "_from",
          "type": "address"
        },
        {
          "internalType": "address",
          "name": "_to",
          "type": "address"
        },
        {
          "internalType": "uint256",
          "name": "_tokenId",
          "type": "uint256"
        }
      ],
      "name": "transferFrom",
      "outputs": [],
      "stateMutability": "nonpayable",
      "type": "function"
    },
    {
      "inputs": [
        {
          "internalType": "address",
          "name": "newOwner",
          "type": "address"
        }
      ],
      "name": "transferOwnership",
      "outputs": [],
      "stateMutability": "nonpayable",
      "type": "function"
    }
  ],
  "bytecode": "0x60806040523480156200001157600080fd5b506040516200494a3803806200494a833981810160405281019062000037919062000391565b33828281600090816200004b919062000661565b5080600190816200005d919062000661565b505050600073ffffffffffffffffffffffffffffffffffffffff168173ffffffffffffffffffffffffffffffffffffffff1603620000d55760006040517f1e4fbdf7000000000000000000000000000000000000000000000000000000008152600401620000cc91906200078d565b60405180910390fd5b620000e6816200013860201b60201c565b5033600760006101000a81548173ffffffffffffffffffffffffffffffffffffffff021916908373ffffffffffffffffffffffffffffffffffffffff16021790555060006008819055505050620007aa565b6000600660009054906101000a900473ffffffffffffffffffffffffffffffffffffffff16905081600660006101000a81548173ffffffffffffffffffffffffffffffffffffffff021916908373ffffffffffffffffffffffffffffffffffffffff1602179055508173ffffffffffffffffffffffffffffffffffffffff168173ffffffffffffffffffffffffffffffffffffffff167f8be0079c531659141344cd1fd0a4f28419497f9722a3daafe3b4186f6b6457e060405160405180910390a35050565b6000604051905090565b600080fd5b600080fd5b600080fd5b600080fd5b6000601f19601f8301169050919050565b7f4e487b7100000000000000000000000000000000000000000000000000000000600052604160045260246000fd5b62000267826200021c565b810181811067ffffffffffffffff821117156200028957620002886200022d565b5b80604052505050565b60006200029e620001fe565b9050620002ac82826200025c565b919050565b600067ffffffffffffffff821115620002cf57620002ce6200022d565b5b620002da826200021c565b9050602081019050919050565b60005b8381101562000307578082015181840152602081019050620002ea565b60008484015250505050565b60006200032a6200032484620002b1565b62000292565b90508281526020810184848401111562000349576200034862000217565b5b62000356848285620002e7565b509392505050565b600082601f83011262000376576200037562000212565b5b81516200038884826020860162000313565b91505092915050565b60008060408385031215620003ab57620003aa62000208565b5b600083015167ffffffffffffffff811115620003cc57620003cb6200020d565b5b620003da858286016200035e565b925050602083015167ffffffffffffffff811115620003fe57620003fd6200020d565b5b6200040c858286016200035e565b9150509250929050565b600081519050919050565b7f4e487b7100000000000000000000000000000000000000000000000000000000600052602260045260246000fd5b600060028204905060018216806200046957607f821691505b6020821081036200047f576200047e62000421565b5b50919050565b60008190508160005260206000209050919050565b60006020601f8301049050919050565b600082821b905092915050565b600060088302620004e97fffffffffffffffffffffffffffffffffffffffffffffffffffffffffffffffff82620004aa565b620004f58683620004aa565b95508019841693508086168417925050509392505050565b6000819050919050565b6000819050919050565b6000620005426200053c62000536846200050d565b62000517565b6200050d565b9050919050565b6000819050919050565b6200055e8362000521565b620005766200056d8262000549565b848454620004b7565b825550505050565b600090565b6200058d6200057e565b6200059a81848462000553565b505050565b5b81811015620005c257620005b660008262000583565b600181019050620005a0565b5050565b601f8211156200061157620005db8162000485565b620005e6846200049a565b81016020851015620005f6578190505b6200060e62000605856200049a565b8301826200059f565b50505b505050565b600082821c905092915050565b6000620006366000198460080262000616565b1980831691505092915050565b600062000651838362000623565b9150826002028217905092915050565b6200066c8262000416565b67ffffffffffffffff8111156200068857620006876200022d565b5b62000694825462000450565b620006a1828285620005c6565b600060209050601f831160018114620006d95760008415620006c4578287015190505b620006d0858262000643565b86555062000740565b601f198416620006e98662000485565b60005b828110156200071357848901518255600182019150602085019450602081019050620006ec565b868310156200073357848901516200072f601f89168262000623565b8355505b6001600288020188555050505b505050505050565b600073ffffffffffffffffffffffffffffffffffffffff82169050919050565b6000620007758262000748565b9050919050565b620007878162000768565b82525050565b6000602082019050620007a460008301846200077c565b92915050565b61419080620007ba6000396000f3fe6080604052600436106101d85760003560e01c80638da5cb5b11610102578063d63c061011610095578063e985e9c511610064578063e985e9c5146106eb578063ee67642a14610728578063f08f4b7614610753578063f2fde38b14610790576101d8565b8063d63c061014610631578063d7d96bc21461065c578063dca54e4714610685578063e2a71cda146106ae576101d8565b8063b88d4fde116100d1578063b88d4fde1461055f578063babbb5e114610588578063c87b56dd146105c9578063cc5a012014610606576101d8565b80638da5cb5b146104a357806395d89b41146104ce578063a22cb465146104f9578063b0d8328614610522576101d8565b806342842e0e1161017a5780636c9230db116101495780636c9230db1461040857806370a0823114610433578063715018a6146104705780637b306a6b14610487576101d8565b806342842e0e1461033a578063517639d314610363578063613e36e21461038e5780636352211e146103cb576101d8565b8063081812fc116101b6578063081812fc1461026e578063095ea7b3146102ab57806319610fae146102d457806323b872dd14610311576101d8565b806301ffc9a7146101dd5780630651ada71461021a57806306fdde0314610243575b600080fd5b3480156101e957600080fd5b5061020460048036038101906101ff9190613164565b6107b9565b60405161021191906131ac565b60405180910390f35b34801561022657600080fd5b50610241600480360381019061023c9190613343565b61089b565b005b34801561024f57600080fd5b50610258610a07565b604051610265919061344d565b60405180910390f35b34801561027a57600080fd5b506102956004803603810190610290919061346f565b610a99565b6040516102a291906134dd565b60405180910390f35b3480156102b757600080fd5b506102d260048036038101906102cd9190613524565b610ab5565b005b3480156102e057600080fd5b506102fb60048036038101906102f6919061346f565b610acb565b60405161030891906131ac565b60405180910390f35b34801561031d57600080fd5b5061033860048036038101906103339190613564565b610aeb565b005b34801561034657600080fd5b50610361600480360381019061035c9190613564565b610b60565b005b34801561036f57600080fd5b50610378610b80565b6040516103859190613675565b60405180910390f35b34801561039a57600080fd5b506103b560048036038101906103b09190613524565b610d88565b6040516103c291906136a6565b60405180910390f35b3480156103d757600080fd5b506103f260048036038101906103ed919061346f565b610db9565b6040516103ff91906134dd565b60405180910390f35b34801561041457600080fd5b5061041d610dcb565b60405161042a91906136a6565b60405180910390f35b34801561043f57600080fd5b5061045a600480360381019061045591906136c1565b610dd3565b60405161046791906136a6565b60405180910390f35b34801561047c57600080fd5b50610485610e8d565b005b6104a1600480360381019061049c919061346f565b610ea1565b005b3480156104af57600080fd5b506104b8611105565b6040516104c591906134dd565b60405180910390f35b3480156104da57600080fd5b506104e361112f565b6040516104f0919061344d565b60405180910390f35b34801561050557600080fd5b50610520600480360381019061051b919061371a565b6111c1565b005b34801561052e57600080fd5b506105496004803603810190610544919061346f565b6111d7565b60405161055691906131ac565b60405180910390f35b34801561056b57600080fd5b50610586600480360381019061058191906137fb565b6111f7565b005b34801561059457600080fd5b506105af60048036038101906105aa919061346f565b611214565b6040516105c095949392919061387e565b60405180910390f35b3480156105d557600080fd5b506105f060048036038101906105eb919061346f565b61135a565b6040516105fd919061344d565b60405180910390f35b34801561061257600080fd5b5061061b6113c3565b6040516106289190613675565b60405180910390f35b34801561063d57600080fd5b506106466115d9565b6040516106539190613675565b60405180910390f35b34801561066857600080fd5b50610683600480360381019061067e91906138df565b6117fd565b005b34801561069157600080fd5b506106ac60048036038101906106a7919061346f565b611995565b005b3480156106ba57600080fd5b506106d560048036038101906106d091906136c1565b611aed565b6040516106e29190613675565b60405180910390f35b3480156106f757600080fd5b50610712600480360381019061070d9190613957565b611dcd565b60405161071f91906131ac565b60405180910390f35b34801561073457600080fd5b5061073d611e61565b60405161074a9190613675565b60405180910390f35b34801561075f57600080fd5b5061077a60048036038101906107759190613524565b612077565b60405161078791906136a6565b60405180910390f35b34801561079c57600080fd5b506107b760048036038101906107b291906136c1565b6120a8565b005b60007f80ac58cd000000000000000000000000000000000000000000000000000000007bffffffffffffffffffffffffffffffffffffffffffffffffffffffff1916827bffffffffffffffffffffffffffffffffffffffffffffffffffffffff1916148061088457507f5b5e139f000000000000000000000000000000000000000000000000000000007bffffffffffffffffffffffffffffffffffffffffffffffffffffffff1916827bffffffffffffffffffffffffffffffffffffffffffffffffffffffff1916145b8061089457506108938261212e565b5b9050919050565b6108a3612198565b600860008154809291906108b6906139c6565b9190505550600060085490506040518060a001604052808281526020018581526020018481526020018381526020016000815250600a600083815260200190815260200160002060008201518160000155602082015181600101908161091c9190613c1a565b5060408201518160020190816109329190613c1a565b50606082015181600301556080820151816004015590505060098190806001815401808255809150506001900390600052602060002001600090919091909150556001600c600083815260200190815260200160002060006101000a81548160ff0219169083151502179055506109a9338261221f565b826040516109b79190613d28565b6040518091039020846040516109cd9190613d28565b60405180910390207f927de78391648190e6dff178494499568a6f07d6a22bda10eb10a944b73f450e60405160405180910390a350505050565b606060008054610a1690613a3d565b80601f0160208091040260200160405190810160405280929190818152602001828054610a4290613a3d565b8015610a8f5780601f10610a6457610100808354040283529160200191610a8f565b820191906000526020600020905b815481529060010190602001808311610a7257829003601f168201915b5050505050905090565b6000610aa48261223d565b50610aae826122c5565b9050919050565b610ac78282610ac2612302565b61230a565b5050565b600c6020528060005260406000206000915054906101000a900460ff1681565b610af683838361231c565b8173ffffffffffffffffffffffffffffffffffffffff168373ffffffffffffffffffffffffffffffffffffffff167fcd8b38cefcfe1ddd69acc0c4a3b72838681981b18de8d5f5ad85aada541b1ee083604051610b5391906136a6565b60405180910390a3505050565b610b7b838383604051806020016040528060008152506111f7565b505050565b60606000805b600980549050811015610c3a57600c600060098381548110610bab57610baa613d3f565b5b9060005260206000200154815260200190815260200160002060009054906101000a900460ff168015610c195750600b600060098381548110610bf157610bf0613d3f565b5b9060005260206000200154815260200190815260200160002060009054906101000a900460ff165b15610c2d578180610c29906139c6565b9250505b8080600101915050610b86565b5060008167ffffffffffffffff811115610c5757610c566131e2565b5b604051908082528060200260200182016040528015610c855781602001602082028036833780820191505090505b5090506000805b600980549050811015610d7e57600c600060098381548110610cb157610cb0613d3f565b5b9060005260206000200154815260200190815260200160002060009054906101000a900460ff168015610d1f5750600b600060098381548110610cf757610cf6613d3f565b5b9060005260206000200154815260200190815260200160002060009054906101000a900460ff165b15610d715760098181548110610d3857610d37613d3f565b5b9060005260206000200154838381518110610d5657610d55613d3f565b5b6020026020010181815250508180610d6d906139c6565b9250505b8080600101915050610c8c565b5081935050505090565b600e6020528160005260406000208181548110610da457600080fd5b90600052602060002001600091509150505481565b6000610dc48261223d565b9050919050565b600042905090565b60008073ffffffffffffffffffffffffffffffffffffffff168273ffffffffffffffffffffffffffffffffffffffff1603610e465760006040517f89c62b64000000000000000000000000000000000000000000000000000000008152600401610e3d91906134dd565b60405180910390fd5b600360008373ffffffffffffffffffffffffffffffffffffffff1673ffffffffffffffffffffffffffffffffffffffff168152602001908152602001600020549050919050565b610e95612198565b610e9f600061241e565b565b600854811115610ee6576040517f08c379a0000000000000000000000000000000000000000000000000000000008152600401610edd90613dba565b60405180910390fd5b6000600a6000838152602001908152602001600020600301549050600760009054906101000a900473ffffffffffffffffffffffffffffffffffffffff1673ffffffffffffffffffffffffffffffffffffffff16610f4383610db9565b73ffffffffffffffffffffffffffffffffffffffff1614610f99576040517f08c379a0000000000000000000000000000000000000000000000000000000008152600401610f9090613e4c565b60405180910390fd5b80341015610fdc576040517f08c379a0000000000000000000000000000000000000000000000000000000008152600401610fd390613ede565b60405180910390fd5b610fef3383610fea85610db9565b61230a565b611002610ffb83610db9565b3384610aeb565b6000600c600084815260200190815260200160002060006101000a81548160ff021916908315150217905550620151804261103d9190613efe565b600a600084815260200190815260200160002060040181905550600d60003373ffffffffffffffffffffffffffffffffffffffff1673ffffffffffffffffffffffffffffffffffffffff1681526020019081526020016000208290806001815401808255809150506001900390600052602060002001600090919091909150553373ffffffffffffffffffffffffffffffffffffffff16827f112e4af3852d711647537c1b0427246ba66a8a586c3f5bea0cc09fd81b8bb23060405160405180910390a35050565b6000600660009054906101000a900473ffffffffffffffffffffffffffffffffffffffff16905090565b60606001805461113e90613a3d565b80601f016020809104026020016040519081016040528092919081815260200182805461116a90613a3d565b80156111b75780601f1061118c576101008083540402835291602001916111b7565b820191906000526020600020905b81548152906001019060200180831161119a57829003601f168201915b5050505050905090565b6111d36111cc612302565b83836124e4565b5050565b600b6020528060005260406000206000915054906101000a900460ff1681565b611202848484610aeb565b61120e84848484612653565b50505050565b600a60205280600052604060002060009150905080600001549080600101805461123d90613a3d565b80601f016020809104026020016040519081016040528092919081815260200182805461126990613a3d565b80156112b65780601f1061128b576101008083540402835291602001916112b6565b820191906000526020600020905b81548152906001019060200180831161129957829003601f168201915b5050505050908060020180546112cb90613a3d565b80601f01602080910402602001604051908101604052809291908181526020018280546112f790613a3d565b80156113445780601f1061131957610100808354040283529160200191611344565b820191906000526020600020905b81548152906001019060200180831161132757829003601f168201915b5050505050908060030154908060040154905085565b60606113658261223d565b50600061137061280a565b9050600081511161139057604051806020016040528060008152506113bb565b8061139a84612821565b6040516020016113ab929190613f32565b6040516020818303038152906040525b915050919050565b60606000805b60098054905081101561148457600c6000600983815481106113ee576113ed613d3f565b5b9060005260206000200154815260200190815260200160002060009054906101000a900460ff168015611463575060001515600b60006009848154811061143857611437613d3f565b5b9060005260206000200154815260200190815260200160002060009054906101000a900460ff161515145b15611477578180611473906139c6565b9250505b80806001019150506113c9565b5060008167ffffffffffffffff8111156114a1576114a06131e2565b5b6040519080825280602002602001820160405280156114cf5781602001602082028036833780820191505090505b5090506000805b6009805490508110156115cf57600c6000600983815481106114fb576114fa613d3f565b5b9060005260206000200154815260200190815260200160002060009054906101000a900460ff168015611570575060001515600b60006009848154811061154557611544613d3f565b5b9060005260206000200154815260200190815260200160002060009054906101000a900460ff161515145b156115c2576009818154811061158957611588613d3f565b5b90600052602060002001548383815181106115a7576115a6613d3f565b5b60200260200101818152505081806115be906139c6565b9250505b80806001019150506114d6565b5081935050505090565b60606000805b6009805490508110156116a15760001515600c60006009848154811061160857611607613d3f565b5b9060005260206000200154815260200190815260200160002060009054906101000a900460ff161515148015611680575060001515600b60006009848154811061165557611654613d3f565b5b9060005260206000200154815260200190815260200160002060009054906101000a900460ff161515145b15611694578180611690906139c6565b9250505b80806001019150506115df565b5060008167ffffffffffffffff8111156116be576116bd6131e2565b5b6040519080825280602002602001820160405280156116ec5781602001602082028036833780820191505090505b5090506000805b6009805490508110156117f35760001515600c60006009848154811061171c5761171b613d3f565b5b9060005260206000200154815260200190815260200160002060009054906101000a900460ff161515148015611794575060001515600b60006009848154811061176957611768613d3f565b5b9060005260206000200154815260200190815260200160002060009054906101000a900460ff161515145b156117e657600981815481106117ad576117ac613d3f565b5b90600052602060002001548383815181106117cb576117ca613d3f565b5b60200260200101818152505081806117e2906139c6565b9250505b80806001019150506116f3565b5081935050505090565b611805612198565b60086000815480929190611818906139c6565b9190505550600060085490506040518060a00160405280828152602001848152602001838152602001600081526020016000815250600a600083815260200190815260200160002060008201518160000155602082015181600101908161187f9190613c1a565b5060408201518160020190816118959190613c1a565b50606082015181600301556080820151816004015590505060098190806001815401808255809150506001900390600052602060002001600090919091909150556001600b600083815260200190815260200160002060006101000a81548160ff0219169083151502179055506001600c600083815260200190815260200160002060006101000a81548160ff021916908315150217905550611938338261221f565b816040516119469190613d28565b60405180910390208360405161195c9190613d28565b60405180910390207f3b2424469d2a0fa3ed7b7ced5fe8369bf96eeb17f49cca9f28e25e383a4f187260405160405180910390a3505050565b61199d612198565b6008548111156119e2576040517f08c379a00000000000000000000000000000000000000000000000000000000081526004016119d990613dba565b60405180910390fd5b6000600a600083815260200190815260200160002060040154421115611a0757600190505b6001151581151514611a4e576040517f08c379a0000000000000000000000000000000000000000000000000000000008152600401611a4590613fc8565b60405180910390fd5b611a613383611a5c85610db9565b61230a565b611a74611a6d83610db9565b3384610aeb565b6001600c600084815260200190815260200160002060006101000a81548160ff0219169083151502179055506000600a600084815260200190815260200160002060040181905550817f0c29f50c56a065d12888b21481ad9cf89fbe06c5e961884ed5d26bb5e2ecb31e60405160405180910390a25050565b60606000805b600980549050811015611c125760001515600c600060098481548110611b1c57611b1b613d3f565b5b9060005260206000200154815260200190815260200160002060009054906101000a900460ff161515148015611ba357508373ffffffffffffffffffffffffffffffffffffffff16611b8b60098381548110611b7b57611b7a613d3f565b5b9060005260206000200154610db9565b73ffffffffffffffffffffffffffffffffffffffff16145b8015611bf1575060001515600b600060098481548110611bc657611bc5613d3f565b5b9060005260206000200154815260200190815260200160002060009054906101000a900460ff161515145b15611c05578180611c01906139c6565b9250505b8080600101915050611af3565b5060008167ffffffffffffffff811115611c2f57611c2e6131e2565b5b604051908082528060200260200182016040528015611c5d5781602001602082028036833780820191505090505b5090506000805b600980549050811015611dc15760001515600c600060098481548110611c8d57611c8c613d3f565b5b9060005260206000200154815260200190815260200160002060009054906101000a900460ff161515148015611d1457508573ffffffffffffffffffffffffffffffffffffffff16611cfc60098381548110611cec57611ceb613d3f565b5b9060005260206000200154610db9565b73ffffffffffffffffffffffffffffffffffffffff16145b8015611d62575060001515600b600060098481548110611d3757611d36613d3f565b5b9060005260206000200154815260200190815260200160002060009054906101000a900460ff161515145b15611db45760098181548110611d7b57611d7a613d3f565b5b9060005260206000200154838381518110611d9957611d98613d3f565b5b6020026020010181815250508180611db0906139c6565b9250505b8080600101915050611c64565b50819350505050919050565b6000600560008473ffffffffffffffffffffffffffffffffffffffff1673ffffffffffffffffffffffffffffffffffffffff16815260200190815260200160002060008373ffffffffffffffffffffffffffffffffffffffff1673ffffffffffffffffffffffffffffffffffffffff16815260200190815260200160002060009054906101000a900460ff16905092915050565b60606000805b600980549050811015611f225760001515600c600060098481548110611e9057611e8f613d3f565b5b9060005260206000200154815260200190815260200160002060009054906101000a900460ff161515148015611f015750600b600060098381548110611ed957611ed8613d3f565b5b9060005260206000200154815260200190815260200160002060009054906101000a900460ff165b15611f15578180611f11906139c6565b9250505b8080600101915050611e67565b5060008167ffffffffffffffff811115611f3f57611f3e6131e2565b5b604051908082528060200260200182016040528015611f6d5781602001602082028036833780820191505090505b5090506000805b60098054905081101561206d5760001515600c600060098481548110611f9d57611f9c613d3f565b5b9060005260206000200154815260200190815260200160002060009054906101000a900460ff16151514801561200e5750600b600060098381548110611fe657611fe5613d3f565b5b9060005260206000200154815260200190815260200160002060009054906101000a900460ff165b15612060576009818154811061202757612026613d3f565b5b906000526020600020015483838151811061204557612044613d3f565b5b602002602001018181525050818061205c906139c6565b9250505b8080600101915050611f74565b5081935050505090565b600d602052816000526040600020818154811061209357600080fd5b90600052602060002001600091509150505481565b6120b0612198565b600073ffffffffffffffffffffffffffffffffffffffff168173ffffffffffffffffffffffffffffffffffffffff16036121225760006040517f1e4fbdf700000000000000000000000000000000000000000000000000000000815260040161211991906134dd565b60405180910390fd5b61212b8161241e565b50565b60007f01ffc9a7000000000000000000000000000000000000000000000000000000007bffffffffffffffffffffffffffffffffffffffffffffffffffffffff1916827bffffffffffffffffffffffffffffffffffffffffffffffffffffffff1916149050919050565b6121a0612302565b73ffffffffffffffffffffffffffffffffffffffff166121be611105565b73ffffffffffffffffffffffffffffffffffffffff161461221d576121e1612302565b6040517f118cdaa700000000000000000000000000000000000000000000000000000000815260040161221491906134dd565b60405180910390fd5b565b6122398282604051806020016040528060008152506128ef565b5050565b6000806122498361290b565b9050600073ffffffffffffffffffffffffffffffffffffffff168173ffffffffffffffffffffffffffffffffffffffff16036122bc57826040517f7e2732890000000000000000000000000000000000000000000000000000000081526004016122b391906136a6565b60405180910390fd5b80915050919050565b60006004600083815260200190815260200160002060009054906101000a900473ffffffffffffffffffffffffffffffffffffffff169050919050565b600033905090565b6123178383836001612948565b505050565b600073ffffffffffffffffffffffffffffffffffffffff168273ffffffffffffffffffffffffffffffffffffffff160361238e5760006040517f64a0ae9200000000000000000000000000000000000000000000000000000000815260040161238591906134dd565b60405180910390fd5b60006123a2838361239d612302565b612b0d565b90508373ffffffffffffffffffffffffffffffffffffffff168173ffffffffffffffffffffffffffffffffffffffff1614612418578382826040517f64283d7b00000000000000000000000000000000000000000000000000000000815260040161240f93929190613fe8565b60405180910390fd5b50505050565b6000600660009054906101000a900473ffffffffffffffffffffffffffffffffffffffff16905081600660006101000a81548173ffffffffffffffffffffffffffffffffffffffff021916908373ffffffffffffffffffffffffffffffffffffffff1602179055508173ffffffffffffffffffffffffffffffffffffffff168173ffffffffffffffffffffffffffffffffffffffff167f8be0079c531659141344cd1fd0a4f28419497f9722a3daafe3b4186f6b6457e060405160405180910390a35050565b600073ffffffffffffffffffffffffffffffffffffffff168273ffffffffffffffffffffffffffffffffffffffff160361255557816040517f5b08ba1800000000000000000000000000000000000000000000000000000000815260040161254c91906134dd565b60405180910390fd5b80600560008573ffffffffffffffffffffffffffffffffffffffff1673ffffffffffffffffffffffffffffffffffffffff16815260200190815260200160002060008473ffffffffffffffffffffffffffffffffffffffff1673ffffffffffffffffffffffffffffffffffffffff16815260200190815260200160002060006101000a81548160ff0219169083151502179055508173ffffffffffffffffffffffffffffffffffffffff168373ffffffffffffffffffffffffffffffffffffffff167f17307eab39ab6107e8899845ad3d59bd9653f200f220920489ca2b5937696c318360405161264691906131ac565b60405180910390a3505050565b60008373ffffffffffffffffffffffffffffffffffffffff163b1115612804578273ffffffffffffffffffffffffffffffffffffffff1663150b7a02612697612302565b8685856040518563ffffffff1660e01b81526004016126b99493929190614074565b6020604051808303816000875af19250505080156126f557506040513d601f19601f820116820180604052508101906126f291906140d5565b60015b612779573d8060008114612725576040519150601f19603f3d011682016040523d82523d6000602084013e61272a565b606091505b50600081510361277157836040517f64a0ae9200000000000000000000000000000000000000000000000000000000815260040161276891906134dd565b60405180910390fd5b805181602001fd5b63150b7a0260e01b7bffffffffffffffffffffffffffffffffffffffffffffffffffffffff1916817bffffffffffffffffffffffffffffffffffffffffffffffffffffffff19161461280257836040517f64a0ae920000000000000000000000000000000000000000000000000000000081526004016127f991906134dd565b60405180910390fd5b505b50505050565b606060405180602001604052806000815250905090565b60606000600161283084612d27565b01905060008167ffffffffffffffff81111561284f5761284e6131e2565b5b6040519080825280601f01601f1916602001820160405280156128815781602001600182028036833780820191505090505b509050600082602001820190505b6001156128e4578080600190039150507f3031323334353637383961626364656600000000000000000000000000000000600a86061a8153600a85816128d8576128d7614102565b5b0494506000850361288f575b819350505050919050565b6128f98383612e7a565b6129066000848484612653565b505050565b60006002600083815260200190815260200160002060009054906101000a900473ffffffffffffffffffffffffffffffffffffffff169050919050565b80806129815750600073ffffffffffffffffffffffffffffffffffffffff168273ffffffffffffffffffffffffffffffffffffffff1614155b15612ab55760006129918461223d565b9050600073ffffffffffffffffffffffffffffffffffffffff168373ffffffffffffffffffffffffffffffffffffffff16141580156129fc57508273ffffffffffffffffffffffffffffffffffffffff168173ffffffffffffffffffffffffffffffffffffffff1614155b8015612a0f5750612a0d8184611dcd565b155b15612a5157826040517fa9fbf51f000000000000000000000000000000000000000000000000000000008152600401612a4891906134dd565b60405180910390fd5b8115612ab357838573ffffffffffffffffffffffffffffffffffffffff168273ffffffffffffffffffffffffffffffffffffffff167f8c5be1e5ebec7d5bd14f71427d1e84f3dd0314c0f7b2291e5b200ac8c7c3b92560405160405180910390a45b505b836004600085815260200190815260200160002060006101000a81548173ffffffffffffffffffffffffffffffffffffffff021916908373ffffffffffffffffffffffffffffffffffffffff16021790555050505050565b600080612b198461290b565b9050600073ffffffffffffffffffffffffffffffffffffffff168373ffffffffffffffffffffffffffffffffffffffff1614612b5b57612b5a818486612f73565b5b600073ffffffffffffffffffffffffffffffffffffffff168173ffffffffffffffffffffffffffffffffffffffff1614612bec57612b9d600085600080612948565b6001600360008373ffffffffffffffffffffffffffffffffffffffff1673ffffffffffffffffffffffffffffffffffffffff168152602001908152602001600020600082825403925050819055505b600073ffffffffffffffffffffffffffffffffffffffff168573ffffffffffffffffffffffffffffffffffffffff1614612c6f576001600360008773ffffffffffffffffffffffffffffffffffffffff1673ffffffffffffffffffffffffffffffffffffffff168152602001908152602001600020600082825401925050819055505b846002600086815260200190815260200160002060006101000a81548173ffffffffffffffffffffffffffffffffffffffff021916908373ffffffffffffffffffffffffffffffffffffffff160217905550838573ffffffffffffffffffffffffffffffffffffffff168273ffffffffffffffffffffffffffffffffffffffff167fddf252ad1be2c89b69c2b068fc378daa952ba7f163c4a11628f55a4df523b3ef60405160405180910390a4809150509392505050565b600080600090507a184f03e93ff9f4daa797ed6e38ed64bf6a1f0100000000000000008310612d85577a184f03e93ff9f4daa797ed6e38ed64bf6a1f0100000000000000008381612d7b57612d7a614102565b5b0492506040810190505b6d04ee2d6d415b85acef81000000008310612dc2576d04ee2d6d415b85acef81000000008381612db857612db7614102565b5b0492506020810190505b662386f26fc100008310612df157662386f26fc100008381612de757612de6614102565b5b0492506010810190505b6305f5e1008310612e1a576305f5e1008381612e1057612e0f614102565b5b0492506008810190505b6127108310612e3f576127108381612e3557612e34614102565b5b0492506004810190505b60648310612e625760648381612e5857612e57614102565b5b0492506002810190505b600a8310612e71576001810190505b80915050919050565b600073ffffffffffffffffffffffffffffffffffffffff168273ffffffffffffffffffffffffffffffffffffffff1603612eec5760006040517f64a0ae92000000000000000000000000000000000000000000000000000000008152600401612ee391906134dd565b60405180910390fd5b6000612efa83836000612b0d565b9050600073ffffffffffffffffffffffffffffffffffffffff168173ffffffffffffffffffffffffffffffffffffffff1614612f6e5760006040517f73c6ac6e000000000000000000000000000000000000000000000000000000008152600401612f6591906134dd565b60405180910390fd5b505050565b612f7e838383613037565b61303257600073ffffffffffffffffffffffffffffffffffffffff168373ffffffffffffffffffffffffffffffffffffffff1603612ff357806040517f7e273289000000000000000000000000000000000000000000000000000000008152600401612fea91906136a6565b60405180910390fd5b81816040517f177e802f000000000000000000000000000000000000000000000000000000008152600401613029929190614131565b60405180910390fd5b505050565b60008073ffffffffffffffffffffffffffffffffffffffff168373ffffffffffffffffffffffffffffffffffffffff16141580156130ef57508273ffffffffffffffffffffffffffffffffffffffff168473ffffffffffffffffffffffffffffffffffffffff1614806130b057506130af8484611dcd565b5b806130ee57508273ffffffffffffffffffffffffffffffffffffffff166130d6836122c5565b73ffffffffffffffffffffffffffffffffffffffff16145b5b90509392505050565b6000604051905090565b600080fd5b600080fd5b60007fffffffff0000000000000000000000000000000000000000000000000000000082169050919050565b6131418161310c565b811461314c57600080fd5b50565b60008135905061315e81613138565b92915050565b60006020828403121561317a57613179613102565b5b60006131888482850161314f565b91505092915050565b60008115159050919050565b6131a681613191565b82525050565b60006020820190506131c1600083018461319d565b92915050565b600080fd5b600080fd5b6000601f19601f8301169050919050565b7f4e487b7100000000000000000000000000000000000000000000000000000000600052604160045260246000fd5b61321a826131d1565b810181811067ffffffffffffffff82111715613239576132386131e2565b5b80604052505050565b600061324c6130f8565b90506132588282613211565b919050565b600067ffffffffffffffff821115613278576132776131e2565b5b613281826131d1565b9050602081019050919050565b82818337600083830152505050565b60006132b06132ab8461325d565b613242565b9050828152602081018484840111156132cc576132cb6131cc565b5b6132d784828561328e565b509392505050565b600082601f8301126132f4576132f36131c7565b5b813561330484826020860161329d565b91505092915050565b6000819050919050565b6133208161330d565b811461332b57600080fd5b50565b60008135905061333d81613317565b92915050565b60008060006060848603121561335c5761335b613102565b5b600084013567ffffffffffffffff81111561337a57613379613107565b5b613386868287016132df565b935050602084013567ffffffffffffffff8111156133a7576133a6613107565b5b6133b3868287016132df565b92505060406133c48682870161332e565b9150509250925092565b600081519050919050565b600082825260208201905092915050565b60005b838110156134085780820151818401526020810190506133ed565b60008484015250505050565b600061341f826133ce565b61342981856133d9565b93506134398185602086016133ea565b613442816131d1565b840191505092915050565b600060208201905081810360008301526134678184613414565b905092915050565b60006020828403121561348557613484613102565b5b60006134938482850161332e565b91505092915050565b600073ffffffffffffffffffffffffffffffffffffffff82169050919050565b60006134c78261349c565b9050919050565b6134d7816134bc565b82525050565b60006020820190506134f260008301846134ce565b92915050565b613501816134bc565b811461350c57600080fd5b50565b60008135905061351e816134f8565b92915050565b6000806040838503121561353b5761353a613102565b5b60006135498582860161350f565b925050602061355a8582860161332e565b9150509250929050565b60008060006060848603121561357d5761357c613102565b5b600061358b8682870161350f565b935050602061359c8682870161350f565b92505060406135ad8682870161332e565b9150509250925092565b600081519050919050565b600082825260208201905092915050565b6000819050602082019050919050565b6135ec8161330d565b82525050565b60006135fe83836135e3565b60208301905092915050565b6000602082019050919050565b6000613622826135b7565b61362c81856135c2565b9350613637836135d3565b8060005b8381101561366857815161364f88826135f2565b975061365a8361360a565b92505060018101905061363b565b5085935050505092915050565b6000602082019050818103600083015261368f8184613617565b905092915050565b6136a08161330d565b82525050565b60006020820190506136bb6000830184613697565b92915050565b6000602082840312156136d7576136d6613102565b5b60006136e58482850161350f565b91505092915050565b6136f781613191565b811461370257600080fd5b50565b600081359050613714816136ee565b92915050565b6000806040838503121561373157613730613102565b5b600061373f8582860161350f565b925050602061375085828601613705565b9150509250929050565b600067ffffffffffffffff821115613775576137746131e2565b5b61377e826131d1565b9050602081019050919050565b600061379e6137998461375a565b613242565b9050828152602081018484840111156137ba576137b96131cc565b5b6137c584828561328e565b509392505050565b600082601f8301126137e2576137e16131c7565b5b81356137f284826020860161378b565b91505092915050565b6000806000806080858703121561381557613814613102565b5b60006138238782880161350f565b94505060206138348782880161350f565b93505060406138458782880161332e565b925050606085013567ffffffffffffffff81111561386657613865613107565b5b613872878288016137cd565b91505092959194509250565b600060a0820190506138936000830188613697565b81810360208301526138a58187613414565b905081810360408301526138b98186613414565b90506138c86060830185613697565b6138d56080830184613697565b9695505050505050565b600080604083850312156138f6576138f5613102565b5b600083013567ffffffffffffffff81111561391457613913613107565b5b613920858286016132df565b925050602083013567ffffffffffffffff81111561394157613940613107565b5b61394d858286016132df565b9150509250929050565b6000806040838503121561396e5761396d613102565b5b600061397c8582860161350f565b925050602061398d8582860161350f565b9150509250929050565b7f4e487b7100000000000000000000000000000000000000000000000000000000600052601160045260246000fd5b60006139d18261330d565b91507fffffffffffffffffffffffffffffffffffffffffffffffffffffffffffffffff8203613a0357613a02613997565b5b600182019050919050565b7f4e487b7100000000000000000000000000000000000000000000000000000000600052602260045260246000fd5b60006002820490506001821680613a5557607f821691505b602082108103613a6857613a67613a0e565b5b50919050565b60008190508160005260206000209050919050565b60006020601f8301049050919050565b600082821b905092915050565b600060088302613ad07fffffffffffffffffffffffffffffffffffffffffffffffffffffffffffffffff82613a93565b613ada8683613a93565b95508019841693508086168417925050509392505050565b6000819050919050565b6000613b17613b12613b0d8461330d565b613af2565b61330d565b9050919050565b6000819050919050565b613b3183613afc565b613b45613b3d82613b1e565b848454613aa0565b825550505050565b600090565b613b5a613b4d565b613b65818484613b28565b505050565b5b81811015613b8957613b7e600082613b52565b600181019050613b6b565b5050565b601f821115613bce57613b9f81613a6e565b613ba884613a83565b81016020851015613bb7578190505b613bcb613bc385613a83565b830182613b6a565b50505b505050565b600082821c905092915050565b6000613bf160001984600802613bd3565b1980831691505092915050565b6000613c0a8383613be0565b9150826002028217905092915050565b613c23826133ce565b67ffffffffffffffff811115613c3c57613c3b6131e2565b5b613c468254613a3d565b613c51828285613b8d565b600060209050601f831160018114613c845760008415613c72578287015190505b613c7c8582613bfe565b865550613ce4565b601f198416613c9286613a6e565b60005b82811015613cba57848901518255600182019150602085019450602081019050613c95565b86831015613cd75784890151613cd3601f891682613be0565b8355505b6001600288020188555050505b505050505050565b600081905092915050565b6000613d02826133ce565b613d0c8185613cec565b9350613d1c8185602086016133ea565b80840191505092915050565b6000613d348284613cf7565b915081905092915050565b7f4e487b7100000000000000000000000000000000000000000000000000000000600052603260045260246000fd5b7f56656869636c6520646f65736e277420666f756e640000000000000000000000600082015250565b6000613da46015836133d9565b9150613daf82613d6e565b602082019050919050565b60006020820190508181036000830152613dd381613d97565b9050919050565b7f5468652076656869636c652068617320616c7265616479206265656e2074616b60008201527f656e20627920616e6f7468657220757365720000000000000000000000000000602082015250565b6000613e366032836133d9565b9150613e4182613dda565b604082019050919050565b60006020820190508181036000830152613e6581613e29565b9050919050565b7f446f65736e2774206861766520656e6f7567682066756e647320746f2062757960008201527f20746869732076656869636c6500000000000000000000000000000000000000602082015250565b6000613ec8602d836133d9565b9150613ed382613e6c565b604082019050919050565b60006020820190508181036000830152613ef781613ebb565b9050919050565b6000613f098261330d565b9150613f148361330d565b9250828201905080821115613f2c57613f2b613997565b5b92915050565b6000613f3e8285613cf7565b9150613f4a8284613cf7565b91508190509392505050565b7f54686520737562736372697074696f6e20686173206e6f74207965742065787060008201527f6972656400000000000000000000000000000000000000000000000000000000602082015250565b6000613fb26024836133d9565b9150613fbd82613f56565b604082019050919050565b60006020820190508181036000830152613fe181613fa5565b9050919050565b6000606082019050613ffd60008301866134ce565b61400a6020830185613697565b61401760408301846134ce565b949350505050565b600081519050919050565b600082825260208201905092915050565b60006140468261401f565b614050818561402a565b93506140608185602086016133ea565b614069816131d1565b840191505092915050565b600060808201905061408960008301876134ce565b61409660208301866134ce565b6140a36040830185613697565b81810360608301526140b5818461403b565b905095945050505050565b6000815190506140cf81613138565b92915050565b6000602082840312156140eb576140ea613102565b5b60006140f9848285016140c0565b91505092915050565b7f4e487b7100000000000000000000000000000000000000000000000000000000600052601260045260246000fd5b600060408201905061414660008301856134ce565b6141536020830184613697565b939250505056fea2646970667358221220e8ab041556ed6576bec6145b53648895d4da5c44139f79ac800d6410f44c3cdb64736f6c63430008180033",
  "linkReferences": {},
  "deployedLinkReferences": {}
}