{
  "_format": "hh-sol-artifact-1",
  "contractName": "VehicleAuctions",
  "sourceName": "contracts/VehicleAuctions.sol",
  "abi": [
    {
      "inputs": [
        {
          "internalType": "string",
          "name": "_nameToken",
          "type": "string"
        },
        {
          "internalType": "string",
          "name": "_symbolToken",
          "type": "string"
        }
      ],
      "stateMutability": "nonpayable",
      "type": "constructor"
    },
    {
      "inputs": [
        {
          "internalType": "address",
          "name": "sender",
          "type": "address"
        },
        {
          "internalType": "uint256",
          "name": "tokenId",
          "type": "uint256"
        },
        {
          "internalType": "address",
          "name": "owner",
          "type": "address"
        }
      ],
      "name": "ERC721IncorrectOwner",
      "type": "error"
    },
    {
      "inputs": [
        {
          "internalType": "address",
          "name": "operator",
          "type": "address"
        },
        {
          "internalType": "uint256",
          "name": "tokenId",
          "type": "uint256"
        }
      ],
      "name": "ERC721InsufficientApproval",
      "type": "error"
    },
    {
      "inputs": [
        {
          "internalType": "address",
          "name": "approver",
          "type": "address"
        }
      ],
      "name": "ERC721InvalidApprover",
      "type": "error"
    },
    {
      "inputs": [
        {
          "internalType": "address",
          "name": "operator",
          "type": "address"
        }
      ],
      "name": "ERC721InvalidOperator",
      "type": "error"
    },
    {
      "inputs": [
        {
          "internalType": "address",
          "name": "owner",
          "type": "address"
        }
      ],
      "name": "ERC721InvalidOwner",
      "type": "error"
    },
    {
      "inputs": [
        {
          "internalType": "address",
          "name": "receiver",
          "type": "address"
        }
      ],
      "name": "ERC721InvalidReceiver",
      "type": "error"
    },
    {
      "inputs": [
        {
          "internalType": "address",
          "name": "sender",
          "type": "address"
        }
      ],
      "name": "ERC721InvalidSender",
      "type": "error"
    },
    {
      "inputs": [
        {
          "internalType": "uint256",
          "name": "tokenId",
          "type": "uint256"
        }
      ],
      "name": "ERC721NonexistentToken",
      "type": "error"
    },
    {
      "inputs": [
        {
          "internalType": "address",
          "name": "owner",
          "type": "address"
        }
      ],
      "name": "OwnableInvalidOwner",
      "type": "error"
    },
    {
      "inputs": [
        {
          "internalType": "address",
          "name": "account",
          "type": "address"
        }
      ],
      "name": "OwnableUnauthorizedAccount",
      "type": "error"
    },
    {
      "anonymous": false,
      "inputs": [
        {
          "indexed": true,
          "internalType": "address",
          "name": "owner",
          "type": "address"
        },
        {
          "indexed": true,
          "internalType": "address",
          "name": "approved",
          "type": "address"
        },
        {
          "indexed": true,
          "internalType": "uint256",
          "name": "tokenId",
          "type": "uint256"
        }
      ],
      "name": "Approval",
      "type": "event"
    },
    {
      "anonymous": false,
      "inputs": [
        {
          "indexed": true,
          "internalType": "address",
          "name": "owner",
          "type": "address"
        },
        {
          "indexed": true,
          "internalType": "address",
          "name": "operator",
          "type": "address"
        },
        {
          "indexed": false,
          "internalType": "bool",
          "name": "approved",
          "type": "bool"
        }
      ],
      "name": "ApprovalForAll",
      "type": "event"
    },
    {
      "anonymous": false,
      "inputs": [
        {
          "indexed": true,
          "internalType": "uint256",
          "name": "blockTimeStarted",
          "type": "uint256"
        },
        {
          "indexed": true,
          "internalType": "uint256",
          "name": "blockTimeWillEnd",
          "type": "uint256"
        },
        {
          "indexed": true,
          "internalType": "uint256",
          "name": "idVehicle",
          "type": "uint256"
        }
      ],
      "name": "AuctionDetails",
      "type": "event"
    },
    {
      "anonymous": false,
      "inputs": [
        {
          "indexed": true,
          "internalType": "address",
          "name": "signer",
          "type": "address"
        },
        {
          "indexed": true,
          "internalType": "uint256",
          "name": "bid",
          "type": "uint256"
        }
      ],
      "name": "AuctionOffer",
      "type": "event"
    },
    {
      "anonymous": false,
      "inputs": [
        {
          "indexed": true,
          "internalType": "string",
          "name": "name",
          "type": "string"
        },
        {
          "indexed": true,
          "internalType": "string",
          "name": "model",
          "type": "string"
        }
      ],
      "name": "NFTAuctionsVehicles",
      "type": "event"
    },
    {
      "anonymous": false,
      "inputs": [
        {
          "indexed": true,
          "internalType": "uint256",
          "name": "idVehicle",
          "type": "uint256"
        },
        {
          "indexed": true,
          "internalType": "address",
          "name": "owner",
          "type": "address"
        }
      ],
      "name": "NFTVehicleBuyed",
      "type": "event"
    },
    {
      "anonymous": false,
      "inputs": [
        {
          "indexed": true,
          "internalType": "string",
          "name": "name",
          "type": "string"
        },
        {
          "indexed": true,
          "internalType": "string",
          "name": "model",
          "type": "string"
        }
      ],
      "name": "NFTVehicleCreated",
      "type": "event"
    },
    {
      "anonymous": false,
      "inputs": [
        {
          "indexed": false,
          "internalType": "uint256",
          "name": "idVehicle",
          "type": "uint256"
        },
        {
          "indexed": true,
          "internalType": "address",
          "name": "from",
          "type": "address"
        },
        {
          "indexed": true,
          "internalType": "address",
          "name": "to",
          "type": "address"
        }
      ],
      "name": "NFTVehicleTransferred",
      "type": "event"
    },
    {
      "anonymous": false,
      "inputs": [
        {
          "indexed": true,
          "internalType": "address",
          "name": "previousOwner",
          "type": "address"
        },
        {
          "indexed": true,
          "internalType": "address",
          "name": "newOwner",
          "type": "address"
        }
      ],
      "name": "OwnershipTransferred",
      "type": "event"
    },
    {
      "anonymous": false,
      "inputs": [
        {
          "indexed": true,
          "internalType": "address",
          "name": "from",
          "type": "address"
        },
        {
          "indexed": true,
          "internalType": "address",
          "name": "to",
          "type": "address"
        },
        {
          "indexed": true,
          "internalType": "uint256",
          "name": "tokenId",
          "type": "uint256"
        }
      ],
      "name": "Transfer",
      "type": "event"
    },
    {
      "anonymous": false,
      "inputs": [
        {
          "indexed": true,
          "internalType": "uint256",
          "name": "idVehicle",
          "type": "uint256"
        }
      ],
      "name": "VehicleExpired",
      "type": "event"
    },
    {
      "anonymous": false,
      "inputs": [
        {
          "indexed": true,
          "internalType": "address",
          "name": "owner",
          "type": "address"
        },
        {
          "indexed": true,
          "internalType": "uint256",
          "name": "idVehicle",
          "type": "uint256"
        }
      ],
      "name": "VehicleWithdrawhed",
      "type": "event"
    },
    {
      "inputs": [
        {
          "internalType": "uint256",
          "name": "_id",
          "type": "uint256"
        },
        {
          "internalType": "string",
          "name": "_name",
          "type": "string"
        },
        {
          "internalType": "string",
          "name": "_model",
          "type": "string"
        },
        {
          "internalType": "uint256",
          "name": "_priceVehicle",
          "type": "uint256"
        }
      ],
      "name": "addVehicle",
      "outputs": [],
      "stateMutability": "nonpayable",
      "type": "function"
    },
    {
      "inputs": [
        {
          "internalType": "uint256",
          "name": "_id",
          "type": "uint256"
        },
        {
          "internalType": "string",
          "name": "_name",
          "type": "string"
        },
        {
          "internalType": "string",
          "name": "_model",
          "type": "string"
        }
      ],
      "name": "addVehicleAuctions",
      "outputs": [],
      "stateMutability": "nonpayable",
      "type": "function"
    },
    {
      "inputs": [
        {
          "internalType": "address",
          "name": "to",
          "type": "address"
        },
        {
          "internalType": "uint256",
          "name": "tokenId",
          "type": "uint256"
        }
      ],
      "name": "approve",
      "outputs": [],
      "stateMutability": "nonpayable",
      "type": "function"
    },
    {
      "inputs": [],
      "name": "arrayAuctionVehiclePurchased",
      "outputs": [
        {
          "internalType": "uint256[]",
          "name": "",
          "type": "uint256[]"
        }
      ],
      "stateMutability": "view",
      "type": "function"
    },
    {
      "inputs": [
        {
          "internalType": "address",
          "name": "_account",
          "type": "address"
        }
      ],
      "name": "arrayAuctionVehiclePurchasedByAddress",
      "outputs": [
        {
          "internalType": "uint256[]",
          "name": "",
          "type": "uint256[]"
        }
      ],
      "stateMutability": "view",
      "type": "function"
    },
    {
      "inputs": [],
      "name": "arrayAuctionsVehicles",
      "outputs": [
        {
          "internalType": "uint256[]",
          "name": "",
          "type": "uint256[]"
        }
      ],
      "stateMutability": "view",
      "type": "function"
    },
    {
      "inputs": [
        {
          "internalType": "address",
          "name": "_account",
          "type": "address"
        }
      ],
      "name": "arrayPurchasedVehiclesByAddress",
      "outputs": [
        {
          "internalType": "uint256[]",
          "name": "",
          "type": "uint256[]"
        }
      ],
      "stateMutability": "view",
      "type": "function"
    },
    {
      "inputs": [],
      "name": "arrayVehicleIds",
      "outputs": [
        {
          "internalType": "uint256[]",
          "name": "",
          "type": "uint256[]"
        }
      ],
      "stateMutability": "view",
      "type": "function"
    },
    {
      "inputs": [],
      "name": "arrayVehiclesPurchased",
      "outputs": [
        {
          "internalType": "uint256[]",
          "name": "",
          "type": "uint256[]"
        }
      ],
      "stateMutability": "view",
      "type": "function"
    },
    {
      "inputs": [
        {
          "internalType": "uint256",
          "name": "",
          "type": "uint256"
        }
      ],
      "name": "auctionStatus",
      "outputs": [
        {
          "internalType": "uint256",
          "name": "startedAt",
          "type": "uint256"
        },
        {
          "internalType": "uint256",
          "name": "willEndAt",
          "type": "uint256"
        },
        {
          "internalType": "uint256",
          "name": "winningBid",
          "type": "uint256"
        },
        {
          "internalType": "address",
          "name": "ownerBid",
          "type": "address"
        }
      ],
      "stateMutability": "view",
      "type": "function"
    },
    {
      "inputs": [
        {
          "internalType": "uint256",
          "name": "",
          "type": "uint256"
        }
      ],
      "name": "availableVehicle",
      "outputs": [
        {
          "internalType": "bool",
          "name": "",
          "type": "bool"
        }
      ],
      "stateMutability": "view",
      "type": "function"
    },
    {
      "inputs": [
        {
          "internalType": "address",
          "name": "owner",
          "type": "address"
        }
      ],
      "name": "balanceOf",
      "outputs": [
        {
          "internalType": "uint256",
          "name": "",
          "type": "uint256"
        }
      ],
      "stateMutability": "view",
      "type": "function"
    },
    {
      "inputs": [
        {
          "internalType": "uint256",
          "name": "_idVehicle",
          "type": "uint256"
        }
      ],
      "name": "buyNFTVehicle",
      "outputs": [],
      "stateMutability": "payable",
      "type": "function"
    },
    {
      "inputs": [
        {
          "internalType": "uint256",
          "name": "",
          "type": "uint256"
        }
      ],
      "name": "detailsVehicle",
      "outputs": [
        {
          "internalType": "uint256",
          "name": "id",
          "type": "uint256"
        },
        {
          "internalType": "string",
          "name": "name",
          "type": "string"
        },
        {
          "internalType": "string",
          "name": "model",
          "type": "string"
        },
        {
          "internalType": "uint256",
          "name": "priceVehicle",
          "type": "uint256"
        },
        {
          "internalType": "bool",
          "name": "available",
          "type": "bool"
        },
        {
          "internalType": "address",
          "name": "owner",
          "type": "address"
        },
        {
          "internalType": "uint256",
          "name": "willEndAt",
          "type": "uint256"
        }
      ],
      "stateMutability": "view",
      "type": "function"
    },
    {
      "inputs": [
        {
          "internalType": "uint256",
          "name": "_idVehicle",
          "type": "uint256"
        }
      ],
      "name": "expiryCheck",
      "outputs": [],
      "stateMutability": "nonpayable",
      "type": "function"
    },
    {
      "inputs": [
        {
          "internalType": "uint256",
          "name": "_idVehicle",
          "type": "uint256"
        }
      ],
      "name": "expiryCheckAuction",
      "outputs": [],
      "stateMutability": "nonpayable",
      "type": "function"
    },
    {
      "inputs": [
        {
          "internalType": "uint256",
          "name": "tokenId",
          "type": "uint256"
        }
      ],
      "name": "getApproved",
      "outputs": [
        {
          "internalType": "address",
          "name": "",
          "type": "address"
        }
      ],
      "stateMutability": "view",
      "type": "function"
    },
    {
      "inputs": [],
      "name": "getCurrentTimestamp",
      "outputs": [
        {
          "internalType": "uint256",
          "name": "",
          "type": "uint256"
        }
      ],
      "stateMutability": "view",
      "type": "function"
    },
    {
      "inputs": [],
      "name": "hasRecoveredFunds",
      "outputs": [
        {
          "internalType": "bool",
          "name": "",
          "type": "bool"
        }
      ],
      "stateMutability": "view",
      "type": "function"
    },
    {
      "inputs": [
        {
          "internalType": "uint256",
          "name": "_idVehicle",
          "type": "uint256"
        }
      ],
      "name": "hasWithdrawhed",
      "outputs": [
        {
          "internalType": "bool",
          "name": "",
          "type": "bool"
        }
      ],
      "stateMutability": "view",
      "type": "function"
    },
    {
      "inputs": [
        {
          "internalType": "address",
          "name": "owner",
          "type": "address"
        },
        {
          "internalType": "address",
          "name": "operator",
          "type": "address"
        }
      ],
      "name": "isApprovedForAll",
      "outputs": [
        {
          "internalType": "bool",
          "name": "",
          "type": "bool"
        }
      ],
      "stateMutability": "view",
      "type": "function"
    },
    {
      "inputs": [
        {
          "internalType": "uint256",
          "name": "_idVehicle",
          "type": "uint256"
        }
      ],
      "name": "isAuctionStarted",
      "outputs": [
        {
          "internalType": "bool",
          "name": "",
          "type": "bool"
        }
      ],
      "stateMutability": "view",
      "type": "function"
    },
    {
      "inputs": [],
      "name": "name",
      "outputs": [
        {
          "internalType": "string",
          "name": "",
          "type": "string"
        }
      ],
      "stateMutability": "view",
      "type": "function"
    },
    {
      "inputs": [],
      "name": "owner",
      "outputs": [
        {
          "internalType": "address",
          "name": "",
          "type": "address"
        }
      ],
      "stateMutability": "view",
      "type": "function"
    },
    {
      "inputs": [
        {
          "internalType": "uint256",
          "name": "tokenId",
          "type": "uint256"
        }
      ],
      "name": "ownerOf",
      "outputs": [
        {
          "internalType": "address",
          "name": "",
          "type": "address"
        }
      ],
      "stateMutability": "view",
      "type": "function"
    },
    {
      "inputs": [
        {
          "internalType": "uint256",
          "name": "_idVehicle",
          "type": "uint256"
        }
      ],
      "name": "participateAuction",
      "outputs": [],
      "stateMutability": "payable",
      "type": "function"
    },
    {
      "inputs": [
        {
          "internalType": "uint256",
          "name": "_idVehicle",
          "type": "uint256"
        }
      ],
      "name": "recoverFunds",
      "outputs": [],
      "stateMutability": "nonpayable",
      "type": "function"
    },
    {
      "inputs": [],
      "name": "renounceOwnership",
      "outputs": [],
      "stateMutability": "nonpayable",
      "type": "function"
    },
    {
      "inputs": [
        {
          "internalType": "address",
          "name": "from",
          "type": "address"
        },
        {
          "internalType": "address",
          "name": "to",
          "type": "address"
        },
        {
          "internalType": "uint256",
          "name": "tokenId",
          "type": "uint256"
        }
      ],
      "name": "safeTransferFrom",
      "outputs": [],
      "stateMutability": "nonpayable",
      "type": "function"
    },
    {
      "inputs": [
        {
          "internalType": "address",
          "name": "from",
          "type": "address"
        },
        {
          "internalType": "address",
          "name": "to",
          "type": "address"
        },
        {
          "internalType": "uint256",
          "name": "tokenId",
          "type": "uint256"
        },
        {
          "internalType": "bytes",
          "name": "data",
          "type": "bytes"
        }
      ],
      "name": "safeTransferFrom",
      "outputs": [],
      "stateMutability": "nonpayable",
      "type": "function"
    },
    {
      "inputs": [
        {
          "internalType": "address",
          "name": "operator",
          "type": "address"
        },
        {
          "internalType": "bool",
          "name": "approved",
          "type": "bool"
        }
      ],
      "name": "setApprovalForAll",
      "outputs": [],
      "stateMutability": "nonpayable",
      "type": "function"
    },
    {
      "inputs": [
        {
          "internalType": "uint256",
          "name": "_idVehicle",
          "type": "uint256"
        }
      ],
      "name": "startAuction",
      "outputs": [],
      "stateMutability": "nonpayable",
      "type": "function"
    },
    {
      "inputs": [
        {
          "internalType": "bytes4",
          "name": "interfaceId",
          "type": "bytes4"
        }
      ],
      "name": "supportsInterface",
      "outputs": [
        {
          "internalType": "bool",
          "name": "",
          "type": "bool"
        }
      ],
      "stateMutability": "view",
      "type": "function"
    },
    {
      "inputs": [],
      "name": "symbol",
      "outputs": [
        {
          "internalType": "string",
          "name": "",
          "type": "string"
        }
      ],
      "stateMutability": "view",
      "type": "function"
    },
    {
      "inputs": [
        {
          "internalType": "uint256",
          "name": "tokenId",
          "type": "uint256"
        }
      ],
      "name": "tokenURI",
      "outputs": [
        {
          "internalType": "string",
          "name": "",
          "type": "string"
        }
      ],
      "stateMutability": "view",
      "type": "function"
    },
    {
      "inputs": [
        {
          "internalType": "address",
          "name": "_from",
          "type": "address"
        },
        {
          "internalType": "address",
          "name": "_to",
          "type": "address"
        },
        {
          "internalType": "uint256",
          "name": "_tokenId",
          "type": "uint256"
        }
      ],
      "name": "transferFrom",
      "outputs": [],
      "stateMutability": "nonpayable",
      "type": "function"
    },
    {
      "inputs": [
        {
          "internalType": "address",
          "name": "newOwner",
          "type": "address"
        }
      ],
      "name": "transferOwnership",
      "outputs": [],
      "stateMutability": "nonpayable",
      "type": "function"
    },
    {
      "inputs": [
        {
          "internalType": "uint256",
          "name": "_idVehicle",
          "type": "uint256"
        }
      ],
      "name": "withdrawNFT",
      "outputs": [],
      "stateMutability": "nonpayable",
      "type": "function"
    }
  ],
  "bytecode": "0x60806040523480156200001157600080fd5b506040516200634b3803806200634b83398181016040528101906200003791906200038d565b818133828281600090816200004d91906200065d565b5080600190816200005f91906200065d565b505050600073ffffffffffffffffffffffffffffffffffffffff168173ffffffffffffffffffffffffffffffffffffffff1603620000d75760006040517f1e4fbdf7000000000000000000000000000000000000000000000000000000008152600401620000ce919062000789565b60405180910390fd5b620000e8816200013460201b60201c565b5033600760006101000a81548173ffffffffffffffffffffffffffffffffffffffff021916908373ffffffffffffffffffffffffffffffffffffffff16021790555050505050620007a6565b6000600660009054906101000a900473ffffffffffffffffffffffffffffffffffffffff16905081600660006101000a81548173ffffffffffffffffffffffffffffffffffffffff021916908373ffffffffffffffffffffffffffffffffffffffff1602179055508173ffffffffffffffffffffffffffffffffffffffff168173ffffffffffffffffffffffffffffffffffffffff167f8be0079c531659141344cd1fd0a4f28419497f9722a3daafe3b4186f6b6457e060405160405180910390a35050565b6000604051905090565b600080fd5b600080fd5b600080fd5b600080fd5b6000601f19601f8301169050919050565b7f4e487b7100000000000000000000000000000000000000000000000000000000600052604160045260246000fd5b620002638262000218565b810181811067ffffffffffffffff8211171562000285576200028462000229565b5b80604052505050565b60006200029a620001fa565b9050620002a8828262000258565b919050565b600067ffffffffffffffff821115620002cb57620002ca62000229565b5b620002d68262000218565b9050602081019050919050565b60005b8381101562000303578082015181840152602081019050620002e6565b60008484015250505050565b6000620003266200032084620002ad565b6200028e565b90508281526020810184848401111562000345576200034462000213565b5b62000352848285620002e3565b509392505050565b600082601f8301126200037257620003716200020e565b5b8151620003848482602086016200030f565b91505092915050565b60008060408385031215620003a757620003a662000204565b5b600083015167ffffffffffffffff811115620003c857620003c762000209565b5b620003d6858286016200035a565b925050602083015167ffffffffffffffff811115620003fa57620003f962000209565b5b62000408858286016200035a565b9150509250929050565b600081519050919050565b7f4e487b7100000000000000000000000000000000000000000000000000000000600052602260045260246000fd5b600060028204905060018216806200046557607f821691505b6020821081036200047b576200047a6200041d565b5b50919050565b60008190508160005260206000209050919050565b60006020601f8301049050919050565b600082821b905092915050565b600060088302620004e57fffffffffffffffffffffffffffffffffffffffffffffffffffffffffffffffff82620004a6565b620004f18683620004a6565b95508019841693508086168417925050509392505050565b6000819050919050565b6000819050919050565b60006200053e62000538620005328462000509565b62000513565b62000509565b9050919050565b6000819050919050565b6200055a836200051d565b62000572620005698262000545565b848454620004b3565b825550505050565b600090565b620005896200057a565b620005968184846200054f565b505050565b5b81811015620005be57620005b26000826200057f565b6001810190506200059c565b5050565b601f8211156200060d57620005d78162000481565b620005e28462000496565b81016020851015620005f2578190505b6200060a620006018562000496565b8301826200059b565b50505b505050565b600082821c905092915050565b6000620006326000198460080262000612565b1980831691505092915050565b60006200064d83836200061f565b9150826002028217905092915050565b620006688262000412565b67ffffffffffffffff81111562000684576200068362000229565b5b6200069082546200044c565b6200069d828285620005c2565b600060209050601f831160018114620006d55760008415620006c0578287015190505b620006cc85826200063f565b8655506200073c565b601f198416620006e58662000481565b60005b828110156200070f57848901518255600182019150602085019450602081019050620006e8565b868310156200072f57848901516200072b601f8916826200061f565b8355505b6001600288020188555050505b505050505050565b600073ffffffffffffffffffffffffffffffffffffffff82169050919050565b6000620007718262000744565b9050919050565b620007838162000764565b82525050565b6000602082019050620007a0600083018462000778565b92915050565b615b9580620007b66000396000f3fe6080604052600436106102255760003560e01c8063715018a611610123578063b88d4fde116100ab578063e985e9c51161006f578063e985e9c51461083a578063f2fde38b14610877578063f701ba7b146108a0578063fe3ffd49146108dd578063fe65af1b1461090857610225565b8063b88d4fde1461072b578063babbb5e114610754578063c1b9a85a14610797578063c87b56dd146107d4578063dca54e471461081157610225565b80638da5cb5b116100f25780638da5cb5b1461064357806395d89b411461066e57806396da43b614610699578063a22cb465146106d9578063b642c7751461070257610225565b8063715018a6146105a857806379046a54146105bf5780637b306a6b146105ea5780638bc621551461060657610225565b8063263787d7116101b15780636352211e116101755780636352211e146104aa57806368d7d76a146104e75780636c9230db1461050357806370a082311461052e57806370a1110d1461056b57610225565b8063263787d7146103d9578063342e5e7d1461040457806339a897c11461042f57806342842e0e146104585780634ab358c71461048157610225565b8063081812fc116101f8578063081812fc146102e4578063095ea7b31461032157806319610fae1461034a5780632327aef01461038757806323b872dd146103b057610225565b806301ffc9a71461022a578063023245d714610267578063065de74c1461029057806306fdde03146102b9575b600080fd5b34801561023657600080fd5b50610251600480360381019061024c919061463c565b610933565b60405161025e9190614684565b60405180910390f35b34801561027357600080fd5b5061028e600480360381019061028991906146d5565b610a15565b005b34801561029c57600080fd5b506102b760048036038101906102b291906146d5565b610d89565b005b3480156102c557600080fd5b506102ce610f56565b6040516102db9190614792565b60405180910390f35b3480156102f057600080fd5b5061030b600480360381019061030691906146d5565b610fe8565b60405161031891906147f5565b60405180910390f35b34801561032d57600080fd5b506103486004803603810190610343919061483c565b611004565b005b34801561035657600080fd5b50610371600480360381019061036c91906146d5565b61101a565b60405161037e9190614684565b60405180910390f35b34801561039357600080fd5b506103ae60048036038101906103a991906146d5565b61103a565b005b3480156103bc57600080fd5b506103d760048036038101906103d2919061487c565b6112d1565b005b3480156103e557600080fd5b506103ee61139b565b6040516103fb919061498d565b60405180910390f35b34801561041057600080fd5b506104196113f3565b604051610426919061498d565b60405180910390f35b34801561043b57600080fd5b5061045660048036038101906104519190614ae4565b61144b565b005b34801561046457600080fd5b5061047f600480360381019061047a919061487c565b611624565b005b34801561048d57600080fd5b506104a860048036038101906104a391906146d5565b611644565b005b3480156104b657600080fd5b506104d160048036038101906104cc91906146d5565b611a46565b6040516104de91906147f5565b60405180910390f35b61050160048036038101906104fc91906146d5565b611a58565b005b34801561050f57600080fd5b50610518611d9d565b6040516105259190614b7e565b60405180910390f35b34801561053a57600080fd5b5061055560048036038101906105509190614b99565b611da5565b6040516105629190614b7e565b60405180910390f35b34801561057757600080fd5b50610592600480360381019061058d9190614b99565b611e5f565b60405161059f919061498d565b60405180910390f35b3480156105b457600080fd5b506105bd611ef6565b005b3480156105cb57600080fd5b506105d4611f0a565b6040516105e1919061498d565b60405180910390f35b61060460048036038101906105ff91906146d5565b611f62565b005b34801561061257600080fd5b5061062d600480360381019061062891906146d5565b612304565b60405161063a9190614684565b60405180910390f35b34801561064f57600080fd5b5061065861232e565b60405161066591906147f5565b60405180910390f35b34801561067a57600080fd5b50610683612358565b6040516106909190614792565b60405180910390f35b3480156106a557600080fd5b506106c060048036038101906106bb91906146d5565b6123ea565b6040516106d09493929190614bc6565b60405180910390f35b3480156106e557600080fd5b5061070060048036038101906106fb9190614c37565b61243a565b005b34801561070e57600080fd5b5061072960048036038101906107249190614c77565b612450565b005b34801561073757600080fd5b50610752600480360381019061074d9190614db7565b612629565b005b34801561076057600080fd5b5061077b600480360381019061077691906146d5565b612646565b60405161078e9796959493929190614e3a565b60405180910390f35b3480156107a357600080fd5b506107be60048036038101906107b991906146d5565b6127c5565b6040516107cb9190614684565b60405180910390f35b3480156107e057600080fd5b506107fb60048036038101906107f691906146d5565b6127ef565b6040516108089190614792565b60405180910390f35b34801561081d57600080fd5b50610838600480360381019061083391906146d5565b612858565b005b34801561084657600080fd5b50610861600480360381019061085c9190614eb7565b612ac3565b60405161086e9190614684565b60405180910390f35b34801561088357600080fd5b5061089e60048036038101906108999190614b99565b612b57565b005b3480156108ac57600080fd5b506108c760048036038101906108c29190614b99565b612bdd565b6040516108d4919061498d565b60405180910390f35b3480156108e957600080fd5b506108f2612c74565b6040516108ff9190614684565b60405180910390f35b34801561091457600080fd5b5061091d612cc8565b60405161092a919061498d565b60405180910390f35b60007f80ac58cd000000000000000000000000000000000000000000000000000000007bffffffffffffffffffffffffffffffffffffffffffffffffffffffff1916827bffffffffffffffffffffffffffffffffffffffffffffffffffffffff191614806109fe57507f5b5e139f000000000000000000000000000000000000000000000000000000007bffffffffffffffffffffffffffffffffffffffffffffffffffffffff1916827bffffffffffffffffffffffffffffffffffffffffffffffffffffffff1916145b80610a0e5750610a0d82612d20565b5b9050919050565b806000805b600e80549050811015610a625782600e8281548110610a3c57610a3b614ef7565b5b906000526020600020015403610a555760019150610a62565b8080600101915050610a1a565b506001151581151514610aaa576040517f08c379a0000000000000000000000000000000000000000000000000000000008152600401610aa190614f72565b60405180910390fd5b60106000848152602001908152602001600020600101544211610b02576040517f08c379a0000000000000000000000000000000000000000000000000000000008152600401610af990615004565b60405180910390fd5b6010600084815260200190815260200160002060030160009054906101000a900473ffffffffffffffffffffffffffffffffffffffff1673ffffffffffffffffffffffffffffffffffffffff163373ffffffffffffffffffffffffffffffffffffffff1614610ba6576040517f08c379a0000000000000000000000000000000000000000000000000000000008152600401610b9d90615096565b60405180910390fd5b60006008600085815260200190815260200160002060040160019054906101000a900473ffffffffffffffffffffffffffffffffffffffff169050610bec338583612d8a565b610bf78133866112d1565b600b60003373ffffffffffffffffffffffffffffffffffffffff1673ffffffffffffffffffffffffffffffffffffffff168152602001908152602001600020849080600181540180825580915050600190039060005260206000200160009091909190915055610c6684612d9c565b60016014600086815260200190815260200160002060006101000a81548160ff02191690831515021790555060006008600086815260200190815260200160002060040160006101000a81548160ff021916908315150217905550336008600086815260200190815260200160002060040160016101000a81548173ffffffffffffffffffffffffffffffffffffffff021916908373ffffffffffffffffffffffffffffffffffffffff16021790555062093a8042610d2591906150e5565b6008600086815260200190815260200160002060050181905550833373ffffffffffffffffffffffffffffffffffffffff167ffb6da6529a29c2568f7d1b5d6b5362e86e76af5bc2f26f8fd16a0a3f6033674760405160405180910390a350505050565b610d91612eab565b806000805b600e80549050811015610dde5782600e8281548110610db857610db7614ef7565b5b906000526020600020015403610dd15760019150610dde565b8080600101915050610d96565b506001151581151514610e26576040517f08c379a0000000000000000000000000000000000000000000000000000000008152600401610e1d90614f72565b60405180910390fd5b60405180608001604052804281526020016201518042610e4691906150e5565b815260200160008152602001600073ffffffffffffffffffffffffffffffffffffffff168152506010600085815260200190815260200160002060008201518160000155602082015181600101556040820151816002015560608201518160030160006101000a81548173ffffffffffffffffffffffffffffffffffffffff021916908373ffffffffffffffffffffffffffffffffffffffff16021790555090505060016011600085815260200190815260200160002060006101000a81548160ff021916908315150217905550826201518042610f2491906150e5565b427fd33c12a3372418f7b06f63be116326b11627b211b3f7a5ae9392ec7da75f0bea60405160405180910390a4505050565b606060008054610f6590615148565b80601f0160208091040260200160405190810160405280929190818152602001828054610f9190615148565b8015610fde5780601f10610fb357610100808354040283529160200191610fde565b820191906000526020600020905b815481529060010190602001808311610fc157829003601f168201915b5050505050905090565b6000610ff382612f32565b50610ffd82612fba565b9050919050565b6110168282611011612ff7565b612d8a565b5050565b60096020528060005260406000206000915054906101000a900460ff1681565b611042612eab565b60008060005b600f805490508110156110905783600f828154811061106a57611069614ef7565b5b9060005260206000200154036110835760019250611090565b8080600101915050611048565b5060086000848152602001908152602001600020600501544211156110b457600190505b60011515821515146110fb576040517f08c379a00000000000000000000000000000000000000000000000000000000081526004016110f2906151c5565b60405180910390fd5b6001151581151514611142576040517f08c379a000000000000000000000000000000000000000000000000000000000815260040161113990615257565b60405180910390fd5b60006008600085815260200190815260200160002060040160019054906101000a900473ffffffffffffffffffffffffffffffffffffffff1690506111878482612fff565b611192338583612d8a565b61119d8133866112d1565b60016008600086815260200190815260200160002060040160006101000a81548160ff021916908315150217905550336008600086815260200190815260200160002060040160016101000a81548173ffffffffffffffffffffffffffffffffffffffff021916908373ffffffffffffffffffffffffffffffffffffffff1602179055506000600860008681526020019081526020016000206005018190555060016009600086815260200190815260200160002060006101000a81548160ff02191690831515021790555060006011600086815260200190815260200160002060006101000a81548160ff02191690831515021790555061129e84613254565b837f0c29f50c56a065d12888b21481ad9cf89fbe06c5e961884ed5d26bb5e2ecb31e60405160405180910390a250505050565b6112dc838383613363565b816008600083815260200190815260200160002060040160016101000a81548173ffffffffffffffffffffffffffffffffffffffff021916908373ffffffffffffffffffffffffffffffffffffffff1602179055508173ffffffffffffffffffffffffffffffffffffffff168373ffffffffffffffffffffffffffffffffffffffff167fcd8b38cefcfe1ddd69acc0c4a3b72838681981b18de8d5f5ad85aada541b1ee08360405161138e9190614b7e565b60405180910390a3505050565b6060600c8054806020026020016040519081016040528092919081815260200182805480156113e957602002820191906000526020600020905b8154815260200190600101908083116113d5575b5050505050905090565b6060600f80548060200260200160405190810160405280929190818152602001828054801561144157602002820191906000526020600020905b81548152602001906001019080831161142d575b5050505050905090565b611453612eab565b6040518060e00160405280848152602001838152602001828152602001600081526020016001151581526020013373ffffffffffffffffffffffffffffffffffffffff1681526020016000815250600860008581526020019081526020016000206000820151816000015560208201518160010190816114d39190615423565b5060408201518160020190816114e99190615423565b506060820151816003015560808201518160040160006101000a81548160ff02191690831515021790555060a08201518160040160016101000a81548173ffffffffffffffffffffffffffffffffffffffff021916908373ffffffffffffffffffffffffffffffffffffffff16021790555060c0820151816005015590505060016009600085815260200190815260200160002060006101000a81548160ff021916908315150217905550600e8390806001815401808255809150506001900390600052602060002001600090919091909150556115c73384613465565b806040516115d59190615531565b6040518091039020826040516115eb9190615531565b60405180910390207f3b2424469d2a0fa3ed7b7ced5fe8369bf96eeb17f49cca9f28e25e383a4f187260405160405180910390a3505050565b61163f83838360405180602001604052806000815250612629565b505050565b6010600082815260200190815260200160002060010154421161169c576040517f08c379a000000000000000000000000000000000000000000000000000000000815260040161169390615004565b60405180910390fd5b6000805b600f805490508110156116e85782600f82815481106116c2576116c1614ef7565b5b9060005260206000200154036116db57600191506116e8565b80806001019150506116a0565b506001151581151514611730576040517f08c379a0000000000000000000000000000000000000000000000000000000008152600401611727906155ba565b60405180910390fd5b6010600083815260200190815260200160002060030160009054906101000a900473ffffffffffffffffffffffffffffffffffffffff1673ffffffffffffffffffffffffffffffffffffffff163373ffffffffffffffffffffffffffffffffffffffff16036117d4576040517f08c379a00000000000000000000000000000000000000000000000000000000081526004016117cb9061564c565b60405180910390fd5b60001515601560003373ffffffffffffffffffffffffffffffffffffffff1673ffffffffffffffffffffffffffffffffffffffff16815260200190815260200160002060009054906101000a900460ff16151514611867576040517f08c379a000000000000000000000000000000000000000000000000000000000815260040161185e906156b8565b60405180910390fd5b60006013600084815260200190815260200160002054905060005b818110156119e8573373ffffffffffffffffffffffffffffffffffffffff166012600086815260200190815260200160002060010182815481106118c9576118c8614ef7565b5b9060005260206000200160009054906101000a900473ffffffffffffffffffffffffffffffffffffffff1673ffffffffffffffffffffffffffffffffffffffff16036119db5760126000858152602001908152602001600020600101818154811061193757611936614ef7565b5b9060005260206000200160009054906101000a900473ffffffffffffffffffffffffffffffffffffffff1673ffffffffffffffffffffffffffffffffffffffff166108fc6012600087815260200190815260200160002060000183815481106119a3576119a2614ef7565b5b90600052602060002001549081150290604051600060405180830381858888f193505050501580156119d9573d6000803e3d6000fd5b505b8080600101915050611882565b506001601560003373ffffffffffffffffffffffffffffffffffffffff1673ffffffffffffffffffffffffffffffffffffffff16815260200190815260200160002060006101000a81548160ff021916908315150217905550505050565b6000611a5182612f32565b9050919050565b806000805b600e80549050811015611aa55782600e8281548110611a7f57611a7e614ef7565b5b906000526020600020015403611a985760019150611aa5565b8080600101915050611a5d565b506001151581151514611aed576040517f08c379a0000000000000000000000000000000000000000000000000000000008152600401611ae490614f72565b60405180910390fd5b600015156011600085815260200190815260200160002060009054906101000a900460ff16151503611b54576040517f08c379a0000000000000000000000000000000000000000000000000000000008152600401611b4b90615724565b60405180910390fd5b6010600084815260200190815260200160002060010154421115611bad576040517f08c379a0000000000000000000000000000000000000000000000000000000008152600401611ba490615790565b60405180910390fd5b60106000848152602001908152602001600020600201543411611c05576040517f08c379a0000000000000000000000000000000000000000000000000000000008152600401611bfc90615822565b60405180910390fd5b346010600085815260200190815260200160002060020181905550336010600085815260200190815260200160002060030160006101000a81548173ffffffffffffffffffffffffffffffffffffffff021916908373ffffffffffffffffffffffffffffffffffffffff1602179055506001601360008581526020019081526020016000206000828254611c9991906150e5565b925050819055506012600084815260200190815260200160002060000134908060018154018082558091505060019003906000526020600020016000909190919091505560126000848152602001908152602001600020600101339080600181540180825580915050600190039060005260206000200160009091909190916101000a81548173ffffffffffffffffffffffffffffffffffffffff021916908373ffffffffffffffffffffffffffffffffffffffff160217905550343373ffffffffffffffffffffffffffffffffffffffff167f76912359278d85616acb8be84e6b72dc8321620577ed8bd86baa31cf6493df0060405160405180910390a3505050565b600042905090565b60008073ffffffffffffffffffffffffffffffffffffffff168273ffffffffffffffffffffffffffffffffffffffff1603611e185760006040517f89c62b64000000000000000000000000000000000000000000000000000000008152600401611e0f91906147f5565b60405180910390fd5b600360008373ffffffffffffffffffffffffffffffffffffffff1673ffffffffffffffffffffffffffffffffffffffff168152602001908152602001600020549050919050565b6060600b60008373ffffffffffffffffffffffffffffffffffffffff1673ffffffffffffffffffffffffffffffffffffffff168152602001908152602001600020805480602002602001604051908101604052809291908181526020018280548015611eea57602002820191906000526020600020905b815481526020019060010190808311611ed6575b50505050509050919050565b611efe612eab565b611f086000613483565b565b6060600e805480602002602001604051908101604052809291908181526020018280548015611f5857602002820191906000526020600020905b815481526020019060010190808311611f44575b5050505050905090565b60008080600090505b600c80549050811015611fb65783600c8281548110611f8d57611f8c614ef7565b5b906000526020600020015403611fa95760019250809150611fb6565b8080600101915050611f6b565b5060006008600085815260200190815260200160002060030154905060006008600086815260200190815260200160002060040160019054906101000a900473ffffffffffffffffffffffffffffffffffffffff1690506001151584151514612054576040517f08c379a000000000000000000000000000000000000000000000000000000000815260040161204b906151c5565b60405180910390fd5b600760009054906101000a900473ffffffffffffffffffffffffffffffffffffffff1673ffffffffffffffffffffffffffffffffffffffff166008600087815260200190815260200160002060040160019054906101000a900473ffffffffffffffffffffffffffffffffffffffff1673ffffffffffffffffffffffffffffffffffffffff161461211a576040517f08c379a0000000000000000000000000000000000000000000000000000000008152600401612111906158b4565b60405180910390fd5b8134101561215d576040517f08c379a000000000000000000000000000000000000000000000000000000000815260040161215490615946565b60405180910390fd5b612168338683612d8a565b6121738133876112d1565b60006008600087815260200190815260200160002060040160006101000a81548160ff021916908315150217905550336008600087815260200190815260200160002060040160016101000a81548173ffffffffffffffffffffffffffffffffffffffff021916908373ffffffffffffffffffffffffffffffffffffffff160217905550603c4261220491906150e5565b600860008781526020019081526020016000206005018190555060006009600087815260200190815260200160002060006101000a81548160ff021916908315150217905550600a60003373ffffffffffffffffffffffffffffffffffffffff1673ffffffffffffffffffffffffffffffffffffffff1681526020019081526020016000208590806001815401808255809150506001900390600052602060002001600090919091909150556122b985613549565b3373ffffffffffffffffffffffffffffffffffffffff16857f112e4af3852d711647537c1b0427246ba66a8a586c3f5bea0cc09fd81b8bb23060405160405180910390a35050505050565b60006014600083815260200190815260200160002060009054906101000a900460ff169050919050565b6000600660009054906101000a900473ffffffffffffffffffffffffffffffffffffffff16905090565b60606001805461236790615148565b80601f016020809104026020016040519081016040528092919081815260200182805461239390615148565b80156123e05780601f106123b5576101008083540402835291602001916123e0565b820191906000526020600020905b8154815290600101906020018083116123c357829003601f168201915b5050505050905090565b60106020528060005260406000206000915090508060000154908060010154908060020154908060030160009054906101000a900473ffffffffffffffffffffffffffffffffffffffff16905084565b61244c612445612ff7565b8383613658565b5050565b612458612eab565b6040518060e001604052808581526020018481526020018381526020018281526020016001151581526020013373ffffffffffffffffffffffffffffffffffffffff1681526020016000815250600860008681526020019081526020016000206000820151816000015560208201518160010190816124d79190615423565b5060408201518160020190816124ed9190615423565b506060820151816003015560808201518160040160006101000a81548160ff02191690831515021790555060a08201518160040160016101000a81548173ffffffffffffffffffffffffffffffffffffffff021916908373ffffffffffffffffffffffffffffffffffffffff16021790555060c0820151816005015590505060016009600086815260200190815260200160002060006101000a81548160ff021916908315150217905550600c8490806001815401808255809150506001900390600052602060002001600090919091909150556125cb3385613465565b816040516125d99190615531565b6040518091039020836040516125ef9190615531565b60405180910390207f927de78391648190e6dff178494499568a6f07d6a22bda10eb10a944b73f450e60405160405180910390a350505050565b6126348484846112d1565b612640848484846137c7565b50505050565b600860205280600052604060002060009150905080600001549080600101805461266f90615148565b80601f016020809104026020016040519081016040528092919081815260200182805461269b90615148565b80156126e85780601f106126bd576101008083540402835291602001916126e8565b820191906000526020600020905b8154815290600101906020018083116126cb57829003601f168201915b5050505050908060020180546126fd90615148565b80601f016020809104026020016040519081016040528092919081815260200182805461272990615148565b80156127765780601f1061274b57610100808354040283529160200191612776565b820191906000526020600020905b81548152906001019060200180831161275957829003601f168201915b5050505050908060030154908060040160009054906101000a900460ff16908060040160019054906101000a900473ffffffffffffffffffffffffffffffffffffffff16908060050154905087565b60006011600083815260200190815260200160002060009054906101000a900460ff169050919050565b60606127fa82612f32565b50600061280561397e565b905060008151116128255760405180602001604052806000815250612850565b8061282f84613995565b604051602001612840929190615966565b6040516020818303038152906040525b915050919050565b612860612eab565b60008060005b600d805490508110156128ae5783600d828154811061288857612887614ef7565b5b9060005260206000200154036128a157600192506128ae565b8080600101915050612866565b5060086000848152602001908152602001600020600501544211156128d257600190505b6001151582151514612919576040517f08c379a0000000000000000000000000000000000000000000000000000000008152600401612910906151c5565b60405180910390fd5b6001151581151514612960576040517f08c379a000000000000000000000000000000000000000000000000000000000815260040161295790615257565b60405180910390fd5b60006008600085815260200190815260200160002060040160019054906101000a900473ffffffffffffffffffffffffffffffffffffffff1690506129a58482613a63565b6129b0338583612d8a565b6129bb8133866112d1565b60016008600086815260200190815260200160002060040160006101000a81548160ff021916908315150217905550336008600086815260200190815260200160002060040160016101000a81548173ffffffffffffffffffffffffffffffffffffffff021916908373ffffffffffffffffffffffffffffffffffffffff1602179055506000600860008681526020019081526020016000206005018190555060016009600086815260200190815260200160002060006101000a81548160ff021916908315150217905550612a9084613cb8565b837f0c29f50c56a065d12888b21481ad9cf89fbe06c5e961884ed5d26bb5e2ecb31e60405160405180910390a250505050565b6000600560008473ffffffffffffffffffffffffffffffffffffffff1673ffffffffffffffffffffffffffffffffffffffff16815260200190815260200160002060008373ffffffffffffffffffffffffffffffffffffffff1673ffffffffffffffffffffffffffffffffffffffff16815260200190815260200160002060009054906101000a900460ff16905092915050565b612b5f612eab565b600073ffffffffffffffffffffffffffffffffffffffff168173ffffffffffffffffffffffffffffffffffffffff1603612bd15760006040517f1e4fbdf7000000000000000000000000000000000000000000000000000000008152600401612bc891906147f5565b60405180910390fd5b612bda81613483565b50565b6060600a60008373ffffffffffffffffffffffffffffffffffffffff1673ffffffffffffffffffffffffffffffffffffffff168152602001908152602001600020805480602002602001604051908101604052809291908181526020018280548015612c6857602002820191906000526020600020905b815481526020019060010190808311612c54575b50505050509050919050565b6000601560003373ffffffffffffffffffffffffffffffffffffffff1673ffffffffffffffffffffffffffffffffffffffff16815260200190815260200160002060009054906101000a900460ff16905090565b6060600d805480602002602001604051908101604052809291908181526020018280548015612d1657602002820191906000526020600020905b815481526020019060010190808311612d02575b5050505050905090565b60007f01ffc9a7000000000000000000000000000000000000000000000000000000007bffffffffffffffffffffffffffffffffffffffffffffffffffffffff1916827bffffffffffffffffffffffffffffffffffffffffffffffffffffffff1916149050919050565b612d978383836001613dc7565b505050565b6000806000905060005b600e80549050811015612df15783600e8281548110612dc857612dc7614ef7565b5b906000526020600020015403612de45780925060019150612df1565b8080600101915050612da6565b506001151581151514612e0357600080fd5b600e6001600e80549050612e17919061598a565b81548110612e2857612e27614ef7565b5b9060005260206000200154600e8381548110612e4757612e46614ef7565b5b9060005260206000200181905550600e805480612e6757612e666159be565b5b60019003818190600052602060002001600090559055600f839080600181540180825580915050600190039060005260206000200160009091909190915055505050565b612eb3612ff7565b73ffffffffffffffffffffffffffffffffffffffff16612ed161232e565b73ffffffffffffffffffffffffffffffffffffffff1614612f3057612ef4612ff7565b6040517f118cdaa7000000000000000000000000000000000000000000000000000000008152600401612f2791906147f5565b60405180910390fd5b565b600080612f3e83613f8c565b9050600073ffffffffffffffffffffffffffffffffffffffff168173ffffffffffffffffffffffffffffffffffffffff1603612fb157826040517f7e273289000000000000000000000000000000000000000000000000000000008152600401612fa89190614b7e565b60405180910390fd5b80915050919050565b60006004600083815260200190815260200160002060009054906101000a900473ffffffffffffffffffffffffffffffffffffffff169050919050565b600033905090565b6000806000905060005b600b60008573ffffffffffffffffffffffffffffffffffffffff1673ffffffffffffffffffffffffffffffffffffffff168152602001908152602001600020805490508110156130ce5784600b60008673ffffffffffffffffffffffffffffffffffffffff1673ffffffffffffffffffffffffffffffffffffffff16815260200190815260200160002082815481106130a5576130a4614ef7565b5b9060005260206000200154036130c157809250600191506130ce565b8080600101915050613009565b5060011515811515146130e057600080fd5b600b60008473ffffffffffffffffffffffffffffffffffffffff1673ffffffffffffffffffffffffffffffffffffffff1681526020019081526020016000206001600b60008673ffffffffffffffffffffffffffffffffffffffff1673ffffffffffffffffffffffffffffffffffffffff1681526020019081526020016000208054905061316e919061598a565b8154811061317f5761317e614ef7565b5b9060005260206000200154600b60008573ffffffffffffffffffffffffffffffffffffffff1673ffffffffffffffffffffffffffffffffffffffff16815260200190815260200160002083815481106131db576131da614ef7565b5b9060005260206000200181905550600b60008473ffffffffffffffffffffffffffffffffffffffff1673ffffffffffffffffffffffffffffffffffffffff168152602001908152602001600020805480613238576132376159be565b5b6001900381819060005260206000200160009055905550505050565b6000806000905060005b600f805490508110156132a95783600f82815481106132805761327f614ef7565b5b90600052602060002001540361329c57809250600191506132a9565b808060010191505061325e565b5060011515811515146132bb57600080fd5b600f6001600f805490506132cf919061598a565b815481106132e0576132df614ef7565b5b9060005260206000200154600f83815481106132ff576132fe614ef7565b5b9060005260206000200181905550600f80548061331f5761331e6159be565b5b60019003818190600052602060002001600090559055600e839080600181540180825580915050600190039060005260206000200160009091909190915055505050565b600073ffffffffffffffffffffffffffffffffffffffff168273ffffffffffffffffffffffffffffffffffffffff16036133d55760006040517f64a0ae920000000000000000000000000000000000000000000000000000000081526004016133cc91906147f5565b60405180910390fd5b60006133e983836133e4612ff7565b613fc9565b90508373ffffffffffffffffffffffffffffffffffffffff168173ffffffffffffffffffffffffffffffffffffffff161461345f578382826040517f64283d7b000000000000000000000000000000000000000000000000000000008152600401613456939291906159ed565b60405180910390fd5b50505050565b61347f8282604051806020016040528060008152506141e3565b5050565b6000600660009054906101000a900473ffffffffffffffffffffffffffffffffffffffff16905081600660006101000a81548173ffffffffffffffffffffffffffffffffffffffff021916908373ffffffffffffffffffffffffffffffffffffffff1602179055508173ffffffffffffffffffffffffffffffffffffffff168173ffffffffffffffffffffffffffffffffffffffff167f8be0079c531659141344cd1fd0a4f28419497f9722a3daafe3b4186f6b6457e060405160405180910390a35050565b6000806000905060005b600c8054905081101561359e5783600c828154811061357557613574614ef7565b5b906000526020600020015403613591578092506001915061359e565b8080600101915050613553565b5060011515811515146135b057600080fd5b600c6001600c805490506135c4919061598a565b815481106135d5576135d4614ef7565b5b9060005260206000200154600c83815481106135f4576135f3614ef7565b5b9060005260206000200181905550600c805480613614576136136159be565b5b60019003818190600052602060002001600090559055600d839080600181540180825580915050600190039060005260206000200160009091909190915055505050565b600073ffffffffffffffffffffffffffffffffffffffff168273ffffffffffffffffffffffffffffffffffffffff16036136c957816040517f5b08ba180000000000000000000000000000000000000000000000000000000081526004016136c091906147f5565b60405180910390fd5b80600560008573ffffffffffffffffffffffffffffffffffffffff1673ffffffffffffffffffffffffffffffffffffffff16815260200190815260200160002060008473ffffffffffffffffffffffffffffffffffffffff1673ffffffffffffffffffffffffffffffffffffffff16815260200190815260200160002060006101000a81548160ff0219169083151502179055508173ffffffffffffffffffffffffffffffffffffffff168373ffffffffffffffffffffffffffffffffffffffff167f17307eab39ab6107e8899845ad3d59bd9653f200f220920489ca2b5937696c31836040516137ba9190614684565b60405180910390a3505050565b60008373ffffffffffffffffffffffffffffffffffffffff163b1115613978578273ffffffffffffffffffffffffffffffffffffffff1663150b7a0261380b612ff7565b8685856040518563ffffffff1660e01b815260040161382d9493929190615a79565b6020604051808303816000875af192505050801561386957506040513d601f19601f820116820180604052508101906138669190615ada565b60015b6138ed573d8060008114613899576040519150601f19603f3d011682016040523d82523d6000602084013e61389e565b606091505b5060008151036138e557836040517f64a0ae920000000000000000000000000000000000000000000000000000000081526004016138dc91906147f5565b60405180910390fd5b805181602001fd5b63150b7a0260e01b7bffffffffffffffffffffffffffffffffffffffffffffffffffffffff1916817bffffffffffffffffffffffffffffffffffffffffffffffffffffffff19161461397657836040517f64a0ae9200000000000000000000000000000000000000000000000000000000815260040161396d91906147f5565b60405180910390fd5b505b50505050565b606060405180602001604052806000815250905090565b6060600060016139a4846141ff565b01905060008167ffffffffffffffff8111156139c3576139c26149b9565b5b6040519080825280601f01601f1916602001820160405280156139f55781602001600182028036833780820191505090505b509050600082602001820190505b600115613a58578080600190039150507f3031323334353637383961626364656600000000000000000000000000000000600a86061a8153600a8581613a4c57613a4b615b07565b5b04945060008503613a03575b819350505050919050565b6000806000905060005b600a60008573ffffffffffffffffffffffffffffffffffffffff1673ffffffffffffffffffffffffffffffffffffffff16815260200190815260200160002080549050811015613b325784600a60008673ffffffffffffffffffffffffffffffffffffffff1673ffffffffffffffffffffffffffffffffffffffff1681526020019081526020016000208281548110613b0957613b08614ef7565b5b906000526020600020015403613b255780925060019150613b32565b8080600101915050613a6d565b506001151581151514613b4457600080fd5b600a60008473ffffffffffffffffffffffffffffffffffffffff1673ffffffffffffffffffffffffffffffffffffffff1681526020019081526020016000206001600a60008673ffffffffffffffffffffffffffffffffffffffff1673ffffffffffffffffffffffffffffffffffffffff16815260200190815260200160002080549050613bd2919061598a565b81548110613be357613be2614ef7565b5b9060005260206000200154600a60008573ffffffffffffffffffffffffffffffffffffffff1673ffffffffffffffffffffffffffffffffffffffff1681526020019081526020016000208381548110613c3f57613c3e614ef7565b5b9060005260206000200181905550600a60008473ffffffffffffffffffffffffffffffffffffffff1673ffffffffffffffffffffffffffffffffffffffff168152602001908152602001600020805480613c9c57613c9b6159be565b5b6001900381819060005260206000200160009055905550505050565b6000806000905060005b600d80549050811015613d0d5783600d8281548110613ce457613ce3614ef7565b5b906000526020600020015403613d005780925060019150613d0d565b8080600101915050613cc2565b506001151581151514613d1f57600080fd5b600d6001600d80549050613d33919061598a565b81548110613d4457613d43614ef7565b5b9060005260206000200154600d8381548110613d6357613d62614ef7565b5b9060005260206000200181905550600d805480613d8357613d826159be565b5b60019003818190600052602060002001600090559055600c839080600181540180825580915050600190039060005260206000200160009091909190915055505050565b8080613e005750600073ffffffffffffffffffffffffffffffffffffffff168273ffffffffffffffffffffffffffffffffffffffff1614155b15613f34576000613e1084612f32565b9050600073ffffffffffffffffffffffffffffffffffffffff168373ffffffffffffffffffffffffffffffffffffffff1614158015613e7b57508273ffffffffffffffffffffffffffffffffffffffff168173ffffffffffffffffffffffffffffffffffffffff1614155b8015613e8e5750613e8c8184612ac3565b155b15613ed057826040517fa9fbf51f000000000000000000000000000000000000000000000000000000008152600401613ec791906147f5565b60405180910390fd5b8115613f3257838573ffffffffffffffffffffffffffffffffffffffff168273ffffffffffffffffffffffffffffffffffffffff167f8c5be1e5ebec7d5bd14f71427d1e84f3dd0314c0f7b2291e5b200ac8c7c3b92560405160405180910390a45b505b836004600085815260200190815260200160002060006101000a81548173ffffffffffffffffffffffffffffffffffffffff021916908373ffffffffffffffffffffffffffffffffffffffff16021790555050505050565b60006002600083815260200190815260200160002060009054906101000a900473ffffffffffffffffffffffffffffffffffffffff169050919050565b600080613fd584613f8c565b9050600073ffffffffffffffffffffffffffffffffffffffff168373ffffffffffffffffffffffffffffffffffffffff161461401757614016818486614352565b5b600073ffffffffffffffffffffffffffffffffffffffff168173ffffffffffffffffffffffffffffffffffffffff16146140a857614059600085600080613dc7565b6001600360008373ffffffffffffffffffffffffffffffffffffffff1673ffffffffffffffffffffffffffffffffffffffff168152602001908152602001600020600082825403925050819055505b600073ffffffffffffffffffffffffffffffffffffffff168573ffffffffffffffffffffffffffffffffffffffff161461412b576001600360008773ffffffffffffffffffffffffffffffffffffffff1673ffffffffffffffffffffffffffffffffffffffff168152602001908152602001600020600082825401925050819055505b846002600086815260200190815260200160002060006101000a81548173ffffffffffffffffffffffffffffffffffffffff021916908373ffffffffffffffffffffffffffffffffffffffff160217905550838573ffffffffffffffffffffffffffffffffffffffff168273ffffffffffffffffffffffffffffffffffffffff167fddf252ad1be2c89b69c2b068fc378daa952ba7f163c4a11628f55a4df523b3ef60405160405180910390a4809150509392505050565b6141ed8383614416565b6141fa60008484846137c7565b505050565b600080600090507a184f03e93ff9f4daa797ed6e38ed64bf6a1f010000000000000000831061425d577a184f03e93ff9f4daa797ed6e38ed64bf6a1f010000000000000000838161425357614252615b07565b5b0492506040810190505b6d04ee2d6d415b85acef8100000000831061429a576d04ee2d6d415b85acef810000000083816142905761428f615b07565b5b0492506020810190505b662386f26fc1000083106142c957662386f26fc1000083816142bf576142be615b07565b5b0492506010810190505b6305f5e10083106142f2576305f5e10083816142e8576142e7615b07565b5b0492506008810190505b612710831061431757612710838161430d5761430c615b07565b5b0492506004810190505b6064831061433a57606483816143305761432f615b07565b5b0492506002810190505b600a8310614349576001810190505b80915050919050565b61435d83838361450f565b61441157600073ffffffffffffffffffffffffffffffffffffffff168373ffffffffffffffffffffffffffffffffffffffff16036143d257806040517f7e2732890000000000000000000000000000000000000000000000000000000081526004016143c99190614b7e565b60405180910390fd5b81816040517f177e802f000000000000000000000000000000000000000000000000000000008152600401614408929190615b36565b60405180910390fd5b505050565b600073ffffffffffffffffffffffffffffffffffffffff168273ffffffffffffffffffffffffffffffffffffffff16036144885760006040517f64a0ae9200000000000000000000000000000000000000000000000000000000815260040161447f91906147f5565b60405180910390fd5b600061449683836000613fc9565b9050600073ffffffffffffffffffffffffffffffffffffffff168173ffffffffffffffffffffffffffffffffffffffff161461450a5760006040517f73c6ac6e00000000000000000000000000000000000000000000000000000000815260040161450191906147f5565b60405180910390fd5b505050565b60008073ffffffffffffffffffffffffffffffffffffffff168373ffffffffffffffffffffffffffffffffffffffff16141580156145c757508273ffffffffffffffffffffffffffffffffffffffff168473ffffffffffffffffffffffffffffffffffffffff16148061458857506145878484612ac3565b5b806145c657508273ffffffffffffffffffffffffffffffffffffffff166145ae83612fba565b73ffffffffffffffffffffffffffffffffffffffff16145b5b90509392505050565b6000604051905090565b600080fd5b600080fd5b60007fffffffff0000000000000000000000000000000000000000000000000000000082169050919050565b614619816145e4565b811461462457600080fd5b50565b60008135905061463681614610565b92915050565b600060208284031215614652576146516145da565b5b600061466084828501614627565b91505092915050565b60008115159050919050565b61467e81614669565b82525050565b60006020820190506146996000830184614675565b92915050565b6000819050919050565b6146b28161469f565b81146146bd57600080fd5b50565b6000813590506146cf816146a9565b92915050565b6000602082840312156146eb576146ea6145da565b5b60006146f9848285016146c0565b91505092915050565b600081519050919050565b600082825260208201905092915050565b60005b8381101561473c578082015181840152602081019050614721565b60008484015250505050565b6000601f19601f8301169050919050565b600061476482614702565b61476e818561470d565b935061477e81856020860161471e565b61478781614748565b840191505092915050565b600060208201905081810360008301526147ac8184614759565b905092915050565b600073ffffffffffffffffffffffffffffffffffffffff82169050919050565b60006147df826147b4565b9050919050565b6147ef816147d4565b82525050565b600060208201905061480a60008301846147e6565b92915050565b614819816147d4565b811461482457600080fd5b50565b60008135905061483681614810565b92915050565b60008060408385031215614853576148526145da565b5b600061486185828601614827565b9250506020614872858286016146c0565b9150509250929050565b600080600060608486031215614895576148946145da565b5b60006148a386828701614827565b93505060206148b486828701614827565b92505060406148c5868287016146c0565b9150509250925092565b600081519050919050565b600082825260208201905092915050565b6000819050602082019050919050565b6149048161469f565b82525050565b600061491683836148fb565b60208301905092915050565b6000602082019050919050565b600061493a826148cf565b61494481856148da565b935061494f836148eb565b8060005b83811015614980578151614967888261490a565b975061497283614922565b925050600181019050614953565b5085935050505092915050565b600060208201905081810360008301526149a7818461492f565b905092915050565b600080fd5b600080fd5b7f4e487b7100000000000000000000000000000000000000000000000000000000600052604160045260246000fd5b6149f182614748565b810181811067ffffffffffffffff82111715614a1057614a0f6149b9565b5b80604052505050565b6000614a236145d0565b9050614a2f82826149e8565b919050565b600067ffffffffffffffff821115614a4f57614a4e6149b9565b5b614a5882614748565b9050602081019050919050565b82818337600083830152505050565b6000614a87614a8284614a34565b614a19565b905082815260208101848484011115614aa357614aa26149b4565b5b614aae848285614a65565b509392505050565b600082601f830112614acb57614aca6149af565b5b8135614adb848260208601614a74565b91505092915050565b600080600060608486031215614afd57614afc6145da565b5b6000614b0b868287016146c0565b935050602084013567ffffffffffffffff811115614b2c57614b2b6145df565b5b614b3886828701614ab6565b925050604084013567ffffffffffffffff811115614b5957614b586145df565b5b614b6586828701614ab6565b9150509250925092565b614b788161469f565b82525050565b6000602082019050614b936000830184614b6f565b92915050565b600060208284031215614baf57614bae6145da565b5b6000614bbd84828501614827565b91505092915050565b6000608082019050614bdb6000830187614b6f565b614be86020830186614b6f565b614bf56040830185614b6f565b614c0260608301846147e6565b95945050505050565b614c1481614669565b8114614c1f57600080fd5b50565b600081359050614c3181614c0b565b92915050565b60008060408385031215614c4e57614c4d6145da565b5b6000614c5c85828601614827565b9250506020614c6d85828601614c22565b9150509250929050565b60008060008060808587031215614c9157614c906145da565b5b6000614c9f878288016146c0565b945050602085013567ffffffffffffffff811115614cc057614cbf6145df565b5b614ccc87828801614ab6565b935050604085013567ffffffffffffffff811115614ced57614cec6145df565b5b614cf987828801614ab6565b9250506060614d0a878288016146c0565b91505092959194509250565b600067ffffffffffffffff821115614d3157614d306149b9565b5b614d3a82614748565b9050602081019050919050565b6000614d5a614d5584614d16565b614a19565b905082815260208101848484011115614d7657614d756149b4565b5b614d81848285614a65565b509392505050565b600082601f830112614d9e57614d9d6149af565b5b8135614dae848260208601614d47565b91505092915050565b60008060008060808587031215614dd157614dd06145da565b5b6000614ddf87828801614827565b9450506020614df087828801614827565b9350506040614e01878288016146c0565b925050606085013567ffffffffffffffff811115614e2257614e216145df565b5b614e2e87828801614d89565b91505092959194509250565b600060e082019050614e4f600083018a614b6f565b8181036020830152614e618189614759565b90508181036040830152614e758188614759565b9050614e846060830187614b6f565b614e916080830186614675565b614e9e60a08301856147e6565b614eab60c0830184614b6f565b98975050505050505050565b60008060408385031215614ece57614ecd6145da565b5b6000614edc85828601614827565b9250506020614eed85828601614827565b9150509250929050565b7f4e487b7100000000000000000000000000000000000000000000000000000000600052603260045260246000fd5b7f4964206f66207468652076656869636c6520646f65736e277420666f756e6400600082015250565b6000614f5c601f8361470d565b9150614f6782614f26565b602082019050919050565b60006020820190508181036000830152614f8b81614f4f565b9050919050565b7f41756374696f6e20666f7220746869732076656869636c65206861736e27742060008201527f66696e6973686564000000000000000000000000000000000000000000000000602082015250565b6000614fee60288361470d565b9150614ff982614f92565b604082019050919050565b6000602082019050818103600083015261501d81614fe1565b9050919050565b7f4f6e6c79207468652077696e6e6572206f66207468652061756374696f6e206360008201527f616e207769746864726177616c73000000000000000000000000000000000000602082015250565b6000615080602e8361470d565b915061508b82615024565b604082019050919050565b600060208201905081810360008301526150af81615073565b9050919050565b7f4e487b7100000000000000000000000000000000000000000000000000000000600052601160045260246000fd5b60006150f08261469f565b91506150fb8361469f565b9250828201905080821115615113576151126150b6565b5b92915050565b7f4e487b7100000000000000000000000000000000000000000000000000000000600052602260045260246000fd5b6000600282049050600182168061516057607f821691505b60208210810361517357615172615119565b5b50919050565b7f56656869636c6520646f65736e277420666f756e640000000000000000000000600082015250565b60006151af60158361470d565b91506151ba82615179565b602082019050919050565b600060208201905081810360008301526151de816151a2565b9050919050565b7f54686520737562736372697074696f6e20686173206e6f74207965742065787060008201527f6972656400000000000000000000000000000000000000000000000000000000602082015250565b600061524160248361470d565b915061524c826151e5565b604082019050919050565b6000602082019050818103600083015261527081615234565b9050919050565b60008190508160005260206000209050919050565b60006020601f8301049050919050565b600082821b905092915050565b6000600883026152d97fffffffffffffffffffffffffffffffffffffffffffffffffffffffffffffffff8261529c565b6152e3868361529c565b95508019841693508086168417925050509392505050565b6000819050919050565b600061532061531b6153168461469f565b6152fb565b61469f565b9050919050565b6000819050919050565b61533a83615305565b61534e61534682615327565b8484546152a9565b825550505050565b600090565b615363615356565b61536e818484615331565b505050565b5b818110156153925761538760008261535b565b600181019050615374565b5050565b601f8211156153d7576153a881615277565b6153b18461528c565b810160208510156153c0578190505b6153d46153cc8561528c565b830182615373565b50505b505050565b600082821c905092915050565b60006153fa600019846008026153dc565b1980831691505092915050565b600061541383836153e9565b9150826002028217905092915050565b61542c82614702565b67ffffffffffffffff811115615445576154446149b9565b5b61544f8254615148565b61545a828285615396565b600060209050601f83116001811461548d576000841561547b578287015190505b6154858582615407565b8655506154ed565b601f19841661549b86615277565b60005b828110156154c35784890151825560018201915060208501945060208101905061549e565b868310156154e057848901516154dc601f8916826153e9565b8355505b6001600288020188555050505b505050505050565b600081905092915050565b600061550b82614702565b61551581856154f5565b935061552581856020860161471e565b80840191505092915050565b600061553d8284615500565b915081905092915050565b7f506c65617365207761697420756e74696c207468652077696e6e657220636f6c60008201527f6c65637473207468652076656869636c65000000000000000000000000000000602082015250565b60006155a460318361470d565b91506155af82615548565b604082019050919050565b600060208201905081810360008301526155d381615597565b9050919050565b7f57696e6e6572206f66207468652061756374696f6e2063616e2774207265636f60008201527f7665722066756e64730000000000000000000000000000000000000000000000602082015250565b600061563660298361470d565b9150615641826155da565b604082019050919050565b6000602082019050818103600083015261566581615629565b9050919050565b7f46756e647320616c7265616479207265636f7665726564000000000000000000600082015250565b60006156a260178361470d565b91506156ad8261566c565b602082019050919050565b600060208201905081810360008301526156d181615695565b9050919050565b7f5468652061756374696f6e206861736e27742073746172746564207965740000600082015250565b600061570e601e8361470d565b9150615719826156d8565b602082019050919050565b6000602082019050818103600083015261573d81615701565b9050919050565b7f5468652061756374696f6e20686173206265656e20636c6f7365640000000000600082015250565b600061577a601b8361470d565b915061578582615744565b602082019050919050565b600060208201905081810360008301526157a98161576d565b9050919050565b7f5468652065746865722076616c756520796f752073656e64206861732062652060008201527f67726561746572207468616e207468652077696e6e696e672062696400000000602082015250565b600061580c603c8361470d565b9150615817826157b0565b604082019050919050565b6000602082019050818103600083015261583b816157ff565b9050919050565b7f5468652076656869636c652068617320616c7265616479206265656e2074616b60008201527f656e20627920616e6f7468657220757365720000000000000000000000000000602082015250565b600061589e60328361470d565b91506158a982615842565b604082019050919050565b600060208201905081810360008301526158cd81615891565b9050919050565b7f446f65736e2774206861766520656e6f7567682066756e647320746f2062757960008201527f20746869732076656869636c6500000000000000000000000000000000000000602082015250565b6000615930602d8361470d565b915061593b826158d4565b604082019050919050565b6000602082019050818103600083015261595f81615923565b9050919050565b60006159728285615500565b915061597e8284615500565b91508190509392505050565b60006159958261469f565b91506159a08361469f565b92508282039050818111156159b8576159b76150b6565b5b92915050565b7f4e487b7100000000000000000000000000000000000000000000000000000000600052603160045260246000fd5b6000606082019050615a0260008301866147e6565b615a0f6020830185614b6f565b615a1c60408301846147e6565b949350505050565b600081519050919050565b600082825260208201905092915050565b6000615a4b82615a24565b615a558185615a2f565b9350615a6581856020860161471e565b615a6e81614748565b840191505092915050565b6000608082019050615a8e60008301876147e6565b615a9b60208301866147e6565b615aa86040830185614b6f565b8181036060830152615aba8184615a40565b905095945050505050565b600081519050615ad481614610565b92915050565b600060208284031215615af057615aef6145da565b5b6000615afe84828501615ac5565b91505092915050565b7f4e487b7100000000000000000000000000000000000000000000000000000000600052601260045260246000fd5b6000604082019050615b4b60008301856147e6565b615b586020830184614b6f565b939250505056fea2646970667358221220c4b20b4363f28e48a159751277a85c5eac46aaeaf8fa3b7723ee539a4863dd2764736f6c63430008180033",
  "linkReferences": {},
  "deployedLinkReferences": {}
}