{
  "_format": "hh-sol-artifact-1",
  "contractName": "VehicleAuctions",
  "sourceName": "contracts/VehicleAuctions.sol",
  "abi": [
    {
      "inputs": [
        {
          "internalType": "string",
          "name": "_nameToken",
          "type": "string"
        },
        {
          "internalType": "string",
          "name": "_symbolToken",
          "type": "string"
        }
      ],
      "stateMutability": "nonpayable",
      "type": "constructor"
    },
    {
      "inputs": [
        {
          "internalType": "address",
          "name": "sender",
          "type": "address"
        },
        {
          "internalType": "uint256",
          "name": "tokenId",
          "type": "uint256"
        },
        {
          "internalType": "address",
          "name": "owner",
          "type": "address"
        }
      ],
      "name": "ERC721IncorrectOwner",
      "type": "error"
    },
    {
      "inputs": [
        {
          "internalType": "address",
          "name": "operator",
          "type": "address"
        },
        {
          "internalType": "uint256",
          "name": "tokenId",
          "type": "uint256"
        }
      ],
      "name": "ERC721InsufficientApproval",
      "type": "error"
    },
    {
      "inputs": [
        {
          "internalType": "address",
          "name": "approver",
          "type": "address"
        }
      ],
      "name": "ERC721InvalidApprover",
      "type": "error"
    },
    {
      "inputs": [
        {
          "internalType": "address",
          "name": "operator",
          "type": "address"
        }
      ],
      "name": "ERC721InvalidOperator",
      "type": "error"
    },
    {
      "inputs": [
        {
          "internalType": "address",
          "name": "owner",
          "type": "address"
        }
      ],
      "name": "ERC721InvalidOwner",
      "type": "error"
    },
    {
      "inputs": [
        {
          "internalType": "address",
          "name": "receiver",
          "type": "address"
        }
      ],
      "name": "ERC721InvalidReceiver",
      "type": "error"
    },
    {
      "inputs": [
        {
          "internalType": "address",
          "name": "sender",
          "type": "address"
        }
      ],
      "name": "ERC721InvalidSender",
      "type": "error"
    },
    {
      "inputs": [
        {
          "internalType": "uint256",
          "name": "tokenId",
          "type": "uint256"
        }
      ],
      "name": "ERC721NonexistentToken",
      "type": "error"
    },
    {
      "inputs": [
        {
          "internalType": "address",
          "name": "owner",
          "type": "address"
        }
      ],
      "name": "OwnableInvalidOwner",
      "type": "error"
    },
    {
      "inputs": [
        {
          "internalType": "address",
          "name": "account",
          "type": "address"
        }
      ],
      "name": "OwnableUnauthorizedAccount",
      "type": "error"
    },
    {
      "anonymous": false,
      "inputs": [
        {
          "indexed": true,
          "internalType": "address",
          "name": "owner",
          "type": "address"
        },
        {
          "indexed": true,
          "internalType": "address",
          "name": "approved",
          "type": "address"
        },
        {
          "indexed": true,
          "internalType": "uint256",
          "name": "tokenId",
          "type": "uint256"
        }
      ],
      "name": "Approval",
      "type": "event"
    },
    {
      "anonymous": false,
      "inputs": [
        {
          "indexed": true,
          "internalType": "address",
          "name": "owner",
          "type": "address"
        },
        {
          "indexed": true,
          "internalType": "address",
          "name": "operator",
          "type": "address"
        },
        {
          "indexed": false,
          "internalType": "bool",
          "name": "approved",
          "type": "bool"
        }
      ],
      "name": "ApprovalForAll",
      "type": "event"
    },
    {
      "anonymous": false,
      "inputs": [
        {
          "indexed": true,
          "internalType": "uint256",
          "name": "blockTimeStarted",
          "type": "uint256"
        },
        {
          "indexed": true,
          "internalType": "uint256",
          "name": "blockTimeWillEnd",
          "type": "uint256"
        },
        {
          "indexed": true,
          "internalType": "uint256",
          "name": "idVehicle",
          "type": "uint256"
        }
      ],
      "name": "AuctionDetails",
      "type": "event"
    },
    {
      "anonymous": false,
      "inputs": [
        {
          "indexed": true,
          "internalType": "address",
          "name": "signer",
          "type": "address"
        },
        {
          "indexed": true,
          "internalType": "uint256",
          "name": "bid",
          "type": "uint256"
        }
      ],
      "name": "AuctionOffer",
      "type": "event"
    },
    {
      "anonymous": false,
      "inputs": [
        {
          "indexed": true,
          "internalType": "string",
          "name": "name",
          "type": "string"
        },
        {
          "indexed": true,
          "internalType": "string",
          "name": "model",
          "type": "string"
        }
      ],
      "name": "NFTAuctionsVehicles",
      "type": "event"
    },
    {
      "anonymous": false,
      "inputs": [
        {
          "indexed": true,
          "internalType": "uint256",
          "name": "idVehicle",
          "type": "uint256"
        },
        {
          "indexed": true,
          "internalType": "address",
          "name": "owner",
          "type": "address"
        }
      ],
      "name": "NFTVehicleBuyed",
      "type": "event"
    },
    {
      "anonymous": false,
      "inputs": [
        {
          "indexed": true,
          "internalType": "string",
          "name": "name",
          "type": "string"
        },
        {
          "indexed": true,
          "internalType": "string",
          "name": "model",
          "type": "string"
        }
      ],
      "name": "NFTVehicleCreated",
      "type": "event"
    },
    {
      "anonymous": false,
      "inputs": [
        {
          "indexed": false,
          "internalType": "uint256",
          "name": "idVehicle",
          "type": "uint256"
        },
        {
          "indexed": true,
          "internalType": "address",
          "name": "from",
          "type": "address"
        },
        {
          "indexed": true,
          "internalType": "address",
          "name": "to",
          "type": "address"
        }
      ],
      "name": "NFTVehicleTransferred",
      "type": "event"
    },
    {
      "anonymous": false,
      "inputs": [
        {
          "indexed": true,
          "internalType": "address",
          "name": "previousOwner",
          "type": "address"
        },
        {
          "indexed": true,
          "internalType": "address",
          "name": "newOwner",
          "type": "address"
        }
      ],
      "name": "OwnershipTransferred",
      "type": "event"
    },
    {
      "anonymous": false,
      "inputs": [
        {
          "indexed": true,
          "internalType": "address",
          "name": "from",
          "type": "address"
        },
        {
          "indexed": true,
          "internalType": "address",
          "name": "to",
          "type": "address"
        },
        {
          "indexed": true,
          "internalType": "uint256",
          "name": "tokenId",
          "type": "uint256"
        }
      ],
      "name": "Transfer",
      "type": "event"
    },
    {
      "anonymous": false,
      "inputs": [
        {
          "indexed": true,
          "internalType": "uint256",
          "name": "idVehicle",
          "type": "uint256"
        }
      ],
      "name": "VehicleExpired",
      "type": "event"
    },
    {
      "anonymous": false,
      "inputs": [
        {
          "indexed": true,
          "internalType": "address",
          "name": "owner",
          "type": "address"
        },
        {
          "indexed": true,
          "internalType": "uint256",
          "name": "idVehicle",
          "type": "uint256"
        }
      ],
      "name": "VehicleWithdrawhed",
      "type": "event"
    },
    {
      "inputs": [
        {
          "internalType": "uint256",
          "name": "_id",
          "type": "uint256"
        },
        {
          "internalType": "string",
          "name": "_name",
          "type": "string"
        },
        {
          "internalType": "string",
          "name": "_model",
          "type": "string"
        },
        {
          "internalType": "uint256",
          "name": "_priceVehicle",
          "type": "uint256"
        }
      ],
      "name": "addVehicle",
      "outputs": [],
      "stateMutability": "nonpayable",
      "type": "function"
    },
    {
      "inputs": [
        {
          "internalType": "uint256",
          "name": "_id",
          "type": "uint256"
        },
        {
          "internalType": "string",
          "name": "_name",
          "type": "string"
        },
        {
          "internalType": "string",
          "name": "_model",
          "type": "string"
        }
      ],
      "name": "addVehicleAuctions",
      "outputs": [],
      "stateMutability": "nonpayable",
      "type": "function"
    },
    {
      "inputs": [
        {
          "internalType": "address",
          "name": "to",
          "type": "address"
        },
        {
          "internalType": "uint256",
          "name": "tokenId",
          "type": "uint256"
        }
      ],
      "name": "approve",
      "outputs": [],
      "stateMutability": "nonpayable",
      "type": "function"
    },
    {
      "inputs": [],
      "name": "arrayAuctionVehiclePurchased",
      "outputs": [
        {
          "internalType": "uint256[]",
          "name": "",
          "type": "uint256[]"
        }
      ],
      "stateMutability": "view",
      "type": "function"
    },
    {
      "inputs": [
        {
          "internalType": "address",
          "name": "_account",
          "type": "address"
        }
      ],
      "name": "arrayAuctionVehiclePurchasedByAddress",
      "outputs": [
        {
          "internalType": "uint256[]",
          "name": "",
          "type": "uint256[]"
        }
      ],
      "stateMutability": "view",
      "type": "function"
    },
    {
      "inputs": [],
      "name": "arrayAuctionsVehicles",
      "outputs": [
        {
          "internalType": "uint256[]",
          "name": "",
          "type": "uint256[]"
        }
      ],
      "stateMutability": "view",
      "type": "function"
    },
    {
      "inputs": [
        {
          "internalType": "address",
          "name": "_account",
          "type": "address"
        }
      ],
      "name": "arrayPurchasedVehiclesByAddress",
      "outputs": [
        {
          "internalType": "uint256[]",
          "name": "",
          "type": "uint256[]"
        }
      ],
      "stateMutability": "view",
      "type": "function"
    },
    {
      "inputs": [],
      "name": "arrayVehicleIds",
      "outputs": [
        {
          "internalType": "uint256[]",
          "name": "",
          "type": "uint256[]"
        }
      ],
      "stateMutability": "view",
      "type": "function"
    },
    {
      "inputs": [],
      "name": "arrayVehiclesPurchased",
      "outputs": [
        {
          "internalType": "uint256[]",
          "name": "",
          "type": "uint256[]"
        }
      ],
      "stateMutability": "view",
      "type": "function"
    },
    {
      "inputs": [
        {
          "internalType": "uint256",
          "name": "",
          "type": "uint256"
        }
      ],
      "name": "auctionStatus",
      "outputs": [
        {
          "internalType": "uint256",
          "name": "startedAt",
          "type": "uint256"
        },
        {
          "internalType": "uint256",
          "name": "willEndAt",
          "type": "uint256"
        },
        {
          "internalType": "uint256",
          "name": "winningBid",
          "type": "uint256"
        },
        {
          "internalType": "address",
          "name": "ownerBid",
          "type": "address"
        }
      ],
      "stateMutability": "view",
      "type": "function"
    },
    {
      "inputs": [
        {
          "internalType": "uint256",
          "name": "",
          "type": "uint256"
        }
      ],
      "name": "availableVehicle",
      "outputs": [
        {
          "internalType": "bool",
          "name": "",
          "type": "bool"
        }
      ],
      "stateMutability": "view",
      "type": "function"
    },
    {
      "inputs": [
        {
          "internalType": "address",
          "name": "owner",
          "type": "address"
        }
      ],
      "name": "balanceOf",
      "outputs": [
        {
          "internalType": "uint256",
          "name": "",
          "type": "uint256"
        }
      ],
      "stateMutability": "view",
      "type": "function"
    },
    {
      "inputs": [
        {
          "internalType": "uint256",
          "name": "_idVehicle",
          "type": "uint256"
        }
      ],
      "name": "buyNFTVehicle",
      "outputs": [],
      "stateMutability": "payable",
      "type": "function"
    },
    {
      "inputs": [
        {
          "internalType": "uint256",
          "name": "",
          "type": "uint256"
        }
      ],
      "name": "detailsVehicle",
      "outputs": [
        {
          "internalType": "uint256",
          "name": "id",
          "type": "uint256"
        },
        {
          "internalType": "string",
          "name": "name",
          "type": "string"
        },
        {
          "internalType": "string",
          "name": "model",
          "type": "string"
        },
        {
          "internalType": "uint256",
          "name": "priceVehicle",
          "type": "uint256"
        },
        {
          "internalType": "bool",
          "name": "available",
          "type": "bool"
        },
        {
          "internalType": "address",
          "name": "owner",
          "type": "address"
        },
        {
          "internalType": "uint256",
          "name": "willEndAt",
          "type": "uint256"
        }
      ],
      "stateMutability": "view",
      "type": "function"
    },
    {
      "inputs": [
        {
          "internalType": "uint256",
          "name": "_idVehicle",
          "type": "uint256"
        }
      ],
      "name": "expiryCheck",
      "outputs": [],
      "stateMutability": "nonpayable",
      "type": "function"
    },
    {
      "inputs": [
        {
          "internalType": "uint256",
          "name": "_idVehicle",
          "type": "uint256"
        }
      ],
      "name": "expiryCheckAuction",
      "outputs": [],
      "stateMutability": "nonpayable",
      "type": "function"
    },
    {
      "inputs": [
        {
          "internalType": "uint256",
          "name": "tokenId",
          "type": "uint256"
        }
      ],
      "name": "getApproved",
      "outputs": [
        {
          "internalType": "address",
          "name": "",
          "type": "address"
        }
      ],
      "stateMutability": "view",
      "type": "function"
    },
    {
      "inputs": [],
      "name": "getCurrentTimestamp",
      "outputs": [
        {
          "internalType": "uint256",
          "name": "",
          "type": "uint256"
        }
      ],
      "stateMutability": "view",
      "type": "function"
    },
    {
      "inputs": [],
      "name": "hasRecoveredFunds",
      "outputs": [
        {
          "internalType": "bool",
          "name": "",
          "type": "bool"
        }
      ],
      "stateMutability": "view",
      "type": "function"
    },
    {
      "inputs": [
        {
          "internalType": "uint256",
          "name": "_idVehicle",
          "type": "uint256"
        }
      ],
      "name": "hasWithdrawhed",
      "outputs": [
        {
          "internalType": "bool",
          "name": "",
          "type": "bool"
        }
      ],
      "stateMutability": "view",
      "type": "function"
    },
    {
      "inputs": [
        {
          "internalType": "address",
          "name": "owner",
          "type": "address"
        },
        {
          "internalType": "address",
          "name": "operator",
          "type": "address"
        }
      ],
      "name": "isApprovedForAll",
      "outputs": [
        {
          "internalType": "bool",
          "name": "",
          "type": "bool"
        }
      ],
      "stateMutability": "view",
      "type": "function"
    },
    {
      "inputs": [
        {
          "internalType": "uint256",
          "name": "_idVehicle",
          "type": "uint256"
        }
      ],
      "name": "isAuctionStarted",
      "outputs": [
        {
          "internalType": "bool",
          "name": "",
          "type": "bool"
        }
      ],
      "stateMutability": "view",
      "type": "function"
    },
    {
      "inputs": [],
      "name": "name",
      "outputs": [
        {
          "internalType": "string",
          "name": "",
          "type": "string"
        }
      ],
      "stateMutability": "view",
      "type": "function"
    },
    {
      "inputs": [],
      "name": "owner",
      "outputs": [
        {
          "internalType": "address",
          "name": "",
          "type": "address"
        }
      ],
      "stateMutability": "view",
      "type": "function"
    },
    {
      "inputs": [
        {
          "internalType": "uint256",
          "name": "tokenId",
          "type": "uint256"
        }
      ],
      "name": "ownerOf",
      "outputs": [
        {
          "internalType": "address",
          "name": "",
          "type": "address"
        }
      ],
      "stateMutability": "view",
      "type": "function"
    },
    {
      "inputs": [
        {
          "internalType": "uint256",
          "name": "_idVehicle",
          "type": "uint256"
        }
      ],
      "name": "participateAuction",
      "outputs": [],
      "stateMutability": "payable",
      "type": "function"
    },
    {
      "inputs": [
        {
          "internalType": "uint256",
          "name": "_idVehicle",
          "type": "uint256"
        }
      ],
      "name": "recoverFunds",
      "outputs": [],
      "stateMutability": "nonpayable",
      "type": "function"
    },
    {
      "inputs": [],
      "name": "renounceOwnership",
      "outputs": [],
      "stateMutability": "nonpayable",
      "type": "function"
    },
    {
      "inputs": [
        {
          "internalType": "address",
          "name": "from",
          "type": "address"
        },
        {
          "internalType": "address",
          "name": "to",
          "type": "address"
        },
        {
          "internalType": "uint256",
          "name": "tokenId",
          "type": "uint256"
        }
      ],
      "name": "safeTransferFrom",
      "outputs": [],
      "stateMutability": "nonpayable",
      "type": "function"
    },
    {
      "inputs": [
        {
          "internalType": "address",
          "name": "from",
          "type": "address"
        },
        {
          "internalType": "address",
          "name": "to",
          "type": "address"
        },
        {
          "internalType": "uint256",
          "name": "tokenId",
          "type": "uint256"
        },
        {
          "internalType": "bytes",
          "name": "data",
          "type": "bytes"
        }
      ],
      "name": "safeTransferFrom",
      "outputs": [],
      "stateMutability": "nonpayable",
      "type": "function"
    },
    {
      "inputs": [
        {
          "internalType": "address",
          "name": "operator",
          "type": "address"
        },
        {
          "internalType": "bool",
          "name": "approved",
          "type": "bool"
        }
      ],
      "name": "setApprovalForAll",
      "outputs": [],
      "stateMutability": "nonpayable",
      "type": "function"
    },
    {
      "inputs": [
        {
          "internalType": "uint256",
          "name": "_idVehicle",
          "type": "uint256"
        }
      ],
      "name": "startAuction",
      "outputs": [],
      "stateMutability": "nonpayable",
      "type": "function"
    },
    {
      "inputs": [
        {
          "internalType": "bytes4",
          "name": "interfaceId",
          "type": "bytes4"
        }
      ],
      "name": "supportsInterface",
      "outputs": [
        {
          "internalType": "bool",
          "name": "",
          "type": "bool"
        }
      ],
      "stateMutability": "view",
      "type": "function"
    },
    {
      "inputs": [],
      "name": "symbol",
      "outputs": [
        {
          "internalType": "string",
          "name": "",
          "type": "string"
        }
      ],
      "stateMutability": "view",
      "type": "function"
    },
    {
      "inputs": [
        {
          "internalType": "uint256",
          "name": "tokenId",
          "type": "uint256"
        }
      ],
      "name": "tokenURI",
      "outputs": [
        {
          "internalType": "string",
          "name": "",
          "type": "string"
        }
      ],
      "stateMutability": "view",
      "type": "function"
    },
    {
      "inputs": [
        {
          "internalType": "address",
          "name": "_from",
          "type": "address"
        },
        {
          "internalType": "address",
          "name": "_to",
          "type": "address"
        },
        {
          "internalType": "uint256",
          "name": "_tokenId",
          "type": "uint256"
        }
      ],
      "name": "transferFrom",
      "outputs": [],
      "stateMutability": "nonpayable",
      "type": "function"
    },
    {
      "inputs": [
        {
          "internalType": "address",
          "name": "newOwner",
          "type": "address"
        }
      ],
      "name": "transferOwnership",
      "outputs": [],
      "stateMutability": "nonpayable",
      "type": "function"
    },
    {
      "inputs": [
        {
          "internalType": "uint256",
          "name": "_idVehicle",
          "type": "uint256"
        }
      ],
      "name": "withdrawNFT",
      "outputs": [],
      "stateMutability": "nonpayable",
      "type": "function"
    }
  ],
  "bytecode": "0x60806040523480156200001157600080fd5b506040516200634d3803806200634d83398181016040528101906200003791906200038d565b818133828281600090816200004d91906200065d565b5080600190816200005f91906200065d565b505050600073ffffffffffffffffffffffffffffffffffffffff168173ffffffffffffffffffffffffffffffffffffffff1603620000d75760006040517f1e4fbdf7000000000000000000000000000000000000000000000000000000008152600401620000ce919062000789565b60405180910390fd5b620000e8816200013460201b60201c565b5033600760006101000a81548173ffffffffffffffffffffffffffffffffffffffff021916908373ffffffffffffffffffffffffffffffffffffffff16021790555050505050620007a6565b6000600660009054906101000a900473ffffffffffffffffffffffffffffffffffffffff16905081600660006101000a81548173ffffffffffffffffffffffffffffffffffffffff021916908373ffffffffffffffffffffffffffffffffffffffff1602179055508173ffffffffffffffffffffffffffffffffffffffff168173ffffffffffffffffffffffffffffffffffffffff167f8be0079c531659141344cd1fd0a4f28419497f9722a3daafe3b4186f6b6457e060405160405180910390a35050565b6000604051905090565b600080fd5b600080fd5b600080fd5b600080fd5b6000601f19601f8301169050919050565b7f4e487b7100000000000000000000000000000000000000000000000000000000600052604160045260246000fd5b620002638262000218565b810181811067ffffffffffffffff8211171562000285576200028462000229565b5b80604052505050565b60006200029a620001fa565b9050620002a8828262000258565b919050565b600067ffffffffffffffff821115620002cb57620002ca62000229565b5b620002d68262000218565b9050602081019050919050565b60005b8381101562000303578082015181840152602081019050620002e6565b60008484015250505050565b6000620003266200032084620002ad565b6200028e565b90508281526020810184848401111562000345576200034462000213565b5b62000352848285620002e3565b509392505050565b600082601f8301126200037257620003716200020e565b5b8151620003848482602086016200030f565b91505092915050565b60008060408385031215620003a757620003a662000204565b5b600083015167ffffffffffffffff811115620003c857620003c762000209565b5b620003d6858286016200035a565b925050602083015167ffffffffffffffff811115620003fa57620003f962000209565b5b62000408858286016200035a565b9150509250929050565b600081519050919050565b7f4e487b7100000000000000000000000000000000000000000000000000000000600052602260045260246000fd5b600060028204905060018216806200046557607f821691505b6020821081036200047b576200047a6200041d565b5b50919050565b60008190508160005260206000209050919050565b60006020601f8301049050919050565b600082821b905092915050565b600060088302620004e57fffffffffffffffffffffffffffffffffffffffffffffffffffffffffffffffff82620004a6565b620004f18683620004a6565b95508019841693508086168417925050509392505050565b6000819050919050565b6000819050919050565b60006200053e62000538620005328462000509565b62000513565b62000509565b9050919050565b6000819050919050565b6200055a836200051d565b62000572620005698262000545565b848454620004b3565b825550505050565b600090565b620005896200057a565b620005968184846200054f565b505050565b5b81811015620005be57620005b26000826200057f565b6001810190506200059c565b5050565b601f8211156200060d57620005d78162000481565b620005e28462000496565b81016020851015620005f2578190505b6200060a620006018562000496565b8301826200059b565b50505b505050565b600082821c905092915050565b6000620006326000198460080262000612565b1980831691505092915050565b60006200064d83836200061f565b9150826002028217905092915050565b620006688262000412565b67ffffffffffffffff81111562000684576200068362000229565b5b6200069082546200044c565b6200069d828285620005c2565b600060209050601f831160018114620006d55760008415620006c0578287015190505b620006cc85826200063f565b8655506200073c565b601f198416620006e58662000481565b60005b828110156200070f57848901518255600182019150602085019450602081019050620006e8565b868310156200072f57848901516200072b601f8916826200061f565b8355505b6001600288020188555050505b505050505050565b600073ffffffffffffffffffffffffffffffffffffffff82169050919050565b6000620007718262000744565b9050919050565b620007838162000764565b82525050565b6000602082019050620007a0600083018462000778565b92915050565b615b9780620007b66000396000f3fe6080604052600436106102255760003560e01c8063715018a611610123578063b88d4fde116100ab578063e985e9c51161006f578063e985e9c51461083a578063f2fde38b14610877578063f701ba7b146108a0578063fe3ffd49146108dd578063fe65af1b1461090857610225565b8063b88d4fde1461072b578063babbb5e114610754578063c1b9a85a14610797578063c87b56dd146107d4578063dca54e471461081157610225565b80638da5cb5b116100f25780638da5cb5b1461064357806395d89b411461066e57806396da43b614610699578063a22cb465146106d9578063b642c7751461070257610225565b8063715018a6146105a857806379046a54146105bf5780637b306a6b146105ea5780638bc621551461060657610225565b8063263787d7116101b15780636352211e116101755780636352211e146104aa57806368d7d76a146104e75780636c9230db1461050357806370a082311461052e57806370a1110d1461056b57610225565b8063263787d7146103d9578063342e5e7d1461040457806339a897c11461042f57806342842e0e146104585780634ab358c71461048157610225565b8063081812fc116101f8578063081812fc146102e4578063095ea7b31461032157806319610fae1461034a5780632327aef01461038757806323b872dd146103b057610225565b806301ffc9a71461022a578063023245d714610267578063065de74c1461029057806306fdde03146102b9575b600080fd5b34801561023657600080fd5b50610251600480360381019061024c919061463e565b610933565b60405161025e9190614686565b60405180910390f35b34801561027357600080fd5b5061028e600480360381019061028991906146d7565b610a15565b005b34801561029c57600080fd5b506102b760048036038101906102b291906146d7565b610d89565b005b3480156102c557600080fd5b506102ce610f56565b6040516102db9190614794565b60405180910390f35b3480156102f057600080fd5b5061030b600480360381019061030691906146d7565b610fe8565b60405161031891906147f7565b60405180910390f35b34801561032d57600080fd5b506103486004803603810190610343919061483e565b611004565b005b34801561035657600080fd5b50610371600480360381019061036c91906146d7565b61101a565b60405161037e9190614686565b60405180910390f35b34801561039357600080fd5b506103ae60048036038101906103a991906146d7565b61103a565b005b3480156103bc57600080fd5b506103d760048036038101906103d2919061487e565b6112d1565b005b3480156103e557600080fd5b506103ee61139b565b6040516103fb919061498f565b60405180910390f35b34801561041057600080fd5b506104196113f3565b604051610426919061498f565b60405180910390f35b34801561043b57600080fd5b5061045660048036038101906104519190614ae6565b61144b565b005b34801561046457600080fd5b5061047f600480360381019061047a919061487e565b611624565b005b34801561048d57600080fd5b506104a860048036038101906104a391906146d7565b611644565b005b3480156104b657600080fd5b506104d160048036038101906104cc91906146d7565b611a46565b6040516104de91906147f7565b60405180910390f35b61050160048036038101906104fc91906146d7565b611a58565b005b34801561050f57600080fd5b50610518611d9d565b6040516105259190614b80565b60405180910390f35b34801561053a57600080fd5b5061055560048036038101906105509190614b9b565b611da5565b6040516105629190614b80565b60405180910390f35b34801561057757600080fd5b50610592600480360381019061058d9190614b9b565b611e5f565b60405161059f919061498f565b60405180910390f35b3480156105b457600080fd5b506105bd611ef6565b005b3480156105cb57600080fd5b506105d4611f0a565b6040516105e1919061498f565b60405180910390f35b61060460048036038101906105ff91906146d7565b611f62565b005b34801561061257600080fd5b5061062d600480360381019061062891906146d7565b612306565b60405161063a9190614686565b60405180910390f35b34801561064f57600080fd5b50610658612330565b60405161066591906147f7565b60405180910390f35b34801561067a57600080fd5b5061068361235a565b6040516106909190614794565b60405180910390f35b3480156106a557600080fd5b506106c060048036038101906106bb91906146d7565b6123ec565b6040516106d09493929190614bc8565b60405180910390f35b3480156106e557600080fd5b5061070060048036038101906106fb9190614c39565b61243c565b005b34801561070e57600080fd5b5061072960048036038101906107249190614c79565b612452565b005b34801561073757600080fd5b50610752600480360381019061074d9190614db9565b61262b565b005b34801561076057600080fd5b5061077b600480360381019061077691906146d7565b612648565b60405161078e9796959493929190614e3c565b60405180910390f35b3480156107a357600080fd5b506107be60048036038101906107b991906146d7565b6127c7565b6040516107cb9190614686565b60405180910390f35b3480156107e057600080fd5b506107fb60048036038101906107f691906146d7565b6127f1565b6040516108089190614794565b60405180910390f35b34801561081d57600080fd5b50610838600480360381019061083391906146d7565b61285a565b005b34801561084657600080fd5b50610861600480360381019061085c9190614eb9565b612ac5565b60405161086e9190614686565b60405180910390f35b34801561088357600080fd5b5061089e60048036038101906108999190614b9b565b612b59565b005b3480156108ac57600080fd5b506108c760048036038101906108c29190614b9b565b612bdf565b6040516108d4919061498f565b60405180910390f35b3480156108e957600080fd5b506108f2612c76565b6040516108ff9190614686565b60405180910390f35b34801561091457600080fd5b5061091d612cca565b60405161092a919061498f565b60405180910390f35b60007f80ac58cd000000000000000000000000000000000000000000000000000000007bffffffffffffffffffffffffffffffffffffffffffffffffffffffff1916827bffffffffffffffffffffffffffffffffffffffffffffffffffffffff191614806109fe57507f5b5e139f000000000000000000000000000000000000000000000000000000007bffffffffffffffffffffffffffffffffffffffffffffffffffffffff1916827bffffffffffffffffffffffffffffffffffffffffffffffffffffffff1916145b80610a0e5750610a0d82612d22565b5b9050919050565b806000805b600e80549050811015610a625782600e8281548110610a3c57610a3b614ef9565b5b906000526020600020015403610a555760019150610a62565b8080600101915050610a1a565b506001151581151514610aaa576040517f08c379a0000000000000000000000000000000000000000000000000000000008152600401610aa190614f74565b60405180910390fd5b60106000848152602001908152602001600020600101544211610b02576040517f08c379a0000000000000000000000000000000000000000000000000000000008152600401610af990615006565b60405180910390fd5b6010600084815260200190815260200160002060030160009054906101000a900473ffffffffffffffffffffffffffffffffffffffff1673ffffffffffffffffffffffffffffffffffffffff163373ffffffffffffffffffffffffffffffffffffffff1614610ba6576040517f08c379a0000000000000000000000000000000000000000000000000000000008152600401610b9d90615098565b60405180910390fd5b60006008600085815260200190815260200160002060040160019054906101000a900473ffffffffffffffffffffffffffffffffffffffff169050610bec338583612d8c565b610bf78133866112d1565b600b60003373ffffffffffffffffffffffffffffffffffffffff1673ffffffffffffffffffffffffffffffffffffffff168152602001908152602001600020849080600181540180825580915050600190039060005260206000200160009091909190915055610c6684612d9e565b60016014600086815260200190815260200160002060006101000a81548160ff02191690831515021790555060006008600086815260200190815260200160002060040160006101000a81548160ff021916908315150217905550336008600086815260200190815260200160002060040160016101000a81548173ffffffffffffffffffffffffffffffffffffffff021916908373ffffffffffffffffffffffffffffffffffffffff16021790555062093a8042610d2591906150e7565b6008600086815260200190815260200160002060050181905550833373ffffffffffffffffffffffffffffffffffffffff167ffb6da6529a29c2568f7d1b5d6b5362e86e76af5bc2f26f8fd16a0a3f6033674760405160405180910390a350505050565b610d91612ead565b806000805b600e80549050811015610dde5782600e8281548110610db857610db7614ef9565b5b906000526020600020015403610dd15760019150610dde565b8080600101915050610d96565b506001151581151514610e26576040517f08c379a0000000000000000000000000000000000000000000000000000000008152600401610e1d90614f74565b60405180910390fd5b60405180608001604052804281526020016201518042610e4691906150e7565b815260200160008152602001600073ffffffffffffffffffffffffffffffffffffffff168152506010600085815260200190815260200160002060008201518160000155602082015181600101556040820151816002015560608201518160030160006101000a81548173ffffffffffffffffffffffffffffffffffffffff021916908373ffffffffffffffffffffffffffffffffffffffff16021790555090505060016011600085815260200190815260200160002060006101000a81548160ff021916908315150217905550826201518042610f2491906150e7565b427fd33c12a3372418f7b06f63be116326b11627b211b3f7a5ae9392ec7da75f0bea60405160405180910390a4505050565b606060008054610f659061514a565b80601f0160208091040260200160405190810160405280929190818152602001828054610f919061514a565b8015610fde5780601f10610fb357610100808354040283529160200191610fde565b820191906000526020600020905b815481529060010190602001808311610fc157829003601f168201915b5050505050905090565b6000610ff382612f34565b50610ffd82612fbc565b9050919050565b6110168282611011612ff9565b612d8c565b5050565b60096020528060005260406000206000915054906101000a900460ff1681565b611042612ead565b60008060005b600f805490508110156110905783600f828154811061106a57611069614ef9565b5b9060005260206000200154036110835760019250611090565b8080600101915050611048565b5060086000848152602001908152602001600020600501544211156110b457600190505b60011515821515146110fb576040517f08c379a00000000000000000000000000000000000000000000000000000000081526004016110f2906151c7565b60405180910390fd5b6001151581151514611142576040517f08c379a000000000000000000000000000000000000000000000000000000000815260040161113990615259565b60405180910390fd5b60006008600085815260200190815260200160002060040160019054906101000a900473ffffffffffffffffffffffffffffffffffffffff1690506111878482613001565b611192338583612d8c565b61119d8133866112d1565b60016008600086815260200190815260200160002060040160006101000a81548160ff021916908315150217905550336008600086815260200190815260200160002060040160016101000a81548173ffffffffffffffffffffffffffffffffffffffff021916908373ffffffffffffffffffffffffffffffffffffffff1602179055506000600860008681526020019081526020016000206005018190555060016009600086815260200190815260200160002060006101000a81548160ff02191690831515021790555060006011600086815260200190815260200160002060006101000a81548160ff02191690831515021790555061129e84613256565b837f0c29f50c56a065d12888b21481ad9cf89fbe06c5e961884ed5d26bb5e2ecb31e60405160405180910390a250505050565b6112dc838383613365565b816008600083815260200190815260200160002060040160016101000a81548173ffffffffffffffffffffffffffffffffffffffff021916908373ffffffffffffffffffffffffffffffffffffffff1602179055508173ffffffffffffffffffffffffffffffffffffffff168373ffffffffffffffffffffffffffffffffffffffff167fcd8b38cefcfe1ddd69acc0c4a3b72838681981b18de8d5f5ad85aada541b1ee08360405161138e9190614b80565b60405180910390a3505050565b6060600c8054806020026020016040519081016040528092919081815260200182805480156113e957602002820191906000526020600020905b8154815260200190600101908083116113d5575b5050505050905090565b6060600f80548060200260200160405190810160405280929190818152602001828054801561144157602002820191906000526020600020905b81548152602001906001019080831161142d575b5050505050905090565b611453612ead565b6040518060e00160405280848152602001838152602001828152602001600081526020016001151581526020013373ffffffffffffffffffffffffffffffffffffffff1681526020016000815250600860008581526020019081526020016000206000820151816000015560208201518160010190816114d39190615425565b5060408201518160020190816114e99190615425565b506060820151816003015560808201518160040160006101000a81548160ff02191690831515021790555060a08201518160040160016101000a81548173ffffffffffffffffffffffffffffffffffffffff021916908373ffffffffffffffffffffffffffffffffffffffff16021790555060c0820151816005015590505060016009600085815260200190815260200160002060006101000a81548160ff021916908315150217905550600e8390806001815401808255809150506001900390600052602060002001600090919091909150556115c73384613467565b806040516115d59190615533565b6040518091039020826040516115eb9190615533565b60405180910390207f3b2424469d2a0fa3ed7b7ced5fe8369bf96eeb17f49cca9f28e25e383a4f187260405160405180910390a3505050565b61163f8383836040518060200160405280600081525061262b565b505050565b6010600082815260200190815260200160002060010154421161169c576040517f08c379a000000000000000000000000000000000000000000000000000000000815260040161169390615006565b60405180910390fd5b6000805b600f805490508110156116e85782600f82815481106116c2576116c1614ef9565b5b9060005260206000200154036116db57600191506116e8565b80806001019150506116a0565b506001151581151514611730576040517f08c379a0000000000000000000000000000000000000000000000000000000008152600401611727906155bc565b60405180910390fd5b6010600083815260200190815260200160002060030160009054906101000a900473ffffffffffffffffffffffffffffffffffffffff1673ffffffffffffffffffffffffffffffffffffffff163373ffffffffffffffffffffffffffffffffffffffff16036117d4576040517f08c379a00000000000000000000000000000000000000000000000000000000081526004016117cb9061564e565b60405180910390fd5b60001515601560003373ffffffffffffffffffffffffffffffffffffffff1673ffffffffffffffffffffffffffffffffffffffff16815260200190815260200160002060009054906101000a900460ff16151514611867576040517f08c379a000000000000000000000000000000000000000000000000000000000815260040161185e906156ba565b60405180910390fd5b60006013600084815260200190815260200160002054905060005b818110156119e8573373ffffffffffffffffffffffffffffffffffffffff166012600086815260200190815260200160002060010182815481106118c9576118c8614ef9565b5b9060005260206000200160009054906101000a900473ffffffffffffffffffffffffffffffffffffffff1673ffffffffffffffffffffffffffffffffffffffff16036119db5760126000858152602001908152602001600020600101818154811061193757611936614ef9565b5b9060005260206000200160009054906101000a900473ffffffffffffffffffffffffffffffffffffffff1673ffffffffffffffffffffffffffffffffffffffff166108fc6012600087815260200190815260200160002060000183815481106119a3576119a2614ef9565b5b90600052602060002001549081150290604051600060405180830381858888f193505050501580156119d9573d6000803e3d6000fd5b505b8080600101915050611882565b506001601560003373ffffffffffffffffffffffffffffffffffffffff1673ffffffffffffffffffffffffffffffffffffffff16815260200190815260200160002060006101000a81548160ff021916908315150217905550505050565b6000611a5182612f34565b9050919050565b806000805b600e80549050811015611aa55782600e8281548110611a7f57611a7e614ef9565b5b906000526020600020015403611a985760019150611aa5565b8080600101915050611a5d565b506001151581151514611aed576040517f08c379a0000000000000000000000000000000000000000000000000000000008152600401611ae490614f74565b60405180910390fd5b600015156011600085815260200190815260200160002060009054906101000a900460ff16151503611b54576040517f08c379a0000000000000000000000000000000000000000000000000000000008152600401611b4b90615726565b60405180910390fd5b6010600084815260200190815260200160002060010154421115611bad576040517f08c379a0000000000000000000000000000000000000000000000000000000008152600401611ba490615792565b60405180910390fd5b60106000848152602001908152602001600020600201543411611c05576040517f08c379a0000000000000000000000000000000000000000000000000000000008152600401611bfc90615824565b60405180910390fd5b346010600085815260200190815260200160002060020181905550336010600085815260200190815260200160002060030160006101000a81548173ffffffffffffffffffffffffffffffffffffffff021916908373ffffffffffffffffffffffffffffffffffffffff1602179055506001601360008581526020019081526020016000206000828254611c9991906150e7565b925050819055506012600084815260200190815260200160002060000134908060018154018082558091505060019003906000526020600020016000909190919091505560126000848152602001908152602001600020600101339080600181540180825580915050600190039060005260206000200160009091909190916101000a81548173ffffffffffffffffffffffffffffffffffffffff021916908373ffffffffffffffffffffffffffffffffffffffff160217905550343373ffffffffffffffffffffffffffffffffffffffff167f76912359278d85616acb8be84e6b72dc8321620577ed8bd86baa31cf6493df0060405160405180910390a3505050565b600042905090565b60008073ffffffffffffffffffffffffffffffffffffffff168273ffffffffffffffffffffffffffffffffffffffff1603611e185760006040517f89c62b64000000000000000000000000000000000000000000000000000000008152600401611e0f91906147f7565b60405180910390fd5b600360008373ffffffffffffffffffffffffffffffffffffffff1673ffffffffffffffffffffffffffffffffffffffff168152602001908152602001600020549050919050565b6060600b60008373ffffffffffffffffffffffffffffffffffffffff1673ffffffffffffffffffffffffffffffffffffffff168152602001908152602001600020805480602002602001604051908101604052809291908181526020018280548015611eea57602002820191906000526020600020905b815481526020019060010190808311611ed6575b50505050509050919050565b611efe612ead565b611f086000613485565b565b6060600e805480602002602001604051908101604052809291908181526020018280548015611f5857602002820191906000526020600020905b815481526020019060010190808311611f44575b5050505050905090565b60008080600090505b600c80549050811015611fb65783600c8281548110611f8d57611f8c614ef9565b5b906000526020600020015403611fa95760019250809150611fb6565b8080600101915050611f6b565b5060006008600085815260200190815260200160002060030154905060006008600086815260200190815260200160002060040160019054906101000a900473ffffffffffffffffffffffffffffffffffffffff1690506001151584151514612054576040517f08c379a000000000000000000000000000000000000000000000000000000000815260040161204b906151c7565b60405180910390fd5b600760009054906101000a900473ffffffffffffffffffffffffffffffffffffffff1673ffffffffffffffffffffffffffffffffffffffff166008600087815260200190815260200160002060040160019054906101000a900473ffffffffffffffffffffffffffffffffffffffff1673ffffffffffffffffffffffffffffffffffffffff161461211a576040517f08c379a0000000000000000000000000000000000000000000000000000000008152600401612111906158b6565b60405180910390fd5b8134101561215d576040517f08c379a000000000000000000000000000000000000000000000000000000000815260040161215490615948565b60405180910390fd5b612168338683612d8c565b6121738133876112d1565b60006008600087815260200190815260200160002060040160006101000a81548160ff021916908315150217905550336008600087815260200190815260200160002060040160016101000a81548173ffffffffffffffffffffffffffffffffffffffff021916908373ffffffffffffffffffffffffffffffffffffffff160217905550620151804261220691906150e7565b600860008781526020019081526020016000206005018190555060006009600087815260200190815260200160002060006101000a81548160ff021916908315150217905550600a60003373ffffffffffffffffffffffffffffffffffffffff1673ffffffffffffffffffffffffffffffffffffffff1681526020019081526020016000208590806001815401808255809150506001900390600052602060002001600090919091909150556122bb8561354b565b3373ffffffffffffffffffffffffffffffffffffffff16857f112e4af3852d711647537c1b0427246ba66a8a586c3f5bea0cc09fd81b8bb23060405160405180910390a35050505050565b60006014600083815260200190815260200160002060009054906101000a900460ff169050919050565b6000600660009054906101000a900473ffffffffffffffffffffffffffffffffffffffff16905090565b6060600180546123699061514a565b80601f01602080910402602001604051908101604052809291908181526020018280546123959061514a565b80156123e25780601f106123b7576101008083540402835291602001916123e2565b820191906000526020600020905b8154815290600101906020018083116123c557829003601f168201915b5050505050905090565b60106020528060005260406000206000915090508060000154908060010154908060020154908060030160009054906101000a900473ffffffffffffffffffffffffffffffffffffffff16905084565b61244e612447612ff9565b838361365a565b5050565b61245a612ead565b6040518060e001604052808581526020018481526020018381526020018281526020016001151581526020013373ffffffffffffffffffffffffffffffffffffffff1681526020016000815250600860008681526020019081526020016000206000820151816000015560208201518160010190816124d99190615425565b5060408201518160020190816124ef9190615425565b506060820151816003015560808201518160040160006101000a81548160ff02191690831515021790555060a08201518160040160016101000a81548173ffffffffffffffffffffffffffffffffffffffff021916908373ffffffffffffffffffffffffffffffffffffffff16021790555060c0820151816005015590505060016009600086815260200190815260200160002060006101000a81548160ff021916908315150217905550600c8490806001815401808255809150506001900390600052602060002001600090919091909150556125cd3385613467565b816040516125db9190615533565b6040518091039020836040516125f19190615533565b60405180910390207f927de78391648190e6dff178494499568a6f07d6a22bda10eb10a944b73f450e60405160405180910390a350505050565b6126368484846112d1565b612642848484846137c9565b50505050565b60086020528060005260406000206000915090508060000154908060010180546126719061514a565b80601f016020809104026020016040519081016040528092919081815260200182805461269d9061514a565b80156126ea5780601f106126bf576101008083540402835291602001916126ea565b820191906000526020600020905b8154815290600101906020018083116126cd57829003601f168201915b5050505050908060020180546126ff9061514a565b80601f016020809104026020016040519081016040528092919081815260200182805461272b9061514a565b80156127785780601f1061274d57610100808354040283529160200191612778565b820191906000526020600020905b81548152906001019060200180831161275b57829003601f168201915b5050505050908060030154908060040160009054906101000a900460ff16908060040160019054906101000a900473ffffffffffffffffffffffffffffffffffffffff16908060050154905087565b60006011600083815260200190815260200160002060009054906101000a900460ff169050919050565b60606127fc82612f34565b506000612807613980565b905060008151116128275760405180602001604052806000815250612852565b8061283184613997565b604051602001612842929190615968565b6040516020818303038152906040525b915050919050565b612862612ead565b60008060005b600d805490508110156128b05783600d828154811061288a57612889614ef9565b5b9060005260206000200154036128a357600192506128b0565b8080600101915050612868565b5060086000848152602001908152602001600020600501544211156128d457600190505b600115158215151461291b576040517f08c379a0000000000000000000000000000000000000000000000000000000008152600401612912906151c7565b60405180910390fd5b6001151581151514612962576040517f08c379a000000000000000000000000000000000000000000000000000000000815260040161295990615259565b60405180910390fd5b60006008600085815260200190815260200160002060040160019054906101000a900473ffffffffffffffffffffffffffffffffffffffff1690506129a78482613a65565b6129b2338583612d8c565b6129bd8133866112d1565b60016008600086815260200190815260200160002060040160006101000a81548160ff021916908315150217905550336008600086815260200190815260200160002060040160016101000a81548173ffffffffffffffffffffffffffffffffffffffff021916908373ffffffffffffffffffffffffffffffffffffffff1602179055506000600860008681526020019081526020016000206005018190555060016009600086815260200190815260200160002060006101000a81548160ff021916908315150217905550612a9284613cba565b837f0c29f50c56a065d12888b21481ad9cf89fbe06c5e961884ed5d26bb5e2ecb31e60405160405180910390a250505050565b6000600560008473ffffffffffffffffffffffffffffffffffffffff1673ffffffffffffffffffffffffffffffffffffffff16815260200190815260200160002060008373ffffffffffffffffffffffffffffffffffffffff1673ffffffffffffffffffffffffffffffffffffffff16815260200190815260200160002060009054906101000a900460ff16905092915050565b612b61612ead565b600073ffffffffffffffffffffffffffffffffffffffff168173ffffffffffffffffffffffffffffffffffffffff1603612bd35760006040517f1e4fbdf7000000000000000000000000000000000000000000000000000000008152600401612bca91906147f7565b60405180910390fd5b612bdc81613485565b50565b6060600a60008373ffffffffffffffffffffffffffffffffffffffff1673ffffffffffffffffffffffffffffffffffffffff168152602001908152602001600020805480602002602001604051908101604052809291908181526020018280548015612c6a57602002820191906000526020600020905b815481526020019060010190808311612c56575b50505050509050919050565b6000601560003373ffffffffffffffffffffffffffffffffffffffff1673ffffffffffffffffffffffffffffffffffffffff16815260200190815260200160002060009054906101000a900460ff16905090565b6060600d805480602002602001604051908101604052809291908181526020018280548015612d1857602002820191906000526020600020905b815481526020019060010190808311612d04575b5050505050905090565b60007f01ffc9a7000000000000000000000000000000000000000000000000000000007bffffffffffffffffffffffffffffffffffffffffffffffffffffffff1916827bffffffffffffffffffffffffffffffffffffffffffffffffffffffff1916149050919050565b612d998383836001613dc9565b505050565b6000806000905060005b600e80549050811015612df35783600e8281548110612dca57612dc9614ef9565b5b906000526020600020015403612de65780925060019150612df3565b8080600101915050612da8565b506001151581151514612e0557600080fd5b600e6001600e80549050612e19919061598c565b81548110612e2a57612e29614ef9565b5b9060005260206000200154600e8381548110612e4957612e48614ef9565b5b9060005260206000200181905550600e805480612e6957612e686159c0565b5b60019003818190600052602060002001600090559055600f839080600181540180825580915050600190039060005260206000200160009091909190915055505050565b612eb5612ff9565b73ffffffffffffffffffffffffffffffffffffffff16612ed3612330565b73ffffffffffffffffffffffffffffffffffffffff1614612f3257612ef6612ff9565b6040517f118cdaa7000000000000000000000000000000000000000000000000000000008152600401612f2991906147f7565b60405180910390fd5b565b600080612f4083613f8e565b9050600073ffffffffffffffffffffffffffffffffffffffff168173ffffffffffffffffffffffffffffffffffffffff1603612fb357826040517f7e273289000000000000000000000000000000000000000000000000000000008152600401612faa9190614b80565b60405180910390fd5b80915050919050565b60006004600083815260200190815260200160002060009054906101000a900473ffffffffffffffffffffffffffffffffffffffff169050919050565b600033905090565b6000806000905060005b600b60008573ffffffffffffffffffffffffffffffffffffffff1673ffffffffffffffffffffffffffffffffffffffff168152602001908152602001600020805490508110156130d05784600b60008673ffffffffffffffffffffffffffffffffffffffff1673ffffffffffffffffffffffffffffffffffffffff16815260200190815260200160002082815481106130a7576130a6614ef9565b5b9060005260206000200154036130c357809250600191506130d0565b808060010191505061300b565b5060011515811515146130e257600080fd5b600b60008473ffffffffffffffffffffffffffffffffffffffff1673ffffffffffffffffffffffffffffffffffffffff1681526020019081526020016000206001600b60008673ffffffffffffffffffffffffffffffffffffffff1673ffffffffffffffffffffffffffffffffffffffff16815260200190815260200160002080549050613170919061598c565b8154811061318157613180614ef9565b5b9060005260206000200154600b60008573ffffffffffffffffffffffffffffffffffffffff1673ffffffffffffffffffffffffffffffffffffffff16815260200190815260200160002083815481106131dd576131dc614ef9565b5b9060005260206000200181905550600b60008473ffffffffffffffffffffffffffffffffffffffff1673ffffffffffffffffffffffffffffffffffffffff16815260200190815260200160002080548061323a576132396159c0565b5b6001900381819060005260206000200160009055905550505050565b6000806000905060005b600f805490508110156132ab5783600f828154811061328257613281614ef9565b5b90600052602060002001540361329e57809250600191506132ab565b8080600101915050613260565b5060011515811515146132bd57600080fd5b600f6001600f805490506132d1919061598c565b815481106132e2576132e1614ef9565b5b9060005260206000200154600f838154811061330157613300614ef9565b5b9060005260206000200181905550600f805480613321576133206159c0565b5b60019003818190600052602060002001600090559055600e839080600181540180825580915050600190039060005260206000200160009091909190915055505050565b600073ffffffffffffffffffffffffffffffffffffffff168273ffffffffffffffffffffffffffffffffffffffff16036133d75760006040517f64a0ae920000000000000000000000000000000000000000000000000000000081526004016133ce91906147f7565b60405180910390fd5b60006133eb83836133e6612ff9565b613fcb565b90508373ffffffffffffffffffffffffffffffffffffffff168173ffffffffffffffffffffffffffffffffffffffff1614613461578382826040517f64283d7b000000000000000000000000000000000000000000000000000000008152600401613458939291906159ef565b60405180910390fd5b50505050565b6134818282604051806020016040528060008152506141e5565b5050565b6000600660009054906101000a900473ffffffffffffffffffffffffffffffffffffffff16905081600660006101000a81548173ffffffffffffffffffffffffffffffffffffffff021916908373ffffffffffffffffffffffffffffffffffffffff1602179055508173ffffffffffffffffffffffffffffffffffffffff168173ffffffffffffffffffffffffffffffffffffffff167f8be0079c531659141344cd1fd0a4f28419497f9722a3daafe3b4186f6b6457e060405160405180910390a35050565b6000806000905060005b600c805490508110156135a05783600c828154811061357757613576614ef9565b5b90600052602060002001540361359357809250600191506135a0565b8080600101915050613555565b5060011515811515146135b257600080fd5b600c6001600c805490506135c6919061598c565b815481106135d7576135d6614ef9565b5b9060005260206000200154600c83815481106135f6576135f5614ef9565b5b9060005260206000200181905550600c805480613616576136156159c0565b5b60019003818190600052602060002001600090559055600d839080600181540180825580915050600190039060005260206000200160009091909190915055505050565b600073ffffffffffffffffffffffffffffffffffffffff168273ffffffffffffffffffffffffffffffffffffffff16036136cb57816040517f5b08ba180000000000000000000000000000000000000000000000000000000081526004016136c291906147f7565b60405180910390fd5b80600560008573ffffffffffffffffffffffffffffffffffffffff1673ffffffffffffffffffffffffffffffffffffffff16815260200190815260200160002060008473ffffffffffffffffffffffffffffffffffffffff1673ffffffffffffffffffffffffffffffffffffffff16815260200190815260200160002060006101000a81548160ff0219169083151502179055508173ffffffffffffffffffffffffffffffffffffffff168373ffffffffffffffffffffffffffffffffffffffff167f17307eab39ab6107e8899845ad3d59bd9653f200f220920489ca2b5937696c31836040516137bc9190614686565b60405180910390a3505050565b60008373ffffffffffffffffffffffffffffffffffffffff163b111561397a578273ffffffffffffffffffffffffffffffffffffffff1663150b7a0261380d612ff9565b8685856040518563ffffffff1660e01b815260040161382f9493929190615a7b565b6020604051808303816000875af192505050801561386b57506040513d601f19601f820116820180604052508101906138689190615adc565b60015b6138ef573d806000811461389b576040519150601f19603f3d011682016040523d82523d6000602084013e6138a0565b606091505b5060008151036138e757836040517f64a0ae920000000000000000000000000000000000000000000000000000000081526004016138de91906147f7565b60405180910390fd5b805181602001fd5b63150b7a0260e01b7bffffffffffffffffffffffffffffffffffffffffffffffffffffffff1916817bffffffffffffffffffffffffffffffffffffffffffffffffffffffff19161461397857836040517f64a0ae9200000000000000000000000000000000000000000000000000000000815260040161396f91906147f7565b60405180910390fd5b505b50505050565b606060405180602001604052806000815250905090565b6060600060016139a684614201565b01905060008167ffffffffffffffff8111156139c5576139c46149bb565b5b6040519080825280601f01601f1916602001820160405280156139f75781602001600182028036833780820191505090505b509050600082602001820190505b600115613a5a578080600190039150507f3031323334353637383961626364656600000000000000000000000000000000600a86061a8153600a8581613a4e57613a4d615b09565b5b04945060008503613a05575b819350505050919050565b6000806000905060005b600a60008573ffffffffffffffffffffffffffffffffffffffff1673ffffffffffffffffffffffffffffffffffffffff16815260200190815260200160002080549050811015613b345784600a60008673ffffffffffffffffffffffffffffffffffffffff1673ffffffffffffffffffffffffffffffffffffffff1681526020019081526020016000208281548110613b0b57613b0a614ef9565b5b906000526020600020015403613b275780925060019150613b34565b8080600101915050613a6f565b506001151581151514613b4657600080fd5b600a60008473ffffffffffffffffffffffffffffffffffffffff1673ffffffffffffffffffffffffffffffffffffffff1681526020019081526020016000206001600a60008673ffffffffffffffffffffffffffffffffffffffff1673ffffffffffffffffffffffffffffffffffffffff16815260200190815260200160002080549050613bd4919061598c565b81548110613be557613be4614ef9565b5b9060005260206000200154600a60008573ffffffffffffffffffffffffffffffffffffffff1673ffffffffffffffffffffffffffffffffffffffff1681526020019081526020016000208381548110613c4157613c40614ef9565b5b9060005260206000200181905550600a60008473ffffffffffffffffffffffffffffffffffffffff1673ffffffffffffffffffffffffffffffffffffffff168152602001908152602001600020805480613c9e57613c9d6159c0565b5b6001900381819060005260206000200160009055905550505050565b6000806000905060005b600d80549050811015613d0f5783600d8281548110613ce657613ce5614ef9565b5b906000526020600020015403613d025780925060019150613d0f565b8080600101915050613cc4565b506001151581151514613d2157600080fd5b600d6001600d80549050613d35919061598c565b81548110613d4657613d45614ef9565b5b9060005260206000200154600d8381548110613d6557613d64614ef9565b5b9060005260206000200181905550600d805480613d8557613d846159c0565b5b60019003818190600052602060002001600090559055600c839080600181540180825580915050600190039060005260206000200160009091909190915055505050565b8080613e025750600073ffffffffffffffffffffffffffffffffffffffff168273ffffffffffffffffffffffffffffffffffffffff1614155b15613f36576000613e1284612f34565b9050600073ffffffffffffffffffffffffffffffffffffffff168373ffffffffffffffffffffffffffffffffffffffff1614158015613e7d57508273ffffffffffffffffffffffffffffffffffffffff168173ffffffffffffffffffffffffffffffffffffffff1614155b8015613e905750613e8e8184612ac5565b155b15613ed257826040517fa9fbf51f000000000000000000000000000000000000000000000000000000008152600401613ec991906147f7565b60405180910390fd5b8115613f3457838573ffffffffffffffffffffffffffffffffffffffff168273ffffffffffffffffffffffffffffffffffffffff167f8c5be1e5ebec7d5bd14f71427d1e84f3dd0314c0f7b2291e5b200ac8c7c3b92560405160405180910390a45b505b836004600085815260200190815260200160002060006101000a81548173ffffffffffffffffffffffffffffffffffffffff021916908373ffffffffffffffffffffffffffffffffffffffff16021790555050505050565b60006002600083815260200190815260200160002060009054906101000a900473ffffffffffffffffffffffffffffffffffffffff169050919050565b600080613fd784613f8e565b9050600073ffffffffffffffffffffffffffffffffffffffff168373ffffffffffffffffffffffffffffffffffffffff161461401957614018818486614354565b5b600073ffffffffffffffffffffffffffffffffffffffff168173ffffffffffffffffffffffffffffffffffffffff16146140aa5761405b600085600080613dc9565b6001600360008373ffffffffffffffffffffffffffffffffffffffff1673ffffffffffffffffffffffffffffffffffffffff168152602001908152602001600020600082825403925050819055505b600073ffffffffffffffffffffffffffffffffffffffff168573ffffffffffffffffffffffffffffffffffffffff161461412d576001600360008773ffffffffffffffffffffffffffffffffffffffff1673ffffffffffffffffffffffffffffffffffffffff168152602001908152602001600020600082825401925050819055505b846002600086815260200190815260200160002060006101000a81548173ffffffffffffffffffffffffffffffffffffffff021916908373ffffffffffffffffffffffffffffffffffffffff160217905550838573ffffffffffffffffffffffffffffffffffffffff168273ffffffffffffffffffffffffffffffffffffffff167fddf252ad1be2c89b69c2b068fc378daa952ba7f163c4a11628f55a4df523b3ef60405160405180910390a4809150509392505050565b6141ef8383614418565b6141fc60008484846137c9565b505050565b600080600090507a184f03e93ff9f4daa797ed6e38ed64bf6a1f010000000000000000831061425f577a184f03e93ff9f4daa797ed6e38ed64bf6a1f010000000000000000838161425557614254615b09565b5b0492506040810190505b6d04ee2d6d415b85acef8100000000831061429c576d04ee2d6d415b85acef8100000000838161429257614291615b09565b5b0492506020810190505b662386f26fc1000083106142cb57662386f26fc1000083816142c1576142c0615b09565b5b0492506010810190505b6305f5e10083106142f4576305f5e10083816142ea576142e9615b09565b5b0492506008810190505b612710831061431957612710838161430f5761430e615b09565b5b0492506004810190505b6064831061433c576064838161433257614331615b09565b5b0492506002810190505b600a831061434b576001810190505b80915050919050565b61435f838383614511565b61441357600073ffffffffffffffffffffffffffffffffffffffff168373ffffffffffffffffffffffffffffffffffffffff16036143d457806040517f7e2732890000000000000000000000000000000000000000000000000000000081526004016143cb9190614b80565b60405180910390fd5b81816040517f177e802f00000000000000000000000000000000000000000000000000000000815260040161440a929190615b38565b60405180910390fd5b505050565b600073ffffffffffffffffffffffffffffffffffffffff168273ffffffffffffffffffffffffffffffffffffffff160361448a5760006040517f64a0ae9200000000000000000000000000000000000000000000000000000000815260040161448191906147f7565b60405180910390fd5b600061449883836000613fcb565b9050600073ffffffffffffffffffffffffffffffffffffffff168173ffffffffffffffffffffffffffffffffffffffff161461450c5760006040517f73c6ac6e00000000000000000000000000000000000000000000000000000000815260040161450391906147f7565b60405180910390fd5b505050565b60008073ffffffffffffffffffffffffffffffffffffffff168373ffffffffffffffffffffffffffffffffffffffff16141580156145c957508273ffffffffffffffffffffffffffffffffffffffff168473ffffffffffffffffffffffffffffffffffffffff16148061458a57506145898484612ac5565b5b806145c857508273ffffffffffffffffffffffffffffffffffffffff166145b083612fbc565b73ffffffffffffffffffffffffffffffffffffffff16145b5b90509392505050565b6000604051905090565b600080fd5b600080fd5b60007fffffffff0000000000000000000000000000000000000000000000000000000082169050919050565b61461b816145e6565b811461462657600080fd5b50565b60008135905061463881614612565b92915050565b600060208284031215614654576146536145dc565b5b600061466284828501614629565b91505092915050565b60008115159050919050565b6146808161466b565b82525050565b600060208201905061469b6000830184614677565b92915050565b6000819050919050565b6146b4816146a1565b81146146bf57600080fd5b50565b6000813590506146d1816146ab565b92915050565b6000602082840312156146ed576146ec6145dc565b5b60006146fb848285016146c2565b91505092915050565b600081519050919050565b600082825260208201905092915050565b60005b8381101561473e578082015181840152602081019050614723565b60008484015250505050565b6000601f19601f8301169050919050565b600061476682614704565b614770818561470f565b9350614780818560208601614720565b6147898161474a565b840191505092915050565b600060208201905081810360008301526147ae818461475b565b905092915050565b600073ffffffffffffffffffffffffffffffffffffffff82169050919050565b60006147e1826147b6565b9050919050565b6147f1816147d6565b82525050565b600060208201905061480c60008301846147e8565b92915050565b61481b816147d6565b811461482657600080fd5b50565b60008135905061483881614812565b92915050565b60008060408385031215614855576148546145dc565b5b600061486385828601614829565b9250506020614874858286016146c2565b9150509250929050565b600080600060608486031215614897576148966145dc565b5b60006148a586828701614829565b93505060206148b686828701614829565b92505060406148c7868287016146c2565b9150509250925092565b600081519050919050565b600082825260208201905092915050565b6000819050602082019050919050565b614906816146a1565b82525050565b600061491883836148fd565b60208301905092915050565b6000602082019050919050565b600061493c826148d1565b61494681856148dc565b9350614951836148ed565b8060005b83811015614982578151614969888261490c565b975061497483614924565b925050600181019050614955565b5085935050505092915050565b600060208201905081810360008301526149a98184614931565b905092915050565b600080fd5b600080fd5b7f4e487b7100000000000000000000000000000000000000000000000000000000600052604160045260246000fd5b6149f38261474a565b810181811067ffffffffffffffff82111715614a1257614a116149bb565b5b80604052505050565b6000614a256145d2565b9050614a3182826149ea565b919050565b600067ffffffffffffffff821115614a5157614a506149bb565b5b614a5a8261474a565b9050602081019050919050565b82818337600083830152505050565b6000614a89614a8484614a36565b614a1b565b905082815260208101848484011115614aa557614aa46149b6565b5b614ab0848285614a67565b509392505050565b600082601f830112614acd57614acc6149b1565b5b8135614add848260208601614a76565b91505092915050565b600080600060608486031215614aff57614afe6145dc565b5b6000614b0d868287016146c2565b935050602084013567ffffffffffffffff811115614b2e57614b2d6145e1565b5b614b3a86828701614ab8565b925050604084013567ffffffffffffffff811115614b5b57614b5a6145e1565b5b614b6786828701614ab8565b9150509250925092565b614b7a816146a1565b82525050565b6000602082019050614b956000830184614b71565b92915050565b600060208284031215614bb157614bb06145dc565b5b6000614bbf84828501614829565b91505092915050565b6000608082019050614bdd6000830187614b71565b614bea6020830186614b71565b614bf76040830185614b71565b614c0460608301846147e8565b95945050505050565b614c168161466b565b8114614c2157600080fd5b50565b600081359050614c3381614c0d565b92915050565b60008060408385031215614c5057614c4f6145dc565b5b6000614c5e85828601614829565b9250506020614c6f85828601614c24565b9150509250929050565b60008060008060808587031215614c9357614c926145dc565b5b6000614ca1878288016146c2565b945050602085013567ffffffffffffffff811115614cc257614cc16145e1565b5b614cce87828801614ab8565b935050604085013567ffffffffffffffff811115614cef57614cee6145e1565b5b614cfb87828801614ab8565b9250506060614d0c878288016146c2565b91505092959194509250565b600067ffffffffffffffff821115614d3357614d326149bb565b5b614d3c8261474a565b9050602081019050919050565b6000614d5c614d5784614d18565b614a1b565b905082815260208101848484011115614d7857614d776149b6565b5b614d83848285614a67565b509392505050565b600082601f830112614da057614d9f6149b1565b5b8135614db0848260208601614d49565b91505092915050565b60008060008060808587031215614dd357614dd26145dc565b5b6000614de187828801614829565b9450506020614df287828801614829565b9350506040614e03878288016146c2565b925050606085013567ffffffffffffffff811115614e2457614e236145e1565b5b614e3087828801614d8b565b91505092959194509250565b600060e082019050614e51600083018a614b71565b8181036020830152614e63818961475b565b90508181036040830152614e77818861475b565b9050614e866060830187614b71565b614e936080830186614677565b614ea060a08301856147e8565b614ead60c0830184614b71565b98975050505050505050565b60008060408385031215614ed057614ecf6145dc565b5b6000614ede85828601614829565b9250506020614eef85828601614829565b9150509250929050565b7f4e487b7100000000000000000000000000000000000000000000000000000000600052603260045260246000fd5b7f4964206f66207468652076656869636c6520646f65736e277420666f756e6400600082015250565b6000614f5e601f8361470f565b9150614f6982614f28565b602082019050919050565b60006020820190508181036000830152614f8d81614f51565b9050919050565b7f41756374696f6e20666f7220746869732076656869636c65206861736e27742060008201527f66696e6973686564000000000000000000000000000000000000000000000000602082015250565b6000614ff060288361470f565b9150614ffb82614f94565b604082019050919050565b6000602082019050818103600083015261501f81614fe3565b9050919050565b7f4f6e6c79207468652077696e6e6572206f66207468652061756374696f6e206360008201527f616e207769746864726177616c73000000000000000000000000000000000000602082015250565b6000615082602e8361470f565b915061508d82615026565b604082019050919050565b600060208201905081810360008301526150b181615075565b9050919050565b7f4e487b7100000000000000000000000000000000000000000000000000000000600052601160045260246000fd5b60006150f2826146a1565b91506150fd836146a1565b9250828201905080821115615115576151146150b8565b5b92915050565b7f4e487b7100000000000000000000000000000000000000000000000000000000600052602260045260246000fd5b6000600282049050600182168061516257607f821691505b6020821081036151755761517461511b565b5b50919050565b7f56656869636c6520646f65736e277420666f756e640000000000000000000000600082015250565b60006151b160158361470f565b91506151bc8261517b565b602082019050919050565b600060208201905081810360008301526151e0816151a4565b9050919050565b7f54686520737562736372697074696f6e20686173206e6f74207965742065787060008201527f6972656400000000000000000000000000000000000000000000000000000000602082015250565b600061524360248361470f565b915061524e826151e7565b604082019050919050565b6000602082019050818103600083015261527281615236565b9050919050565b60008190508160005260206000209050919050565b60006020601f8301049050919050565b600082821b905092915050565b6000600883026152db7fffffffffffffffffffffffffffffffffffffffffffffffffffffffffffffffff8261529e565b6152e5868361529e565b95508019841693508086168417925050509392505050565b6000819050919050565b600061532261531d615318846146a1565b6152fd565b6146a1565b9050919050565b6000819050919050565b61533c83615307565b61535061534882615329565b8484546152ab565b825550505050565b600090565b615365615358565b615370818484615333565b505050565b5b818110156153945761538960008261535d565b600181019050615376565b5050565b601f8211156153d9576153aa81615279565b6153b38461528e565b810160208510156153c2578190505b6153d66153ce8561528e565b830182615375565b50505b505050565b600082821c905092915050565b60006153fc600019846008026153de565b1980831691505092915050565b600061541583836153eb565b9150826002028217905092915050565b61542e82614704565b67ffffffffffffffff811115615447576154466149bb565b5b615451825461514a565b61545c828285615398565b600060209050601f83116001811461548f576000841561547d578287015190505b6154878582615409565b8655506154ef565b601f19841661549d86615279565b60005b828110156154c5578489015182556001820191506020850194506020810190506154a0565b868310156154e257848901516154de601f8916826153eb565b8355505b6001600288020188555050505b505050505050565b600081905092915050565b600061550d82614704565b61551781856154f7565b9350615527818560208601614720565b80840191505092915050565b600061553f8284615502565b915081905092915050565b7f506c65617365207761697420756e74696c207468652077696e6e657220636f6c60008201527f6c65637473207468652076656869636c65000000000000000000000000000000602082015250565b60006155a660318361470f565b91506155b18261554a565b604082019050919050565b600060208201905081810360008301526155d581615599565b9050919050565b7f57696e6e6572206f66207468652061756374696f6e2063616e2774207265636f60008201527f7665722066756e64730000000000000000000000000000000000000000000000602082015250565b600061563860298361470f565b9150615643826155dc565b604082019050919050565b600060208201905081810360008301526156678161562b565b9050919050565b7f46756e647320616c7265616479207265636f7665726564000000000000000000600082015250565b60006156a460178361470f565b91506156af8261566e565b602082019050919050565b600060208201905081810360008301526156d381615697565b9050919050565b7f5468652061756374696f6e206861736e27742073746172746564207965740000600082015250565b6000615710601e8361470f565b915061571b826156da565b602082019050919050565b6000602082019050818103600083015261573f81615703565b9050919050565b7f5468652061756374696f6e20686173206265656e20636c6f7365640000000000600082015250565b600061577c601b8361470f565b915061578782615746565b602082019050919050565b600060208201905081810360008301526157ab8161576f565b9050919050565b7f5468652065746865722076616c756520796f752073656e64206861732062652060008201527f67726561746572207468616e207468652077696e6e696e672062696400000000602082015250565b600061580e603c8361470f565b9150615819826157b2565b604082019050919050565b6000602082019050818103600083015261583d81615801565b9050919050565b7f5468652076656869636c652068617320616c7265616479206265656e2074616b60008201527f656e20627920616e6f7468657220757365720000000000000000000000000000602082015250565b60006158a060328361470f565b91506158ab82615844565b604082019050919050565b600060208201905081810360008301526158cf81615893565b9050919050565b7f446f65736e2774206861766520656e6f7567682066756e647320746f2062757960008201527f20746869732076656869636c6500000000000000000000000000000000000000602082015250565b6000615932602d8361470f565b915061593d826158d6565b604082019050919050565b6000602082019050818103600083015261596181615925565b9050919050565b60006159748285615502565b91506159808284615502565b91508190509392505050565b6000615997826146a1565b91506159a2836146a1565b92508282039050818111156159ba576159b96150b8565b5b92915050565b7f4e487b7100000000000000000000000000000000000000000000000000000000600052603160045260246000fd5b6000606082019050615a0460008301866147e8565b615a116020830185614b71565b615a1e60408301846147e8565b949350505050565b600081519050919050565b600082825260208201905092915050565b6000615a4d82615a26565b615a578185615a31565b9350615a67818560208601614720565b615a708161474a565b840191505092915050565b6000608082019050615a9060008301876147e8565b615a9d60208301866147e8565b615aaa6040830185614b71565b8181036060830152615abc8184615a42565b905095945050505050565b600081519050615ad681614612565b92915050565b600060208284031215615af257615af16145dc565b5b6000615b0084828501615ac7565b91505092915050565b7f4e487b7100000000000000000000000000000000000000000000000000000000600052601260045260246000fd5b6000604082019050615b4d60008301856147e8565b615b5a6020830184614b71565b939250505056fea26469706673582212205c3efeac6013c2033cb93906a2aecc2af9347ac398ecf34c0d4ae87a2dae7e0e64736f6c63430008180033",
  "linkReferences": {},
  "deployedLinkReferences": {}
}