{
  "_format": "hh-sol-artifact-1",
  "contractName": "VehicleAuctions",
  "sourceName": "contracts/VehicleAuctions.sol",
  "abi": [
    {
      "inputs": [
        {
          "internalType": "string",
          "name": "_nameToken",
          "type": "string"
        },
        {
          "internalType": "string",
          "name": "_symbolToken",
          "type": "string"
        }
      ],
      "stateMutability": "nonpayable",
      "type": "constructor"
    },
    {
      "inputs": [
        {
          "internalType": "address",
          "name": "sender",
          "type": "address"
        },
        {
          "internalType": "uint256",
          "name": "tokenId",
          "type": "uint256"
        },
        {
          "internalType": "address",
          "name": "owner",
          "type": "address"
        }
      ],
      "name": "ERC721IncorrectOwner",
      "type": "error"
    },
    {
      "inputs": [
        {
          "internalType": "address",
          "name": "operator",
          "type": "address"
        },
        {
          "internalType": "uint256",
          "name": "tokenId",
          "type": "uint256"
        }
      ],
      "name": "ERC721InsufficientApproval",
      "type": "error"
    },
    {
      "inputs": [
        {
          "internalType": "address",
          "name": "approver",
          "type": "address"
        }
      ],
      "name": "ERC721InvalidApprover",
      "type": "error"
    },
    {
      "inputs": [
        {
          "internalType": "address",
          "name": "operator",
          "type": "address"
        }
      ],
      "name": "ERC721InvalidOperator",
      "type": "error"
    },
    {
      "inputs": [
        {
          "internalType": "address",
          "name": "owner",
          "type": "address"
        }
      ],
      "name": "ERC721InvalidOwner",
      "type": "error"
    },
    {
      "inputs": [
        {
          "internalType": "address",
          "name": "receiver",
          "type": "address"
        }
      ],
      "name": "ERC721InvalidReceiver",
      "type": "error"
    },
    {
      "inputs": [
        {
          "internalType": "address",
          "name": "sender",
          "type": "address"
        }
      ],
      "name": "ERC721InvalidSender",
      "type": "error"
    },
    {
      "inputs": [
        {
          "internalType": "uint256",
          "name": "tokenId",
          "type": "uint256"
        }
      ],
      "name": "ERC721NonexistentToken",
      "type": "error"
    },
    {
      "inputs": [
        {
          "internalType": "address",
          "name": "owner",
          "type": "address"
        }
      ],
      "name": "OwnableInvalidOwner",
      "type": "error"
    },
    {
      "inputs": [
        {
          "internalType": "address",
          "name": "account",
          "type": "address"
        }
      ],
      "name": "OwnableUnauthorizedAccount",
      "type": "error"
    },
    {
      "anonymous": false,
      "inputs": [
        {
          "indexed": true,
          "internalType": "address",
          "name": "owner",
          "type": "address"
        },
        {
          "indexed": true,
          "internalType": "address",
          "name": "approved",
          "type": "address"
        },
        {
          "indexed": true,
          "internalType": "uint256",
          "name": "tokenId",
          "type": "uint256"
        }
      ],
      "name": "Approval",
      "type": "event"
    },
    {
      "anonymous": false,
      "inputs": [
        {
          "indexed": true,
          "internalType": "address",
          "name": "owner",
          "type": "address"
        },
        {
          "indexed": true,
          "internalType": "address",
          "name": "operator",
          "type": "address"
        },
        {
          "indexed": false,
          "internalType": "bool",
          "name": "approved",
          "type": "bool"
        }
      ],
      "name": "ApprovalForAll",
      "type": "event"
    },
    {
      "anonymous": false,
      "inputs": [
        {
          "indexed": true,
          "internalType": "uint256",
          "name": "blockTimeStarted",
          "type": "uint256"
        },
        {
          "indexed": true,
          "internalType": "uint256",
          "name": "blockTimeWillEnd",
          "type": "uint256"
        },
        {
          "indexed": true,
          "internalType": "uint256",
          "name": "idVehicle",
          "type": "uint256"
        }
      ],
      "name": "AuctionDetails",
      "type": "event"
    },
    {
      "anonymous": false,
      "inputs": [
        {
          "indexed": true,
          "internalType": "address",
          "name": "signer",
          "type": "address"
        },
        {
          "indexed": true,
          "internalType": "uint256",
          "name": "bid",
          "type": "uint256"
        }
      ],
      "name": "AuctionOffer",
      "type": "event"
    },
    {
      "anonymous": false,
      "inputs": [
        {
          "indexed": true,
          "internalType": "string",
          "name": "name",
          "type": "string"
        },
        {
          "indexed": true,
          "internalType": "string",
          "name": "model",
          "type": "string"
        }
      ],
      "name": "NFTAuctionsVehicles",
      "type": "event"
    },
    {
      "anonymous": false,
      "inputs": [
        {
          "indexed": true,
          "internalType": "uint256",
          "name": "idVehicle",
          "type": "uint256"
        },
        {
          "indexed": true,
          "internalType": "address",
          "name": "owner",
          "type": "address"
        }
      ],
      "name": "NFTVehicleBuyed",
      "type": "event"
    },
    {
      "anonymous": false,
      "inputs": [
        {
          "indexed": true,
          "internalType": "string",
          "name": "name",
          "type": "string"
        },
        {
          "indexed": true,
          "internalType": "string",
          "name": "model",
          "type": "string"
        }
      ],
      "name": "NFTVehicleCreated",
      "type": "event"
    },
    {
      "anonymous": false,
      "inputs": [
        {
          "indexed": false,
          "internalType": "uint256",
          "name": "idVehicle",
          "type": "uint256"
        },
        {
          "indexed": true,
          "internalType": "address",
          "name": "from",
          "type": "address"
        },
        {
          "indexed": true,
          "internalType": "address",
          "name": "to",
          "type": "address"
        }
      ],
      "name": "NFTVehicleTransferred",
      "type": "event"
    },
    {
      "anonymous": false,
      "inputs": [
        {
          "indexed": true,
          "internalType": "address",
          "name": "previousOwner",
          "type": "address"
        },
        {
          "indexed": true,
          "internalType": "address",
          "name": "newOwner",
          "type": "address"
        }
      ],
      "name": "OwnershipTransferred",
      "type": "event"
    },
    {
      "anonymous": false,
      "inputs": [
        {
          "indexed": true,
          "internalType": "address",
          "name": "from",
          "type": "address"
        },
        {
          "indexed": true,
          "internalType": "address",
          "name": "to",
          "type": "address"
        },
        {
          "indexed": true,
          "internalType": "uint256",
          "name": "tokenId",
          "type": "uint256"
        }
      ],
      "name": "Transfer",
      "type": "event"
    },
    {
      "anonymous": false,
      "inputs": [
        {
          "indexed": true,
          "internalType": "uint256",
          "name": "idVehicle",
          "type": "uint256"
        }
      ],
      "name": "VehicleExpired",
      "type": "event"
    },
    {
      "anonymous": false,
      "inputs": [
        {
          "indexed": true,
          "internalType": "address",
          "name": "owner",
          "type": "address"
        },
        {
          "indexed": true,
          "internalType": "uint256",
          "name": "idVehicle",
          "type": "uint256"
        }
      ],
      "name": "VehicleWithdrawhed",
      "type": "event"
    },
    {
      "inputs": [
        {
          "internalType": "string",
          "name": "_name",
          "type": "string"
        },
        {
          "internalType": "string",
          "name": "_model",
          "type": "string"
        },
        {
          "internalType": "uint256",
          "name": "_priceVehicle",
          "type": "uint256"
        }
      ],
      "name": "addVehicle",
      "outputs": [],
      "stateMutability": "nonpayable",
      "type": "function"
    },
    {
      "inputs": [
        {
          "internalType": "string",
          "name": "_name",
          "type": "string"
        },
        {
          "internalType": "string",
          "name": "_model",
          "type": "string"
        }
      ],
      "name": "addVehicleAuctions",
      "outputs": [],
      "stateMutability": "nonpayable",
      "type": "function"
    },
    {
      "inputs": [
        {
          "internalType": "address",
          "name": "to",
          "type": "address"
        },
        {
          "internalType": "uint256",
          "name": "tokenId",
          "type": "uint256"
        }
      ],
      "name": "approve",
      "outputs": [],
      "stateMutability": "nonpayable",
      "type": "function"
    },
    {
      "inputs": [
        {
          "internalType": "uint256",
          "name": "",
          "type": "uint256"
        }
      ],
      "name": "auctionStatus",
      "outputs": [
        {
          "internalType": "uint256",
          "name": "startedAt",
          "type": "uint256"
        },
        {
          "internalType": "uint256",
          "name": "willEndAt",
          "type": "uint256"
        },
        {
          "internalType": "uint256",
          "name": "winningBid",
          "type": "uint256"
        },
        {
          "internalType": "address",
          "name": "ownerBid",
          "type": "address"
        }
      ],
      "stateMutability": "view",
      "type": "function"
    },
    {
      "inputs": [],
      "name": "availableAuctionVehicleIds",
      "outputs": [
        {
          "internalType": "uint256[]",
          "name": "",
          "type": "uint256[]"
        }
      ],
      "stateMutability": "view",
      "type": "function"
    },
    {
      "inputs": [
        {
          "internalType": "uint256",
          "name": "",
          "type": "uint256"
        }
      ],
      "name": "availableVehicle",
      "outputs": [
        {
          "internalType": "bool",
          "name": "",
          "type": "bool"
        }
      ],
      "stateMutability": "view",
      "type": "function"
    },
    {
      "inputs": [],
      "name": "availableVehicleIds",
      "outputs": [
        {
          "internalType": "uint256[]",
          "name": "",
          "type": "uint256[]"
        }
      ],
      "stateMutability": "view",
      "type": "function"
    },
    {
      "inputs": [
        {
          "internalType": "address",
          "name": "owner",
          "type": "address"
        }
      ],
      "name": "balanceOf",
      "outputs": [
        {
          "internalType": "uint256",
          "name": "",
          "type": "uint256"
        }
      ],
      "stateMutability": "view",
      "type": "function"
    },
    {
      "inputs": [
        {
          "internalType": "uint256",
          "name": "_idVehicle",
          "type": "uint256"
        }
      ],
      "name": "buyNFTVehicle",
      "outputs": [],
      "stateMutability": "payable",
      "type": "function"
    },
    {
      "inputs": [
        {
          "internalType": "uint256",
          "name": "",
          "type": "uint256"
        }
      ],
      "name": "detailsVehicle",
      "outputs": [
        {
          "internalType": "uint256",
          "name": "id",
          "type": "uint256"
        },
        {
          "internalType": "string",
          "name": "name",
          "type": "string"
        },
        {
          "internalType": "string",
          "name": "model",
          "type": "string"
        },
        {
          "internalType": "uint256",
          "name": "priceVehicle",
          "type": "uint256"
        },
        {
          "internalType": "uint256",
          "name": "willEndAt",
          "type": "uint256"
        }
      ],
      "stateMutability": "view",
      "type": "function"
    },
    {
      "inputs": [
        {
          "internalType": "uint256",
          "name": "_idVehicle",
          "type": "uint256"
        }
      ],
      "name": "expiryCheck",
      "outputs": [],
      "stateMutability": "nonpayable",
      "type": "function"
    },
    {
      "inputs": [
        {
          "internalType": "uint256",
          "name": "_idVehicle",
          "type": "uint256"
        }
      ],
      "name": "expiryCheckAuction",
      "outputs": [],
      "stateMutability": "nonpayable",
      "type": "function"
    },
    {
      "inputs": [
        {
          "internalType": "address",
          "name": "",
          "type": "address"
        }
      ],
      "name": "fundsRecovered",
      "outputs": [
        {
          "internalType": "bool",
          "name": "",
          "type": "bool"
        }
      ],
      "stateMutability": "view",
      "type": "function"
    },
    {
      "inputs": [
        {
          "internalType": "uint256",
          "name": "tokenId",
          "type": "uint256"
        }
      ],
      "name": "getApproved",
      "outputs": [
        {
          "internalType": "address",
          "name": "",
          "type": "address"
        }
      ],
      "stateMutability": "view",
      "type": "function"
    },
    {
      "inputs": [],
      "name": "getCurrentTimestamp",
      "outputs": [
        {
          "internalType": "uint256",
          "name": "",
          "type": "uint256"
        }
      ],
      "stateMutability": "view",
      "type": "function"
    },
    {
      "inputs": [
        {
          "internalType": "address",
          "name": "owner",
          "type": "address"
        },
        {
          "internalType": "address",
          "name": "operator",
          "type": "address"
        }
      ],
      "name": "isApprovedForAll",
      "outputs": [
        {
          "internalType": "bool",
          "name": "",
          "type": "bool"
        }
      ],
      "stateMutability": "view",
      "type": "function"
    },
    {
      "inputs": [
        {
          "internalType": "uint256",
          "name": "",
          "type": "uint256"
        }
      ],
      "name": "isAuctionVehicle",
      "outputs": [
        {
          "internalType": "bool",
          "name": "",
          "type": "bool"
        }
      ],
      "stateMutability": "view",
      "type": "function"
    },
    {
      "inputs": [
        {
          "internalType": "uint256",
          "name": "",
          "type": "uint256"
        }
      ],
      "name": "isStarted",
      "outputs": [
        {
          "internalType": "bool",
          "name": "",
          "type": "bool"
        }
      ],
      "stateMutability": "view",
      "type": "function"
    },
    {
      "inputs": [],
      "name": "name",
      "outputs": [
        {
          "internalType": "string",
          "name": "",
          "type": "string"
        }
      ],
      "stateMutability": "view",
      "type": "function"
    },
    {
      "inputs": [],
      "name": "owner",
      "outputs": [
        {
          "internalType": "address",
          "name": "",
          "type": "address"
        }
      ],
      "stateMutability": "view",
      "type": "function"
    },
    {
      "inputs": [
        {
          "internalType": "uint256",
          "name": "tokenId",
          "type": "uint256"
        }
      ],
      "name": "ownerOf",
      "outputs": [
        {
          "internalType": "address",
          "name": "",
          "type": "address"
        }
      ],
      "stateMutability": "view",
      "type": "function"
    },
    {
      "inputs": [
        {
          "internalType": "uint256",
          "name": "_idVehicle",
          "type": "uint256"
        }
      ],
      "name": "participateAuction",
      "outputs": [],
      "stateMutability": "payable",
      "type": "function"
    },
    {
      "inputs": [],
      "name": "purchasedAuctionVehicleIds",
      "outputs": [
        {
          "internalType": "uint256[]",
          "name": "",
          "type": "uint256[]"
        }
      ],
      "stateMutability": "view",
      "type": "function"
    },
    {
      "inputs": [
        {
          "internalType": "address",
          "name": "",
          "type": "address"
        },
        {
          "internalType": "uint256",
          "name": "",
          "type": "uint256"
        }
      ],
      "name": "purchasedAuctionVehiclesByAccount",
      "outputs": [
        {
          "internalType": "uint256",
          "name": "",
          "type": "uint256"
        }
      ],
      "stateMutability": "view",
      "type": "function"
    },
    {
      "inputs": [
        {
          "internalType": "address",
          "name": "_account",
          "type": "address"
        }
      ],
      "name": "purchasedAuctionVehiclesByAddress",
      "outputs": [
        {
          "internalType": "uint256[]",
          "name": "",
          "type": "uint256[]"
        }
      ],
      "stateMutability": "view",
      "type": "function"
    },
    {
      "inputs": [],
      "name": "purchasedVehicleIds",
      "outputs": [
        {
          "internalType": "uint256[]",
          "name": "",
          "type": "uint256[]"
        }
      ],
      "stateMutability": "view",
      "type": "function"
    },
    {
      "inputs": [
        {
          "internalType": "address",
          "name": "",
          "type": "address"
        },
        {
          "internalType": "uint256",
          "name": "",
          "type": "uint256"
        }
      ],
      "name": "purchasedVehiclesByAccount",
      "outputs": [
        {
          "internalType": "uint256",
          "name": "",
          "type": "uint256"
        }
      ],
      "stateMutability": "view",
      "type": "function"
    },
    {
      "inputs": [
        {
          "internalType": "address",
          "name": "_account",
          "type": "address"
        }
      ],
      "name": "purchasedVehiclesByAddress",
      "outputs": [
        {
          "internalType": "uint256[]",
          "name": "",
          "type": "uint256[]"
        }
      ],
      "stateMutability": "view",
      "type": "function"
    },
    {
      "inputs": [
        {
          "internalType": "uint256",
          "name": "_idVehicle",
          "type": "uint256"
        }
      ],
      "name": "recoverFunds",
      "outputs": [],
      "stateMutability": "nonpayable",
      "type": "function"
    },
    {
      "inputs": [],
      "name": "renounceOwnership",
      "outputs": [],
      "stateMutability": "nonpayable",
      "type": "function"
    },
    {
      "inputs": [
        {
          "internalType": "address",
          "name": "from",
          "type": "address"
        },
        {
          "internalType": "address",
          "name": "to",
          "type": "address"
        },
        {
          "internalType": "uint256",
          "name": "tokenId",
          "type": "uint256"
        }
      ],
      "name": "safeTransferFrom",
      "outputs": [],
      "stateMutability": "nonpayable",
      "type": "function"
    },
    {
      "inputs": [
        {
          "internalType": "address",
          "name": "from",
          "type": "address"
        },
        {
          "internalType": "address",
          "name": "to",
          "type": "address"
        },
        {
          "internalType": "uint256",
          "name": "tokenId",
          "type": "uint256"
        },
        {
          "internalType": "bytes",
          "name": "data",
          "type": "bytes"
        }
      ],
      "name": "safeTransferFrom",
      "outputs": [],
      "stateMutability": "nonpayable",
      "type": "function"
    },
    {
      "inputs": [
        {
          "internalType": "address",
          "name": "operator",
          "type": "address"
        },
        {
          "internalType": "bool",
          "name": "approved",
          "type": "bool"
        }
      ],
      "name": "setApprovalForAll",
      "outputs": [],
      "stateMutability": "nonpayable",
      "type": "function"
    },
    {
      "inputs": [
        {
          "internalType": "uint256",
          "name": "_idVehicle",
          "type": "uint256"
        }
      ],
      "name": "startAuction",
      "outputs": [],
      "stateMutability": "nonpayable",
      "type": "function"
    },
    {
      "inputs": [
        {
          "internalType": "bytes4",
          "name": "interfaceId",
          "type": "bytes4"
        }
      ],
      "name": "supportsInterface",
      "outputs": [
        {
          "internalType": "bool",
          "name": "",
          "type": "bool"
        }
      ],
      "stateMutability": "view",
      "type": "function"
    },
    {
      "inputs": [],
      "name": "symbol",
      "outputs": [
        {
          "internalType": "string",
          "name": "",
          "type": "string"
        }
      ],
      "stateMutability": "view",
      "type": "function"
    },
    {
      "inputs": [
        {
          "internalType": "uint256",
          "name": "tokenId",
          "type": "uint256"
        }
      ],
      "name": "tokenURI",
      "outputs": [
        {
          "internalType": "string",
          "name": "",
          "type": "string"
        }
      ],
      "stateMutability": "view",
      "type": "function"
    },
    {
      "inputs": [
        {
          "internalType": "address",
          "name": "_from",
          "type": "address"
        },
        {
          "internalType": "address",
          "name": "_to",
          "type": "address"
        },
        {
          "internalType": "uint256",
          "name": "_tokenId",
          "type": "uint256"
        }
      ],
      "name": "transferFrom",
      "outputs": [],
      "stateMutability": "nonpayable",
      "type": "function"
    },
    {
      "inputs": [
        {
          "internalType": "address",
          "name": "newOwner",
          "type": "address"
        }
      ],
      "name": "transferOwnership",
      "outputs": [],
      "stateMutability": "nonpayable",
      "type": "function"
    },
    {
      "inputs": [
        {
          "internalType": "uint256",
          "name": "_idVehicle",
          "type": "uint256"
        }
      ],
      "name": "withdrawNFT",
      "outputs": [],
      "stateMutability": "nonpayable",
      "type": "function"
    },
    {
      "inputs": [
        {
          "internalType": "uint256",
          "name": "",
          "type": "uint256"
        }
      ],
      "name": "withdrawhed",
      "outputs": [
        {
          "internalType": "bool",
          "name": "",
          "type": "bool"
        }
      ],
      "stateMutability": "view",
      "type": "function"
    }
  ],
  "bytecode": "0x60806040523480156200001157600080fd5b506040516200611138038062006111833981810160405281019062000037919062000395565b818133828281600090816200004d919062000665565b5080600190816200005f919062000665565b505050600073ffffffffffffffffffffffffffffffffffffffff168173ffffffffffffffffffffffffffffffffffffffff1603620000d75760006040517f1e4fbdf7000000000000000000000000000000000000000000000000000000008152600401620000ce919062000791565b60405180910390fd5b620000e8816200013c60201b60201c565b5033600760006101000a81548173ffffffffffffffffffffffffffffffffffffffff021916908373ffffffffffffffffffffffffffffffffffffffff160217905550600060088190555050505050620007ae565b6000600660009054906101000a900473ffffffffffffffffffffffffffffffffffffffff16905081600660006101000a81548173ffffffffffffffffffffffffffffffffffffffff021916908373ffffffffffffffffffffffffffffffffffffffff1602179055508173ffffffffffffffffffffffffffffffffffffffff168173ffffffffffffffffffffffffffffffffffffffff167f8be0079c531659141344cd1fd0a4f28419497f9722a3daafe3b4186f6b6457e060405160405180910390a35050565b6000604051905090565b600080fd5b600080fd5b600080fd5b600080fd5b6000601f19601f8301169050919050565b7f4e487b7100000000000000000000000000000000000000000000000000000000600052604160045260246000fd5b6200026b8262000220565b810181811067ffffffffffffffff821117156200028d576200028c62000231565b5b80604052505050565b6000620002a262000202565b9050620002b0828262000260565b919050565b600067ffffffffffffffff821115620002d357620002d262000231565b5b620002de8262000220565b9050602081019050919050565b60005b838110156200030b578082015181840152602081019050620002ee565b60008484015250505050565b60006200032e6200032884620002b5565b62000296565b9050828152602081018484840111156200034d576200034c6200021b565b5b6200035a848285620002eb565b509392505050565b600082601f8301126200037a576200037962000216565b5b81516200038c84826020860162000317565b91505092915050565b60008060408385031215620003af57620003ae6200020c565b5b600083015167ffffffffffffffff811115620003d057620003cf62000211565b5b620003de8582860162000362565b925050602083015167ffffffffffffffff81111562000402576200040162000211565b5b620004108582860162000362565b9150509250929050565b600081519050919050565b7f4e487b7100000000000000000000000000000000000000000000000000000000600052602260045260246000fd5b600060028204905060018216806200046d57607f821691505b60208210810362000483576200048262000425565b5b50919050565b60008190508160005260206000209050919050565b60006020601f8301049050919050565b600082821b905092915050565b600060088302620004ed7fffffffffffffffffffffffffffffffffffffffffffffffffffffffffffffffff82620004ae565b620004f98683620004ae565b95508019841693508086168417925050509392505050565b6000819050919050565b6000819050919050565b600062000546620005406200053a8462000511565b6200051b565b62000511565b9050919050565b6000819050919050565b620005628362000525565b6200057a62000571826200054d565b848454620004bb565b825550505050565b600090565b6200059162000582565b6200059e81848462000557565b505050565b5b81811015620005c657620005ba60008262000587565b600181019050620005a4565b5050565b601f8211156200061557620005df8162000489565b620005ea846200049e565b81016020851015620005fa578190505b6200061262000609856200049e565b830182620005a3565b50505b505050565b600082821c905092915050565b60006200063a600019846008026200061a565b1980831691505092915050565b600062000655838362000627565b9150826002028217905092915050565b62000670826200041a565b67ffffffffffffffff8111156200068c576200068b62000231565b5b62000698825462000454565b620006a5828285620005ca565b600060209050601f831160018114620006dd5760008415620006c8578287015190505b620006d4858262000647565b86555062000744565b601f198416620006ed8662000489565b60005b828110156200071757848901518255600182019150602085019450602081019050620006f0565b8683101562000737578489015162000733601f89168262000627565b8355505b6001600288020188555050505b505050505050565b600073ffffffffffffffffffffffffffffffffffffffff82169050919050565b600062000779826200074c565b9050919050565b6200078b816200076c565b82525050565b6000602082019050620007a8600083018462000780565b92915050565b61595380620007be6000396000f3fe6080604052600436106102465760003560e01c806370a0823111610139578063babbb5e1116100b6578063dca54e471161007a578063dca54e47146108e7578063e2a71cda14610910578063e985e9c51461094d578063ee67642a1461098a578063f08f4b76146109b5578063f2fde38b146109f257610246565b8063babbb5e1146107ea578063c87b56dd1461082b578063cc5a012014610868578063d63c061014610893578063d7d96bc2146108be57610246565b806396da43b6116100fd57806396da43b6146106de578063a22cb4651461071e578063abd225e114610747578063b0d8328614610784578063b88d4fde146107c157610246565b806370a0823114610618578063715018a6146106555780637b306a6b1461066c5780638da5cb5b1461068857806395d89b41146106b357610246565b806329b6eebd116101c75780635d7803121161018b5780635d7803121461051a578063613e36e2146105575780636352211e1461059457806368d7d76a146105d15780636c9230db146105ed57610246565b806329b6eebd1461042357806342842e0e14610460578063484bd2c6146104895780634ab358c7146104c6578063517639d3146104ef57610246565b8063081812fc1161020e578063081812fc1461032e578063095ea7b31461036b57806319610fae146103945780632327aef0146103d157806323b872dd146103fa57610246565b806301ffc9a71461024b578063023245d7146102885780630651ada7146102b1578063065de74c146102da57806306fdde0314610303575b600080fd5b34801561025757600080fd5b50610272600480360381019061026d91906144c4565b610a1b565b60405161027f919061450c565b60405180910390f35b34801561029457600080fd5b506102af60048036038101906102aa919061455d565b610afd565b005b3480156102bd57600080fd5b506102d860048036038101906102d391906146d0565b610dad565b005b3480156102e657600080fd5b5061030160048036038101906102fc919061455d565b610f19565b005b34801561030f57600080fd5b506103186110d8565b60405161032591906147da565b60405180910390f35b34801561033a57600080fd5b506103556004803603810190610350919061455d565b61116a565b604051610362919061483d565b60405180910390f35b34801561037757600080fd5b50610392600480360381019061038d9190614884565b611186565b005b3480156103a057600080fd5b506103bb60048036038101906103b6919061455d565b61119c565b6040516103c8919061450c565b60405180910390f35b3480156103dd57600080fd5b506103f860048036038101906103f3919061455d565b6111bc565b005b34801561040657600080fd5b50610421600480360381019061041c91906148c4565b61135b565b005b34801561042f57600080fd5b5061044a60048036038101906104459190614917565b6113d0565b604051610457919061450c565b60405180910390f35b34801561046c57600080fd5b50610487600480360381019061048291906148c4565b6113f0565b005b34801561049557600080fd5b506104b060048036038101906104ab919061455d565b611410565b6040516104bd919061450c565b60405180910390f35b3480156104d257600080fd5b506104ed60048036038101906104e8919061455d565b611430565b005b3480156104fb57600080fd5b50610504611890565b6040516105119190614a02565b60405180910390f35b34801561052657600080fd5b50610541600480360381019061053c9190614917565b611a98565b60405161054e9190614a02565b60405180910390f35b34801561056357600080fd5b5061057e60048036038101906105799190614884565b611d6a565b60405161058b9190614a33565b60405180910390f35b3480156105a057600080fd5b506105bb60048036038101906105b6919061455d565b611d9b565b6040516105c8919061483d565b60405180910390f35b6105eb60048036038101906105e6919061455d565b611dad565b005b3480156105f957600080fd5b506106026120bb565b60405161060f9190614a33565b60405180910390f35b34801561062457600080fd5b5061063f600480360381019061063a9190614917565b6120c3565b60405161064c9190614a33565b60405180910390f35b34801561066157600080fd5b5061066a61217d565b005b6106866004803603810190610681919061455d565b612191565b005b34801561069457600080fd5b5061069d6123f5565b6040516106aa919061483d565b60405180910390f35b3480156106bf57600080fd5b506106c861241f565b6040516106d591906147da565b60405180910390f35b3480156106ea57600080fd5b506107056004803603810190610700919061455d565b6124b1565b6040516107159493929190614a4e565b60405180910390f35b34801561072a57600080fd5b5061074560048036038101906107409190614abf565b612501565b005b34801561075357600080fd5b5061076e6004803603810190610769919061455d565b612517565b60405161077b919061450c565b60405180910390f35b34801561079057600080fd5b506107ab60048036038101906107a6919061455d565b612537565b6040516107b8919061450c565b60405180910390f35b3480156107cd57600080fd5b506107e860048036038101906107e39190614ba0565b612557565b005b3480156107f657600080fd5b50610811600480360381019061080c919061455d565b612574565b604051610822959493929190614c23565b60405180910390f35b34801561083757600080fd5b50610852600480360381019061084d919061455d565b6126ba565b60405161085f91906147da565b60405180910390f35b34801561087457600080fd5b5061087d612723565b60405161088a9190614a02565b60405180910390f35b34801561089f57600080fd5b506108a8612939565b6040516108b59190614a02565b60405180910390f35b3480156108ca57600080fd5b506108e560048036038101906108e09190614c84565b612b5d565b005b3480156108f357600080fd5b5061090e6004803603810190610909919061455d565b612cf5565b005b34801561091c57600080fd5b5061093760048036038101906109329190614917565b612e4d565b6040516109449190614a02565b60405180910390f35b34801561095957600080fd5b50610974600480360381019061096f9190614cfc565b61312d565b604051610981919061450c565b60405180910390f35b34801561099657600080fd5b5061099f6131c1565b6040516109ac9190614a02565b60405180910390f35b3480156109c157600080fd5b506109dc60048036038101906109d79190614884565b6133d7565b6040516109e99190614a33565b60405180910390f35b3480156109fe57600080fd5b50610a196004803603810190610a149190614917565b613408565b005b60007f80ac58cd000000000000000000000000000000000000000000000000000000007bffffffffffffffffffffffffffffffffffffffffffffffffffffffff1916827bffffffffffffffffffffffffffffffffffffffffffffffffffffffff19161480610ae657507f5b5e139f000000000000000000000000000000000000000000000000000000007bffffffffffffffffffffffffffffffffffffffffffffffffffffffff1916827bffffffffffffffffffffffffffffffffffffffffffffffffffffffff1916145b80610af65750610af58261348e565b5b9050919050565b600b600082815260200190815260200160002060009054906101000a900460ff16610b5d576040517f08c379a0000000000000000000000000000000000000000000000000000000008152600401610b5490614d88565b60405180910390fd5b600f6000828152602001908152602001600020600101544211610bb5576040517f08c379a0000000000000000000000000000000000000000000000000000000008152600401610bac90614e1a565b60405180910390fd5b600f600082815260200190815260200160002060030160009054906101000a900473ffffffffffffffffffffffffffffffffffffffff1673ffffffffffffffffffffffffffffffffffffffff163373ffffffffffffffffffffffffffffffffffffffff1614610c59576040517f08c379a0000000000000000000000000000000000000000000000000000000008152600401610c5090614eac565b60405180910390fd5b610c6c3382610c6784611d9b565b6134f8565b610c7f610c7882611d9b565b338361135b565b600e60003373ffffffffffffffffffffffffffffffffffffffff1673ffffffffffffffffffffffffffffffffffffffff16815260200190815260200160002081908060018154018082558091505060019003906000526020600020016000909190919091505560016011600083815260200190815260200160002060006101000a81548160ff0219169083151502179055506000600c600083815260200190815260200160002060006101000a81548160ff02191690831515021790555062093a8042610d4c9190614efb565b600a600083815260200190815260200160002060040181905550803373ffffffffffffffffffffffffffffffffffffffff167ffb6da6529a29c2568f7d1b5d6b5362e86e76af5bc2f26f8fd16a0a3f6033674760405160405180910390a350565b610db561350a565b60086000815480929190610dc890614f2f565b9190505550600060085490506040518060a001604052808281526020018581526020018481526020018381526020016000815250600a6000838152602001908152602001600020600082015181600001556020820151816001019081610e2e9190615183565b506040820151816002019081610e449190615183565b50606082015181600301556080820151816004015590505060098190806001815401808255809150506001900390600052602060002001600090919091909150556001600c600083815260200190815260200160002060006101000a81548160ff021916908315150217905550610ebb3382613591565b82604051610ec99190615291565b604051809103902084604051610edf9190615291565b60405180910390207f927de78391648190e6dff178494499568a6f07d6a22bda10eb10a944b73f450e60405160405180910390a350505050565b610f2161350a565b600b600082815260200190815260200160002060009054906101000a900460ff168015610f6b5750600c600082815260200190815260200160002060009054906101000a900460ff165b610faa576040517f08c379a0000000000000000000000000000000000000000000000000000000008152600401610fa190614d88565b60405180910390fd5b60405180608001604052804281526020016201518042610fca9190614efb565b815260200160008152602001600073ffffffffffffffffffffffffffffffffffffffff16815250600f600083815260200190815260200160002060008201518160000155602082015181600101556040820151816002015560608201518160030160006101000a81548173ffffffffffffffffffffffffffffffffffffffff021916908373ffffffffffffffffffffffffffffffffffffffff16021790555090505060016010600083815260200190815260200160002060006101000a81548160ff0219169083151502179055508062015180426110a89190614efb565b427fd33c12a3372418f7b06f63be116326b11627b211b3f7a5ae9392ec7da75f0bea60405160405180910390a450565b6060600080546110e790614fa6565b80601f016020809104026020016040519081016040528092919081815260200182805461111390614fa6565b80156111605780601f1061113557610100808354040283529160200191611160565b820191906000526020600020905b81548152906001019060200180831161114357829003601f168201915b5050505050905090565b6000611175826135af565b5061117f82613637565b9050919050565b6111988282611193613674565b6134f8565b5050565b600c6020528060005260406000206000915054906101000a900460ff1681565b6111c461350a565b6000600b600083815260200190815260200160002060009054906101000a900460ff16611226576040517f08c379a000000000000000000000000000000000000000000000000000000000815260040161121d90614d88565b60405180910390fd5b600a60008381526020019081526020016000206004015442111561124957600190505b6001151581151514611290576040517f08c379a00000000000000000000000000000000000000000000000000000000081526004016112879061531a565b60405180910390fd5b6112a3338361129e85611d9b565b6134f8565b6112b66112af83611d9b565b338461135b565b6000600a6000848152602001908152602001600020600401819055506001600c600084815260200190815260200160002060006101000a81548160ff02191690831515021790555060006010600084815260200190815260200160002060006101000a81548160ff021916908315150217905550817f0c29f50c56a065d12888b21481ad9cf89fbe06c5e961884ed5d26bb5e2ecb31e60405160405180910390a25050565b61136683838361367c565b8173ffffffffffffffffffffffffffffffffffffffff168373ffffffffffffffffffffffffffffffffffffffff167fcd8b38cefcfe1ddd69acc0c4a3b72838681981b18de8d5f5ad85aada541b1ee0836040516113c39190614a33565b60405180910390a3505050565b60126020528060005260406000206000915054906101000a900460ff1681565b61140b83838360405180602001604052806000815250612557565b505050565b60116020528060005260406000206000915054906101000a900460ff1681565b600f6000828152602001908152602001600020600101544211611488576040517f08c379a000000000000000000000000000000000000000000000000000000000815260040161147f90614e1a565b60405180910390fd5b60011515601260003373ffffffffffffffffffffffffffffffffffffffff1673ffffffffffffffffffffffffffffffffffffffff16815260200190815260200160002060009054906101000a900460ff1615150361151b576040517f08c379a000000000000000000000000000000000000000000000000000000000815260040161151290615386565b60405180910390fd5b6011600082815260200190815260200160002060009054906101000a900460ff1661157b576040517f08c379a000000000000000000000000000000000000000000000000000000000815260040161157290615418565b60405180910390fd5b600f600082815260200190815260200160002060030160009054906101000a900473ffffffffffffffffffffffffffffffffffffffff1673ffffffffffffffffffffffffffffffffffffffff163373ffffffffffffffffffffffffffffffffffffffff160361161f576040517f08c379a0000000000000000000000000000000000000000000000000000000008152600401611616906154aa565b60405180910390fd5b60001515601260003373ffffffffffffffffffffffffffffffffffffffff1673ffffffffffffffffffffffffffffffffffffffff16815260200190815260200160002060009054906101000a900460ff161515146116b2576040517f08c379a00000000000000000000000000000000000000000000000000000000081526004016116a990615386565b60405180910390fd5b60006014600083815260200190815260200160002054905060005b81811015611833573373ffffffffffffffffffffffffffffffffffffffff16601360008581526020019081526020016000206001018281548110611714576117136154ca565b5b9060005260206000200160009054906101000a900473ffffffffffffffffffffffffffffffffffffffff1673ffffffffffffffffffffffffffffffffffffffff160361182657601360008481526020019081526020016000206001018181548110611782576117816154ca565b5b9060005260206000200160009054906101000a900473ffffffffffffffffffffffffffffffffffffffff1673ffffffffffffffffffffffffffffffffffffffff166108fc6013600086815260200190815260200160002060000183815481106117ee576117ed6154ca565b5b90600052602060002001549081150290604051600060405180830381858888f19350505050158015611824573d6000803e3d6000fd5b505b80806001019150506116cd565b506001601260003373ffffffffffffffffffffffffffffffffffffffff1673ffffffffffffffffffffffffffffffffffffffff16815260200190815260200160002060006101000a81548160ff0219169083151502179055505050565b60606000805b60098054905081101561194a57600c6000600983815481106118bb576118ba6154ca565b5b9060005260206000200154815260200190815260200160002060009054906101000a900460ff1680156119295750600b600060098381548110611901576119006154ca565b5b9060005260206000200154815260200190815260200160002060009054906101000a900460ff165b1561193d57818061193990614f2f565b9250505b8080600101915050611896565b5060008167ffffffffffffffff811115611967576119666145a5565b5b6040519080825280602002602001820160405280156119955781602001602082028036833780820191505090505b5090506000805b600980549050811015611a8e57600c6000600983815481106119c1576119c06154ca565b5b9060005260206000200154815260200190815260200160002060009054906101000a900460ff168015611a2f5750600b600060098381548110611a0757611a066154ca565b5b9060005260206000200154815260200190815260200160002060009054906101000a900460ff165b15611a815760098181548110611a4857611a476154ca565b5b9060005260206000200154838381518110611a6657611a656154ca565b5b6020026020010181815250508180611a7d90614f2f565b9250505b808060010191505061199c565b5081935050505090565b60606000805b600980549050811015611bb65760001515600c600060098481548110611ac757611ac66154ca565b5b9060005260206000200154815260200190815260200160002060009054906101000a900460ff161515148015611b4e57508373ffffffffffffffffffffffffffffffffffffffff16611b3660098381548110611b2657611b256154ca565b5b9060005260206000200154611d9b565b73ffffffffffffffffffffffffffffffffffffffff16145b8015611b955750600b600060098381548110611b6d57611b6c6154ca565b5b9060005260206000200154815260200190815260200160002060009054906101000a900460ff165b15611ba9578180611ba590614f2f565b9250505b8080600101915050611a9e565b5060008167ffffffffffffffff811115611bd357611bd26145a5565b5b604051908082528060200260200182016040528015611c015781602001602082028036833780820191505090505b5090506000805b600980549050811015611d5e5760001515600c600060098481548110611c3157611c306154ca565b5b9060005260206000200154815260200190815260200160002060009054906101000a900460ff161515148015611cb857508573ffffffffffffffffffffffffffffffffffffffff16611ca060098381548110611c9057611c8f6154ca565b5b9060005260206000200154611d9b565b73ffffffffffffffffffffffffffffffffffffffff16145b8015611cff5750600b600060098381548110611cd757611cd66154ca565b5b9060005260206000200154815260200190815260200160002060009054906101000a900460ff165b15611d515760098181548110611d1857611d176154ca565b5b9060005260206000200154838381518110611d3657611d356154ca565b5b6020026020010181815250508180611d4d90614f2f565b9250505b8080600101915050611c08565b50819350505050919050565b600e6020528160005260406000208181548110611d8657600080fd5b90600052602060002001600091509150505481565b6000611da6826135af565b9050919050565b600b600082815260200190815260200160002060009054906101000a900460ff16611e0d576040517f08c379a0000000000000000000000000000000000000000000000000000000008152600401611e0490614d88565b60405180910390fd5b600015156010600083815260200190815260200160002060009054906101000a900460ff16151503611e74576040517f08c379a0000000000000000000000000000000000000000000000000000000008152600401611e6b90615545565b60405180910390fd5b600f600082815260200190815260200160002060010154421115611ecd576040517f08c379a0000000000000000000000000000000000000000000000000000000008152600401611ec4906155b1565b60405180910390fd5b600f6000828152602001908152602001600020600201543411611f25576040517f08c379a0000000000000000000000000000000000000000000000000000000008152600401611f1c90615643565b60405180910390fd5b34600f60008381526020019081526020016000206002018190555033600f600083815260200190815260200160002060030160006101000a81548173ffffffffffffffffffffffffffffffffffffffff021916908373ffffffffffffffffffffffffffffffffffffffff1602179055506001601460008381526020019081526020016000206000828254611fb99190614efb565b925050819055506013600082815260200190815260200160002060000134908060018154018082558091505060019003906000526020600020016000909190919091505560136000828152602001908152602001600020600101339080600181540180825580915050600190039060005260206000200160009091909190916101000a81548173ffffffffffffffffffffffffffffffffffffffff021916908373ffffffffffffffffffffffffffffffffffffffff160217905550343373ffffffffffffffffffffffffffffffffffffffff167f76912359278d85616acb8be84e6b72dc8321620577ed8bd86baa31cf6493df0060405160405180910390a350565b600042905090565b60008073ffffffffffffffffffffffffffffffffffffffff168273ffffffffffffffffffffffffffffffffffffffff16036121365760006040517f89c62b6400000000000000000000000000000000000000000000000000000000815260040161212d919061483d565b60405180910390fd5b600360008373ffffffffffffffffffffffffffffffffffffffff1673ffffffffffffffffffffffffffffffffffffffff168152602001908152602001600020549050919050565b61218561350a565b61218f600061377e565b565b6008548111156121d6576040517f08c379a00000000000000000000000000000000000000000000000000000000081526004016121cd90614d88565b60405180910390fd5b6000600a6000838152602001908152602001600020600301549050600760009054906101000a900473ffffffffffffffffffffffffffffffffffffffff1673ffffffffffffffffffffffffffffffffffffffff1661223383611d9b565b73ffffffffffffffffffffffffffffffffffffffff1614612289576040517f08c379a0000000000000000000000000000000000000000000000000000000008152600401612280906156d5565b60405180910390fd5b803410156122cc576040517f08c379a00000000000000000000000000000000000000000000000000000000081526004016122c390615767565b60405180910390fd5b6122df33836122da85611d9b565b6134f8565b6122f26122eb83611d9b565b338461135b565b6000600c600084815260200190815260200160002060006101000a81548160ff021916908315150217905550620151804261232d9190614efb565b600a600084815260200190815260200160002060040181905550600d60003373ffffffffffffffffffffffffffffffffffffffff1673ffffffffffffffffffffffffffffffffffffffff1681526020019081526020016000208290806001815401808255809150506001900390600052602060002001600090919091909150553373ffffffffffffffffffffffffffffffffffffffff16827f112e4af3852d711647537c1b0427246ba66a8a586c3f5bea0cc09fd81b8bb23060405160405180910390a35050565b6000600660009054906101000a900473ffffffffffffffffffffffffffffffffffffffff16905090565b60606001805461242e90614fa6565b80601f016020809104026020016040519081016040528092919081815260200182805461245a90614fa6565b80156124a75780601f1061247c576101008083540402835291602001916124a7565b820191906000526020600020905b81548152906001019060200180831161248a57829003601f168201915b5050505050905090565b600f6020528060005260406000206000915090508060000154908060010154908060020154908060030160009054906101000a900473ffffffffffffffffffffffffffffffffffffffff16905084565b61251361250c613674565b8383613844565b5050565b60106020528060005260406000206000915054906101000a900460ff1681565b600b6020528060005260406000206000915054906101000a900460ff1681565b61256284848461135b565b61256e848484846139b3565b50505050565b600a60205280600052604060002060009150905080600001549080600101805461259d90614fa6565b80601f01602080910402602001604051908101604052809291908181526020018280546125c990614fa6565b80156126165780601f106125eb57610100808354040283529160200191612616565b820191906000526020600020905b8154815290600101906020018083116125f957829003601f168201915b50505050509080600201805461262b90614fa6565b80601f016020809104026020016040519081016040528092919081815260200182805461265790614fa6565b80156126a45780601f10612679576101008083540402835291602001916126a4565b820191906000526020600020905b81548152906001019060200180831161268757829003601f168201915b5050505050908060030154908060040154905085565b60606126c5826135af565b5060006126d0613b6a565b905060008151116126f0576040518060200160405280600081525061271b565b806126fa84613b81565b60405160200161270b929190615787565b6040516020818303038152906040525b915050919050565b60606000805b6009805490508110156127e457600c60006009838154811061274e5761274d6154ca565b5b9060005260206000200154815260200190815260200160002060009054906101000a900460ff1680156127c3575060001515600b600060098481548110612798576127976154ca565b5b9060005260206000200154815260200190815260200160002060009054906101000a900460ff161515145b156127d75781806127d390614f2f565b9250505b8080600101915050612729565b5060008167ffffffffffffffff811115612801576128006145a5565b5b60405190808252806020026020018201604052801561282f5781602001602082028036833780820191505090505b5090506000805b60098054905081101561292f57600c60006009838154811061285b5761285a6154ca565b5b9060005260206000200154815260200190815260200160002060009054906101000a900460ff1680156128d0575060001515600b6000600984815481106128a5576128a46154ca565b5b9060005260206000200154815260200190815260200160002060009054906101000a900460ff161515145b1561292257600981815481106128e9576128e86154ca565b5b9060005260206000200154838381518110612907576129066154ca565b5b602002602001018181525050818061291e90614f2f565b9250505b8080600101915050612836565b5081935050505090565b60606000805b600980549050811015612a015760001515600c600060098481548110612968576129676154ca565b5b9060005260206000200154815260200190815260200160002060009054906101000a900460ff1615151480156129e0575060001515600b6000600984815481106129b5576129b46154ca565b5b9060005260206000200154815260200190815260200160002060009054906101000a900460ff161515145b156129f45781806129f090614f2f565b9250505b808060010191505061293f565b5060008167ffffffffffffffff811115612a1e57612a1d6145a5565b5b604051908082528060200260200182016040528015612a4c5781602001602082028036833780820191505090505b5090506000805b600980549050811015612b535760001515600c600060098481548110612a7c57612a7b6154ca565b5b9060005260206000200154815260200190815260200160002060009054906101000a900460ff161515148015612af4575060001515600b600060098481548110612ac957612ac86154ca565b5b9060005260206000200154815260200190815260200160002060009054906101000a900460ff161515145b15612b465760098181548110612b0d57612b0c6154ca565b5b9060005260206000200154838381518110612b2b57612b2a6154ca565b5b6020026020010181815250508180612b4290614f2f565b9250505b8080600101915050612a53565b5081935050505090565b612b6561350a565b60086000815480929190612b7890614f2f565b9190505550600060085490506040518060a00160405280828152602001848152602001838152602001600081526020016000815250600a6000838152602001908152602001600020600082015181600001556020820151816001019081612bdf9190615183565b506040820151816002019081612bf59190615183565b50606082015181600301556080820151816004015590505060098190806001815401808255809150506001900390600052602060002001600090919091909150556001600b600083815260200190815260200160002060006101000a81548160ff0219169083151502179055506001600c600083815260200190815260200160002060006101000a81548160ff021916908315150217905550612c983382613591565b81604051612ca69190615291565b604051809103902083604051612cbc9190615291565b60405180910390207f3b2424469d2a0fa3ed7b7ced5fe8369bf96eeb17f49cca9f28e25e383a4f187260405160405180910390a3505050565b612cfd61350a565b600854811115612d42576040517f08c379a0000000000000000000000000000000000000000000000000000000008152600401612d3990614d88565b60405180910390fd5b6000600a600083815260200190815260200160002060040154421115612d6757600190505b6001151581151514612dae576040517f08c379a0000000000000000000000000000000000000000000000000000000008152600401612da59061531a565b60405180910390fd5b612dc13383612dbc85611d9b565b6134f8565b612dd4612dcd83611d9b565b338461135b565b6001600c600084815260200190815260200160002060006101000a81548160ff0219169083151502179055506000600a600084815260200190815260200160002060040181905550817f0c29f50c56a065d12888b21481ad9cf89fbe06c5e961884ed5d26bb5e2ecb31e60405160405180910390a25050565b60606000805b600980549050811015612f725760001515600c600060098481548110612e7c57612e7b6154ca565b5b9060005260206000200154815260200190815260200160002060009054906101000a900460ff161515148015612f0357508373ffffffffffffffffffffffffffffffffffffffff16612eeb60098381548110612edb57612eda6154ca565b5b9060005260206000200154611d9b565b73ffffffffffffffffffffffffffffffffffffffff16145b8015612f51575060001515600b600060098481548110612f2657612f256154ca565b5b9060005260206000200154815260200190815260200160002060009054906101000a900460ff161515145b15612f65578180612f6190614f2f565b9250505b8080600101915050612e53565b5060008167ffffffffffffffff811115612f8f57612f8e6145a5565b5b604051908082528060200260200182016040528015612fbd5781602001602082028036833780820191505090505b5090506000805b6009805490508110156131215760001515600c600060098481548110612fed57612fec6154ca565b5b9060005260206000200154815260200190815260200160002060009054906101000a900460ff16151514801561307457508573ffffffffffffffffffffffffffffffffffffffff1661305c6009838154811061304c5761304b6154ca565b5b9060005260206000200154611d9b565b73ffffffffffffffffffffffffffffffffffffffff16145b80156130c2575060001515600b600060098481548110613097576130966154ca565b5b9060005260206000200154815260200190815260200160002060009054906101000a900460ff161515145b1561311457600981815481106130db576130da6154ca565b5b90600052602060002001548383815181106130f9576130f86154ca565b5b602002602001018181525050818061311090614f2f565b9250505b8080600101915050612fc4565b50819350505050919050565b6000600560008473ffffffffffffffffffffffffffffffffffffffff1673ffffffffffffffffffffffffffffffffffffffff16815260200190815260200160002060008373ffffffffffffffffffffffffffffffffffffffff1673ffffffffffffffffffffffffffffffffffffffff16815260200190815260200160002060009054906101000a900460ff16905092915050565b60606000805b6009805490508110156132825760001515600c6000600984815481106131f0576131ef6154ca565b5b9060005260206000200154815260200190815260200160002060009054906101000a900460ff1615151480156132615750600b600060098381548110613239576132386154ca565b5b9060005260206000200154815260200190815260200160002060009054906101000a900460ff165b1561327557818061327190614f2f565b9250505b80806001019150506131c7565b5060008167ffffffffffffffff81111561329f5761329e6145a5565b5b6040519080825280602002602001820160405280156132cd5781602001602082028036833780820191505090505b5090506000805b6009805490508110156133cd5760001515600c6000600984815481106132fd576132fc6154ca565b5b9060005260206000200154815260200190815260200160002060009054906101000a900460ff16151514801561336e5750600b600060098381548110613346576133456154ca565b5b9060005260206000200154815260200190815260200160002060009054906101000a900460ff165b156133c05760098181548110613387576133866154ca565b5b90600052602060002001548383815181106133a5576133a46154ca565b5b60200260200101818152505081806133bc90614f2f565b9250505b80806001019150506132d4565b5081935050505090565b600d60205281600052604060002081815481106133f357600080fd5b90600052602060002001600091509150505481565b61341061350a565b600073ffffffffffffffffffffffffffffffffffffffff168173ffffffffffffffffffffffffffffffffffffffff16036134825760006040517f1e4fbdf7000000000000000000000000000000000000000000000000000000008152600401613479919061483d565b60405180910390fd5b61348b8161377e565b50565b60007f01ffc9a7000000000000000000000000000000000000000000000000000000007bffffffffffffffffffffffffffffffffffffffffffffffffffffffff1916827bffffffffffffffffffffffffffffffffffffffffffffffffffffffff1916149050919050565b6135058383836001613c4f565b505050565b613512613674565b73ffffffffffffffffffffffffffffffffffffffff166135306123f5565b73ffffffffffffffffffffffffffffffffffffffff161461358f57613553613674565b6040517f118cdaa7000000000000000000000000000000000000000000000000000000008152600401613586919061483d565b60405180910390fd5b565b6135ab828260405180602001604052806000815250613e14565b5050565b6000806135bb83613e30565b9050600073ffffffffffffffffffffffffffffffffffffffff168173ffffffffffffffffffffffffffffffffffffffff160361362e57826040517f7e2732890000000000000000000000000000000000000000000000000000000081526004016136259190614a33565b60405180910390fd5b80915050919050565b60006004600083815260200190815260200160002060009054906101000a900473ffffffffffffffffffffffffffffffffffffffff169050919050565b600033905090565b600073ffffffffffffffffffffffffffffffffffffffff168273ffffffffffffffffffffffffffffffffffffffff16036136ee5760006040517f64a0ae920000000000000000000000000000000000000000000000000000000081526004016136e5919061483d565b60405180910390fd5b600061370283836136fd613674565b613e6d565b90508373ffffffffffffffffffffffffffffffffffffffff168173ffffffffffffffffffffffffffffffffffffffff1614613778578382826040517f64283d7b00000000000000000000000000000000000000000000000000000000815260040161376f939291906157ab565b60405180910390fd5b50505050565b6000600660009054906101000a900473ffffffffffffffffffffffffffffffffffffffff16905081600660006101000a81548173ffffffffffffffffffffffffffffffffffffffff021916908373ffffffffffffffffffffffffffffffffffffffff1602179055508173ffffffffffffffffffffffffffffffffffffffff168173ffffffffffffffffffffffffffffffffffffffff167f8be0079c531659141344cd1fd0a4f28419497f9722a3daafe3b4186f6b6457e060405160405180910390a35050565b600073ffffffffffffffffffffffffffffffffffffffff168273ffffffffffffffffffffffffffffffffffffffff16036138b557816040517f5b08ba180000000000000000000000000000000000000000000000000000000081526004016138ac919061483d565b60405180910390fd5b80600560008573ffffffffffffffffffffffffffffffffffffffff1673ffffffffffffffffffffffffffffffffffffffff16815260200190815260200160002060008473ffffffffffffffffffffffffffffffffffffffff1673ffffffffffffffffffffffffffffffffffffffff16815260200190815260200160002060006101000a81548160ff0219169083151502179055508173ffffffffffffffffffffffffffffffffffffffff168373ffffffffffffffffffffffffffffffffffffffff167f17307eab39ab6107e8899845ad3d59bd9653f200f220920489ca2b5937696c31836040516139a6919061450c565b60405180910390a3505050565b60008373ffffffffffffffffffffffffffffffffffffffff163b1115613b64578273ffffffffffffffffffffffffffffffffffffffff1663150b7a026139f7613674565b8685856040518563ffffffff1660e01b8152600401613a199493929190615837565b6020604051808303816000875af1925050508015613a5557506040513d601f19601f82011682018060405250810190613a529190615898565b60015b613ad9573d8060008114613a85576040519150601f19603f3d011682016040523d82523d6000602084013e613a8a565b606091505b506000815103613ad157836040517f64a0ae92000000000000000000000000000000000000000000000000000000008152600401613ac8919061483d565b60405180910390fd5b805181602001fd5b63150b7a0260e01b7bffffffffffffffffffffffffffffffffffffffffffffffffffffffff1916817bffffffffffffffffffffffffffffffffffffffffffffffffffffffff191614613b6257836040517f64a0ae92000000000000000000000000000000000000000000000000000000008152600401613b59919061483d565b60405180910390fd5b505b50505050565b606060405180602001604052806000815250905090565b606060006001613b9084614087565b01905060008167ffffffffffffffff811115613baf57613bae6145a5565b5b6040519080825280601f01601f191660200182016040528015613be15781602001600182028036833780820191505090505b509050600082602001820190505b600115613c44578080600190039150507f3031323334353637383961626364656600000000000000000000000000000000600a86061a8153600a8581613c3857613c376158c5565b5b04945060008503613bef575b819350505050919050565b8080613c885750600073ffffffffffffffffffffffffffffffffffffffff168273ffffffffffffffffffffffffffffffffffffffff1614155b15613dbc576000613c98846135af565b9050600073ffffffffffffffffffffffffffffffffffffffff168373ffffffffffffffffffffffffffffffffffffffff1614158015613d0357508273ffffffffffffffffffffffffffffffffffffffff168173ffffffffffffffffffffffffffffffffffffffff1614155b8015613d165750613d14818461312d565b155b15613d5857826040517fa9fbf51f000000000000000000000000000000000000000000000000000000008152600401613d4f919061483d565b60405180910390fd5b8115613dba57838573ffffffffffffffffffffffffffffffffffffffff168273ffffffffffffffffffffffffffffffffffffffff167f8c5be1e5ebec7d5bd14f71427d1e84f3dd0314c0f7b2291e5b200ac8c7c3b92560405160405180910390a45b505b836004600085815260200190815260200160002060006101000a81548173ffffffffffffffffffffffffffffffffffffffff021916908373ffffffffffffffffffffffffffffffffffffffff16021790555050505050565b613e1e83836141da565b613e2b60008484846139b3565b505050565b60006002600083815260200190815260200160002060009054906101000a900473ffffffffffffffffffffffffffffffffffffffff169050919050565b600080613e7984613e30565b9050600073ffffffffffffffffffffffffffffffffffffffff168373ffffffffffffffffffffffffffffffffffffffff1614613ebb57613eba8184866142d3565b5b600073ffffffffffffffffffffffffffffffffffffffff168173ffffffffffffffffffffffffffffffffffffffff1614613f4c57613efd600085600080613c4f565b6001600360008373ffffffffffffffffffffffffffffffffffffffff1673ffffffffffffffffffffffffffffffffffffffff168152602001908152602001600020600082825403925050819055505b600073ffffffffffffffffffffffffffffffffffffffff168573ffffffffffffffffffffffffffffffffffffffff1614613fcf576001600360008773ffffffffffffffffffffffffffffffffffffffff1673ffffffffffffffffffffffffffffffffffffffff168152602001908152602001600020600082825401925050819055505b846002600086815260200190815260200160002060006101000a81548173ffffffffffffffffffffffffffffffffffffffff021916908373ffffffffffffffffffffffffffffffffffffffff160217905550838573ffffffffffffffffffffffffffffffffffffffff168273ffffffffffffffffffffffffffffffffffffffff167fddf252ad1be2c89b69c2b068fc378daa952ba7f163c4a11628f55a4df523b3ef60405160405180910390a4809150509392505050565b600080600090507a184f03e93ff9f4daa797ed6e38ed64bf6a1f01000000000000000083106140e5577a184f03e93ff9f4daa797ed6e38ed64bf6a1f01000000000000000083816140db576140da6158c5565b5b0492506040810190505b6d04ee2d6d415b85acef81000000008310614122576d04ee2d6d415b85acef81000000008381614118576141176158c5565b5b0492506020810190505b662386f26fc10000831061415157662386f26fc100008381614147576141466158c5565b5b0492506010810190505b6305f5e100831061417a576305f5e10083816141705761416f6158c5565b5b0492506008810190505b612710831061419f576127108381614195576141946158c5565b5b0492506004810190505b606483106141c257606483816141b8576141b76158c5565b5b0492506002810190505b600a83106141d1576001810190505b80915050919050565b600073ffffffffffffffffffffffffffffffffffffffff168273ffffffffffffffffffffffffffffffffffffffff160361424c5760006040517f64a0ae92000000000000000000000000000000000000000000000000000000008152600401614243919061483d565b60405180910390fd5b600061425a83836000613e6d565b9050600073ffffffffffffffffffffffffffffffffffffffff168173ffffffffffffffffffffffffffffffffffffffff16146142ce5760006040517f73c6ac6e0000000000000000000000000000000000000000000000000000000081526004016142c5919061483d565b60405180910390fd5b505050565b6142de838383614397565b61439257600073ffffffffffffffffffffffffffffffffffffffff168373ffffffffffffffffffffffffffffffffffffffff160361435357806040517f7e27328900000000000000000000000000000000000000000000000000000000815260040161434a9190614a33565b60405180910390fd5b81816040517f177e802f0000000000000000000000000000000000000000000000000000000081526004016143899291906158f4565b60405180910390fd5b505050565b60008073ffffffffffffffffffffffffffffffffffffffff168373ffffffffffffffffffffffffffffffffffffffff161415801561444f57508273ffffffffffffffffffffffffffffffffffffffff168473ffffffffffffffffffffffffffffffffffffffff161480614410575061440f848461312d565b5b8061444e57508273ffffffffffffffffffffffffffffffffffffffff1661443683613637565b73ffffffffffffffffffffffffffffffffffffffff16145b5b90509392505050565b6000604051905090565b600080fd5b600080fd5b60007fffffffff0000000000000000000000000000000000000000000000000000000082169050919050565b6144a18161446c565b81146144ac57600080fd5b50565b6000813590506144be81614498565b92915050565b6000602082840312156144da576144d9614462565b5b60006144e8848285016144af565b91505092915050565b60008115159050919050565b614506816144f1565b82525050565b600060208201905061452160008301846144fd565b92915050565b6000819050919050565b61453a81614527565b811461454557600080fd5b50565b60008135905061455781614531565b92915050565b60006020828403121561457357614572614462565b5b600061458184828501614548565b91505092915050565b600080fd5b600080fd5b6000601f19601f8301169050919050565b7f4e487b7100000000000000000000000000000000000000000000000000000000600052604160045260246000fd5b6145dd82614594565b810181811067ffffffffffffffff821117156145fc576145fb6145a5565b5b80604052505050565b600061460f614458565b905061461b82826145d4565b919050565b600067ffffffffffffffff82111561463b5761463a6145a5565b5b61464482614594565b9050602081019050919050565b82818337600083830152505050565b600061467361466e84614620565b614605565b90508281526020810184848401111561468f5761468e61458f565b5b61469a848285614651565b509392505050565b600082601f8301126146b7576146b661458a565b5b81356146c7848260208601614660565b91505092915050565b6000806000606084860312156146e9576146e8614462565b5b600084013567ffffffffffffffff81111561470757614706614467565b5b614713868287016146a2565b935050602084013567ffffffffffffffff81111561473457614733614467565b5b614740868287016146a2565b925050604061475186828701614548565b9150509250925092565b600081519050919050565b600082825260208201905092915050565b60005b8381101561479557808201518184015260208101905061477a565b60008484015250505050565b60006147ac8261475b565b6147b68185614766565b93506147c6818560208601614777565b6147cf81614594565b840191505092915050565b600060208201905081810360008301526147f481846147a1565b905092915050565b600073ffffffffffffffffffffffffffffffffffffffff82169050919050565b6000614827826147fc565b9050919050565b6148378161481c565b82525050565b6000602082019050614852600083018461482e565b92915050565b6148618161481c565b811461486c57600080fd5b50565b60008135905061487e81614858565b92915050565b6000806040838503121561489b5761489a614462565b5b60006148a98582860161486f565b92505060206148ba85828601614548565b9150509250929050565b6000806000606084860312156148dd576148dc614462565b5b60006148eb8682870161486f565b93505060206148fc8682870161486f565b925050604061490d86828701614548565b9150509250925092565b60006020828403121561492d5761492c614462565b5b600061493b8482850161486f565b91505092915050565b600081519050919050565b600082825260208201905092915050565b6000819050602082019050919050565b61497981614527565b82525050565b600061498b8383614970565b60208301905092915050565b6000602082019050919050565b60006149af82614944565b6149b9818561494f565b93506149c483614960565b8060005b838110156149f55781516149dc888261497f565b97506149e783614997565b9250506001810190506149c8565b5085935050505092915050565b60006020820190508181036000830152614a1c81846149a4565b905092915050565b614a2d81614527565b82525050565b6000602082019050614a486000830184614a24565b92915050565b6000608082019050614a636000830187614a24565b614a706020830186614a24565b614a7d6040830185614a24565b614a8a606083018461482e565b95945050505050565b614a9c816144f1565b8114614aa757600080fd5b50565b600081359050614ab981614a93565b92915050565b60008060408385031215614ad657614ad5614462565b5b6000614ae48582860161486f565b9250506020614af585828601614aaa565b9150509250929050565b600067ffffffffffffffff821115614b1a57614b196145a5565b5b614b2382614594565b9050602081019050919050565b6000614b43614b3e84614aff565b614605565b905082815260208101848484011115614b5f57614b5e61458f565b5b614b6a848285614651565b509392505050565b600082601f830112614b8757614b8661458a565b5b8135614b97848260208601614b30565b91505092915050565b60008060008060808587031215614bba57614bb9614462565b5b6000614bc88782880161486f565b9450506020614bd98782880161486f565b9350506040614bea87828801614548565b925050606085013567ffffffffffffffff811115614c0b57614c0a614467565b5b614c1787828801614b72565b91505092959194509250565b600060a082019050614c386000830188614a24565b8181036020830152614c4a81876147a1565b90508181036040830152614c5e81866147a1565b9050614c6d6060830185614a24565b614c7a6080830184614a24565b9695505050505050565b60008060408385031215614c9b57614c9a614462565b5b600083013567ffffffffffffffff811115614cb957614cb8614467565b5b614cc5858286016146a2565b925050602083013567ffffffffffffffff811115614ce657614ce5614467565b5b614cf2858286016146a2565b9150509250929050565b60008060408385031215614d1357614d12614462565b5b6000614d218582860161486f565b9250506020614d328582860161486f565b9150509250929050565b7f56656869636c6520646f65736e277420666f756e640000000000000000000000600082015250565b6000614d72601583614766565b9150614d7d82614d3c565b602082019050919050565b60006020820190508181036000830152614da181614d65565b9050919050565b7f41756374696f6e20666f7220746869732076656869636c65206861736e27742060008201527f66696e6973686564000000000000000000000000000000000000000000000000602082015250565b6000614e04602883614766565b9150614e0f82614da8565b604082019050919050565b60006020820190508181036000830152614e3381614df7565b9050919050565b7f4f6e6c79207468652077696e6e6572206f66207468652061756374696f6e206360008201527f616e207769746864726177616c73000000000000000000000000000000000000602082015250565b6000614e96602e83614766565b9150614ea182614e3a565b604082019050919050565b60006020820190508181036000830152614ec581614e89565b9050919050565b7f4e487b7100000000000000000000000000000000000000000000000000000000600052601160045260246000fd5b6000614f0682614527565b9150614f1183614527565b9250828201905080821115614f2957614f28614ecc565b5b92915050565b6000614f3a82614527565b91507fffffffffffffffffffffffffffffffffffffffffffffffffffffffffffffffff8203614f6c57614f6b614ecc565b5b600182019050919050565b7f4e487b7100000000000000000000000000000000000000000000000000000000600052602260045260246000fd5b60006002820490506001821680614fbe57607f821691505b602082108103614fd157614fd0614f77565b5b50919050565b60008190508160005260206000209050919050565b60006020601f8301049050919050565b600082821b905092915050565b6000600883026150397fffffffffffffffffffffffffffffffffffffffffffffffffffffffffffffffff82614ffc565b6150438683614ffc565b95508019841693508086168417925050509392505050565b6000819050919050565b600061508061507b61507684614527565b61505b565b614527565b9050919050565b6000819050919050565b61509a83615065565b6150ae6150a682615087565b848454615009565b825550505050565b600090565b6150c36150b6565b6150ce818484615091565b505050565b5b818110156150f2576150e76000826150bb565b6001810190506150d4565b5050565b601f8211156151375761510881614fd7565b61511184614fec565b81016020851015615120578190505b61513461512c85614fec565b8301826150d3565b50505b505050565b600082821c905092915050565b600061515a6000198460080261513c565b1980831691505092915050565b60006151738383615149565b9150826002028217905092915050565b61518c8261475b565b67ffffffffffffffff8111156151a5576151a46145a5565b5b6151af8254614fa6565b6151ba8282856150f6565b600060209050601f8311600181146151ed57600084156151db578287015190505b6151e58582615167565b86555061524d565b601f1984166151fb86614fd7565b60005b82811015615223578489015182556001820191506020850194506020810190506151fe565b86831015615240578489015161523c601f891682615149565b8355505b6001600288020188555050505b505050505050565b600081905092915050565b600061526b8261475b565b6152758185615255565b9350615285818560208601614777565b80840191505092915050565b600061529d8284615260565b915081905092915050565b7f54686520737562736372697074696f6e20686173206e6f74207965742065787060008201527f6972656400000000000000000000000000000000000000000000000000000000602082015250565b6000615304602483614766565b915061530f826152a8565b604082019050919050565b60006020820190508181036000830152615333816152f7565b9050919050565b7f46756e647320616c7265616479207265636f7665726564000000000000000000600082015250565b6000615370601783614766565b915061537b8261533a565b602082019050919050565b6000602082019050818103600083015261539f81615363565b9050919050565b7f506c65617365207761697420756e74696c207468652077696e6e657220636f6c60008201527f6c65637473207468652076656869636c65000000000000000000000000000000602082015250565b6000615402603183614766565b915061540d826153a6565b604082019050919050565b60006020820190508181036000830152615431816153f5565b9050919050565b7f57696e6e6572206f66207468652061756374696f6e2063616e2774207265636f60008201527f7665722066756e64730000000000000000000000000000000000000000000000602082015250565b6000615494602983614766565b915061549f82615438565b604082019050919050565b600060208201905081810360008301526154c381615487565b9050919050565b7f4e487b7100000000000000000000000000000000000000000000000000000000600052603260045260246000fd5b7f5468652061756374696f6e206861736e27742073746172746564207965740000600082015250565b600061552f601e83614766565b915061553a826154f9565b602082019050919050565b6000602082019050818103600083015261555e81615522565b9050919050565b7f5468652061756374696f6e20686173206265656e20636c6f7365640000000000600082015250565b600061559b601b83614766565b91506155a682615565565b602082019050919050565b600060208201905081810360008301526155ca8161558e565b9050919050565b7f5468652065746865722076616c756520796f752073656e64206861732062652060008201527f67726561746572207468616e207468652077696e6e696e672062696400000000602082015250565b600061562d603c83614766565b9150615638826155d1565b604082019050919050565b6000602082019050818103600083015261565c81615620565b9050919050565b7f5468652076656869636c652068617320616c7265616479206265656e2074616b60008201527f656e20627920616e6f7468657220757365720000000000000000000000000000602082015250565b60006156bf603283614766565b91506156ca82615663565b604082019050919050565b600060208201905081810360008301526156ee816156b2565b9050919050565b7f446f65736e2774206861766520656e6f7567682066756e647320746f2062757960008201527f20746869732076656869636c6500000000000000000000000000000000000000602082015250565b6000615751602d83614766565b915061575c826156f5565b604082019050919050565b6000602082019050818103600083015261578081615744565b9050919050565b60006157938285615260565b915061579f8284615260565b91508190509392505050565b60006060820190506157c0600083018661482e565b6157cd6020830185614a24565b6157da604083018461482e565b949350505050565b600081519050919050565b600082825260208201905092915050565b6000615809826157e2565b61581381856157ed565b9350615823818560208601614777565b61582c81614594565b840191505092915050565b600060808201905061584c600083018761482e565b615859602083018661482e565b6158666040830185614a24565b818103606083015261587881846157fe565b905095945050505050565b60008151905061589281614498565b92915050565b6000602082840312156158ae576158ad614462565b5b60006158bc84828501615883565b91505092915050565b7f4e487b7100000000000000000000000000000000000000000000000000000000600052601260045260246000fd5b6000604082019050615909600083018561482e565b6159166020830184614a24565b939250505056fea26469706673582212207ac73db75fa18440c7d87a239a361f61ccb405480b153b48f1b31b6e63cb90d664736f6c63430008180033",
  "linkReferences": {},
  "deployedLinkReferences": {}
}